:1000000000100020C50500005D4D00005D4D0000A2
:100010005D4D00005D4D00005D4D00005D4D000038
:100020005D4D00005D4D00005D4D00005D4D000028
:100030005D4D00005D4D00005D4D00005D4D000018
:100040005D4D00005D4D00005D4D00005D4D000008
:100050005D4D00005D4D00005D4D00005D4D0000F8
:100060005D4D00005D4D00005D4D00005D4D0000E8
:10007000A13E00005D4D00005D4D00005D4D0000A3
:100080005D4D00005D4D00005D4D00005D4D0000C8
:100090005D4D0000F50B00005D4D00005D4D000062
:1000A0005D4D0000ED0D0000C90D00005D4D00002C
:1000B0005D4D00005D4D00005D4D00005D4D000098
:1000C0005D4D00005D4D00005D4D00005D4D000088
:1000D0005D4D00005D4D00005D4D00005D4D000078
:1000E0005D4D00005D4D00005D4D00005D4D000068
:1000F0005D4D00005D4D00005D4D00005D4D000058
:100100005D4D00005D4D00005D4D00005D4D000047
:100110005D4D00005D4D00005D4D00005D4D000037
:100120005D4D00005D4D00005D4D00005D4D000027
:100130005D4D00005D4D00005D4D00005D4D000017
:100140000348044B834202D0034B03B11847704766
:10015000E8110020E811002000000000064B0749CC
:10016000C91A891048BF0131491003D0044B0BB1A3
:1001700001481847704700BFE8110020E81100202F
:100180000000000010B5064C237843B9FFF7D8FFF4
:10019000044B13B10448AFF300800123237010BD5A
:1001A000DE17002000000000285F000008B5054BA6
:1001B0001BB105490548AFF30080BDE80840FFF7D3
:1001C000CDBF00BF00000000E8110020285F000044
:1001D000A3F5803A704700BF174B002B08BF134BA5
:1001E0009D46FFF7F5FF00218B460F461348144A42
:1001F000121A05F0D7F80E4B002B00D098470D4B84
:10020000002B00D098470020002104000D000D486D
:10021000002802D00C48AFF3008004F011F9200050
:10022000290004F0EDFC03F0FDFF00BF0000080012
:10023000000000000000000000100020E811002075
:10024000FC170020000000000000000070B5012134
:100250003A2001F0ABFA002304221846114602F0BE
:10026000DBFB104804F094F80F4804F091F80F48B5
:1002700004F08EF80E4804F08BF80E4804F088F86D
:100280000D4804F085F8032410250C4EC820356174
:1002900003F09AFC0A4BC8201D6103F095FC013C59
:1002A000F4D170BDA6580000E057000009580000C6
:1002B00030580000525800007E58000000D0035013
:1002C00000E0035070B504F0C6FF04464FF47A70A6
:1002D00003F068FCB4FBF0F303FB10454FF4FA7035
:1002E00003F060FC1023854234BF0B4A0B4A0C4ECE
:1002F000136133684FF47A70E51A03F053FC8542BA
:1003000004D321460748346004F042F8BDE8704049
:100310000A2003F059BC00BF00D0035000E0035096
:1003200000120020A958000010B5234C01F0F8FB82
:1003300001F0E6FD236F23F0070343F00303236777
:1003400004F07CFE1D4B00209B6A9B075EBF0122D0
:100350001B4B9A62D4F8203123F0030343F00203CD
:10036000C4F82031D4F8243123F0070343F002030A
:10037000C4F82431D4F8403123F0030343F00203DE
:10038000C4F84031D4F8603123F0030343F0020392
:10039000C4F86031D4F8403223F0030343F0020381
:1003A000C4F84032D4F8003223F0070343F00203CC
:1003B000C4F8003210BD00BF0080005000C00050E3
:1003C00000E0005008B502F0AFFC01280ED1114B3F
:1003D00004205A6E4FF480230F49520358BF0F4A2E
:1003E0004B6601F51041086258BF536602F014FDD8
:1003F00004F074FC02F0A0FC02F0F8FC02F0BEFC79
:10040000FFF792FF02F0A8FC04F05FFCBDE8084093
:1004100002F0F6BD008000500090005000A0005097
:10042000014804F0B3BC00BFDC580000014804F0F0
:100430002FBD00BFF458000018B1034B1860002016
:1004400070472520704700BF0412002010B5054CEE
:100450000549206800F0B8FE2068BDE81040FFF7AD
:10046000EBBF00BF3011002004100020014B1868C2
:10047000704700BF041200200422024B1A710022B0
:100480001A6070476812002070B51B4A12782AB3B0
:1004900070BD204604F07FFC06460028F8D104F029
:1004A000DAFE164C2368C51AFA2003F07BFBA8423B
:1004B00001D92671ECE74FF47A7003F073FBA84280
:1004C00002D901232371E3E741F2883003F06AFB8C
:1004D000A84201D90223F5E70323F3E7084A146889
:1004E0008442D5D104F057FC0128D2D104F0B3FEE8
:1004F000024B1860CCE700BFB31100206812002047
:100500000010002010B5054C2179042904D00020EA
:1005100004F0D6FB0423237110BD00BF6812002035
:10052000044B187820B9044B1879031F58425841DE
:10053000704700BFB311002068120020054B1B78E4
:1005400033B9054B1B79042B0CBF012004207047E5
:1005500001207047B31100206812002013B5082055
:1005600004F07FFCFFF782FF0123009390F8363000
:100570000C4C022B206013D1006802F02DF9236887
:1005800020F07F4093F8353040EA83700190684650
:1005900004F0A8FB082002B0BDE8104004F06CBCD9
:1005A0000020ECE7701200200348044A0449121AA4
:1005B000921004F0D4BB00BF24610000246100004D
:1005C000FC17002008B500F02FF8FFF7EDFF124BE5
:1005D00012498B4212D30020114B12498B4218D37F
:1005E000FFF7FAFD186850F82240586840F822409A
:1005F000013298688242F5D30C33EAE70022F8E72B
:100600001C6844F8220001325C68A242F8D3083327
:10061000E4E70022F8E700BF305F00003C5F000025
:100620003C5F00003C5F000010B54FF400414FF00C
:10063000FF30124B124A9A60D3F8882042F47002BD
:10064000C3F888200F4A916601F1884101F50052F4
:1006500010664FF6DF7050660220C3F8D000BFF37B
:100660004F8FBFF36F8F08244FF440330648C0F814
:100670008041D36004600B6110BD00BF00ED00E05D
:10068000000000000090005000E100E0014B1868FD
:10069000704700BF38110020084B1B6F03F00703A1
:1006A000022B04D0032B05D0012B05D0FEE7044B11
:1006B00018687047034BFBE7034870470080005001
:1006C0003811002040110020002D310108B5FFF73E
:1006D000E3FF054B1B6FC3F303330133B0FBF3F0B0
:1006E000024B186008BD00BF00800050341100208C
:1006F0000048704700B4C404014B1868704700BF3D
:1007000040110020054B1860054B1B6F03F00703D9
:10071000032B01D1FFF7DABF704700BF4011002063
:100720000080005000487047002D3101014B1868CF
:10073000704700BF3C1100200346054A0549106878
:1007400003448B428CBF4FF0FF301360704700BFF3
:10075000441100200080002038B5032804460D46CF
:1007600005D80C4B33F81030CB40DB0704D440F2F3
:10077000D231094804F006FB1422302313FB042372
:1007800003F1A04303F570331868E84000F001005E
:1007900038BD00BFBE5900000C59000073B5046895
:1007A000012105463A2001F001F800230122617978
:1007B000207902F031F961792079FFF7CDFFB0FAA5
:1007C00080F0A3794009022B20701ED100F068FA56
:1007D0001D4A2B466179207900F08CFAFF280246E9
:1007E000607915D12A46184900F0BCFAFF28054661
:1007F00003D16521154804F0C5FA012361792079F8
:10080000CDE900332A4602F097F8002002B070BD0F
:1008100001232679014600933046002302F078F93F
:100820002A460949607900F09DFAFF28054603D160
:100830007821064804F0A6FA002201236179207984
:10084000CDE90023DEE700BFA14D00005C590000A8
:1008500008B501213A2000F0A9FF03210123042259
:10086000002002F0D9F8002004F04CFC0122214BBA
:100870004FF46070C3F8442400F0C2FF1E4B00F533
:10088000D520D3F8F02000F2FC4042F00102C3F87A
:10089000F020D3F8FC2042F08072C3F8FC20174A05
:1008A000A3F55D431A60164B0222B0FBF3F0154B23
:1008B00001381861C3F8F0204FF48072C3F80423A4
:1008C0004FF06043104A0020C3F8B02F0F4AC3F81E
:1008D000802ED3F8002E42F48072C3F8002EFF223F
:1008E00083F82020D3F8002E22F48072C3F8002E63
:1008F00008BD00BF00D0035000ED00E0FF03004042
:10090000F8590D00000004E055CEACC50900010007
:1009100030B54FF06043D3F8802ED20715D50124AF
:100920000B4D8440D5F8FC2042F08072C5F8FC20C5
:10093000D3F8002E2243C3F8002E53F82020002ABB
:10094000F0D003F82010002030BD1120FCE700BFDC
:1009500000ED00E038B5032804460D4605D80B4BE2
:1009600033F81030CB40DB0704D440F20141084893
:1009700004F008FA30220123544342F2100204F139
:10098000A044AB4004F57034A35038BDC6590000F4
:100990000C59000038B5032804460D4605D80B4B0A
:1009A00033F81030CB40DB0704D44FF4866108489D
:1009B00004F0E8F930220123544341F2100204F11B
:1009C000A044AB4004F57034A35038BDC6590000B4
:1009D0000C59000038B504784578032C05D80B4B2A
:1009E00033F81430EB40DB0704D440F24B410848A5
:1009F00004F0C8F930220123544343F2100204F1F9
:100A0000A044AB4004F57034A35038BDC659000073
:100A10000C59000070B505780446032D467805D8BA
:100A20000D4B33F81530F340DB0704D440F21B4183
:100A30000A4804F0A7F93023102213FB052303F121
:100A4000A04303F570331B68F34003F00100A37863
:100A50000BB980F0010070BDC65900000C590000B0
:100A600038B5124B05461B78DBB1E0B104F002FB50
:100A70000F4A00231146147B54B92B6001251A013B
:100A800001EB03131D738C5004F0FAFA204638BDB5
:100A90000133082B02F11002EDD104F0F1FA054800
:100AA000F5E70548F3E70548F1E700BFDF17002049
:100AB00074130020048000F0028000F0018000F038
:100AC00013B5154B1868002301908DF8043004F01D
:100AD000D1FA124B1C7824B104F0D2FA104802B0BB
:100AE00010BD01221A7004F0CBFA0E4B01A81C7342
:100AF0001C7783F82C4083F83C4083F84C4083F803
:100B00005C4083F86C4083F87C4008238DF8073004
:100B100002F04EF82046E2E7CE590000DF17002031
:100B2000038000F07413002008B50A4A12785AB105
:100B300007280BD8084A02EB00131B7B43B10021A6
:100B400002F016F8002008BD0448FCE70448FAE764
:100B50000448F8E7DF17002074130020028000F03B
:100B6000018000F0078000F008B50A4A12785AB1F7
:100B700007280BD8084A02EB00131B7B43B1012165
:100B800001F0F6FF002008BD0448FCE70448FAE73E
:100B90000448F8E7DF17002074130020028000F0FB
:100BA000018000F0078000F00C4B1B787BB1072818
:100BB0000FD871B10A4B03EB00131B7B5BB1094BE0
:100BC000DB6AC34003F0010300200B707047064846
:100BD0007047064870470648704700BFDF1700207F
:100BE0007413002000000450028000F0018000F027
:100BF000078000F02DE9F041174B1F6D5B6D1F4022
:100C000000D5FEE701260025144CDFF85880374256
:100C100018D02368C8F85060A3B1A16828460131F4
:100C20006268A1609847637B012B0BD150B90C4BD4
:100C300003EB45131A7B60F341021A731A7F60F3CA
:100C400041021A770135082D4FEA460604F11004D7
:100C5000DDD1BDE8F08100BF000004507413002016
:100C6000741200200020045070B5012504460B4E7C
:100C700004B970BD94FAA4F0B0FA80F005FA00F35C
:100C800006EB001224EA03045368002BF0D0117B1A
:100C900011B191689847EBE79847E9E7F413002012
:100CA00008B5192001F060F928B14FF00072074B28
:100CB000C3F880211A601A2001F056F928B14FF0CC
:100CC0008062024BC3F880211A6008BD00E100E099
:100CD00038B505460C4604F0CDF90022044B03EB71
:100CE00005135C601A73BDE8384004F0C9B900BF51
:100CF000F4130020F8B504460D4617461E4604F0CE
:100D0000B9F91CB9052D18D0FF241FE0012C05D11D
:100D1000012D1FD0032DF7D104240EE0022C07D1A2
:100D2000052D19D0072D19D0002DEDD1062404E092
:100D3000032CE9D1022DE7D10924094904F110035C
:100D400001EB03110123C1E901760B7304F098F95B
:100D50002046F8BD0324F0E70724EEE70824ECE77B
:100D6000F4130020F8B505460E46174604F082F944
:100D7000134B2C46D3F8242405F0FC0122FA05F38A
:100D8000DB0712D500230133DBB2042B04D1FF248F
:100D900004F076F92046F8BDEC1804F003040C4486
:100DA00022FA04FC1CF0010FEDD1FF2CF0D001223F
:100DB000044B03EB0413C3E901671A73E8E700BFB0
:100DC00000C00350F4130020074BD3F82404D3F8D9
:100DD000202403F50053104000F0553020F050203F
:100DE000C3F82004FFF740BF00C00350074BD3F8FF
:100DF0002404D3F8202403F50053104000F0AA3057
:100E000020F0A020C3F82004FFF72EBF00C003503D
:100E100038B141B1013AB2F5006F044838BF002043
:100E20007047034870470148704700BF037000F0E7
:100E3000027000F030B51049104B0A782AB9C3E9A6
:100E40000022C3E9022201220A700C4900220C464A
:100E500054F8045B854208D00132042AF8D10022FC
:100E600051F8044B1CB943F82200002030BD013278
:100E7000042AF5D10248F9E7E0170020F415002014
:100E8000027000F038B5032804460D4605D80B4B18
:100E900033F81030CB40DB0704D440F2014108485E
:100EA00003F070FF30220123544342F2100204F198
:100EB000A044AB4004F57034A35038BD2A5A00005A
:100EC0000C59000038B5032804460D4605D80B4BD5
:100ED00033F81030CB40DB0704D44FF48661084868
:100EE00003F050FF30220123544341F2100204F179
:100EF000A044AB4004F57034A35038BD2A5A00001A
:100F00000C59000010B50446FFF7DAFD002104F18A
:100F10000800FFF7A5FD014608B1044810BD04F123
:100F20000C00FFF79DFD0028F8D0F6E70E7000F0EA
:100F300038B590F83530022B1CD1447F90F8215001
:100F4000032C05D80C4B33F81430EB40DB0704D4EA
:100F500040F2D231094803F015FF3023142213FB6D
:100F6000042303F1A04303F570331868E84000F050
:100F7000010038BD0020FCE72A5A00000C5900008F
:100F800013B500231D4A52F8044B94F821108142F6
:100F90000ED00133042BF6D102B010BD0028FBD1D6
:100FA0009DF80730002BF7D0A068FFF7BDFDF3E7F1
:100FB00094F83530022BEFD12046FFF7B9FF637E5E
:100FC0002076022BE8D194F8323003F0FF02002B98
:100FD000E2D1A0680DF107018DF80720FFF7E4FDCD
:100FE000237E1BB194F83330002BD7D00023A068A8
:100FF00084F83330FFF7B8FDCEE700BFF4150020CA
:1010000008B590F8363083B9042203685A619A69AA
:101010009207FCD541F21C62102103795B0103F1B8
:10102000A04303F57033995008BD022BFCD1006832
:10103000036CDB074CBF0521062101F0CBF902222E
:10104000014BC3F8C020EFE700D403502DE9F04175
:1010500004461746FFF7DCFE88460646E8B9152029
:1010600000F09CFF0546E26A93889BB213B194F8A6
:101070003230ABB194F83630BBB923689D6915F0B6
:1010800002052CD0012384F834304744B845206849
:1010900043D183699B06FCD56DB33046BDE8F08132
:1010A000002DE1D0FFF7A6FDDDE7022B12D123686A
:1010B0001D6C15F0020512D0012384F8343047442A
:1010C0004745206830D142F22002036C32EA030324
:1010D000FBD1E1E740F6A3211D4803F053FE204673
:1010E000FFF78EFF012394F8365084F83430002D3A
:1010F000CBD0022D16D094F83630D3B1022BCCD100
:101100002068016C11F0010118BF092101F062F99A
:101110000222104BC3F8C020BFE718F8011B03F0F0
:10112000FAFFB3E70025CAE718F8011B03F0D6FF62
:10113000C6E742F21C62102123795B0103F1A04350
:1011400003F570339950082223685A61A5E700BF60
:10115000D259000000E4035010B5044680B190F865
:1011600032302BB9FFF7E4FE10B9A068FFF7DCFCC2
:10117000002094F832300133DBB284F8323010BDF5
:101180000048FCE7027000F010B50446A0B190F8EA
:1011900032309BB190F83230012B05D1FFF7C8FEF9
:1011A00010B9A068FFF7E0FC002094F83230013B52
:1011B000DBB284F8323010BD0148FCE70148FAE7A1
:1011C000027000F0057000F02DE9F0418EB0044689
:1011D0007C4F06AE0D460FCF0FC697E80F0086E88E
:1011E0000F0018220021684604F0DCF8002C00F003
:1011F000E78025B9744E30460EB0BDE8F08160221C
:101200000021204604F0CEF80223D5F8008084F8AF
:101210003630C4F800802B7C20462371FFF70AFE8D
:1012200006460028E7D101272B7FE76584F8353093
:10123000664B9845DED1382363624FF480136449CE
:1012400084F83100C4E90413D5E9092384F8300097
:10125000A262394610805080908084F83000E362AA
:1012600018805880988084F8310084F833003A2040
:1012700000F09CFA3946606A00F098FA2B793946FA
:10128000544E002B7DD0352000F090FA39464FF4B3
:10129000C06000F08BFAD6F8403123F003033B43E3
:1012A000C6F84031D6F8203223F0030343F002039E
:1012B0000227C6F82032484BC3F8C0702E7BA87BAB
:1012C00046EA0042C3F8D020697BEA7B41EA024C3F
:1012D000C3F8CCC0E676E077217784F820206B7FD6
:1012E00001216377AB7F204684F82130EB7FA37721
:1012F00095F8203084F8223003F0F0FD06460028EF
:101300007FF479AF4FF00108AB688DF82570089332
:101310006B8AADF80680ADF82830AB8ACDF834D0B2
:10132000ADF82630AB7D8DF82430AB690B9303F01C
:10133000A1FE2B7F0746032B2ED1284AC2F8C0807E
:1013400095F82010EA7F42EA01422549C1F8C824F5
:10135000A87F6A7F42EA0042C1F8C4248DF80030B9
:1013600006238DF818302B79286806A92BB301F0D5
:10137000B1F92046FFF7C6FD0646384603F080FE69
:1013800039E74FF4806000F011FAD6F8203223F0EC
:10139000030343F001038BE7022BE1D194F8210012
:1013A0001049FFF795FCFFF77BFC4FF400732046D4
:1013B0002383A67603F001FED2E701F0E5F9D8E732
:1013C000094E18E7505A0000037000F00000035A5D
:1013D000010010000080005000C4035000D40350EE
:1013E00000D00350810F0000027000F010B50B4BCD
:1013F0001B7883B100230120094951F8042B32B135
:1014000092F85C40022C02BF0120D06520460133D7
:10141000042BF2D110BD0120FCE700BFE017002033
:10142000F4150020044BD3F88420D206FBD4D3F863
:101430008400C0F3811070470040005038B5104B55
:101440000546D3F820310C4603F00303022B0BD0E2
:10145000032B0DD0012B0FD1FFF718F9052305B190
:10146000286004B1236038BDFFF746F90323F6E78F
:10147000FFF758F90223F2E701230020EFE700BF4E
:1014800000800050F7B50027114B0197D3F8804139
:10149000064604F00304012C0D4608D0022C12D09D
:1014A00041F2B1310B4803F06DFC3C4604E0394693
:1014B00001A8FFF7C3FF0F240EB1019B336005B1F4
:1014C0002C6003B0F0BDFFF72DF90190F4E700BFE9
:1014D00000800050705A000038B51A4B0546D3F80A
:1014E00024010C4600F00700062821D8DFE800F0B0
:1014F000280410181C0C1400FFF7C8F8052305B1C8
:10150000286004B1236038BDFFF7C0F80623F6E772
:10151000FFF7F2F80323F2E7FFF7EEF80423EEE714
:10152000FFF700F90223EAE703F024FC0723E6E7CC
:10153000054840F6A87103F025FC00231846DEE7B5
:101540000123DCE700800050705A000038B5104BD2
:101550000546D3F840310C4603F00303022B0BD0B1
:10156000032B0DD0012B0FD103F006FC092305B18D
:10157000286004B1236038BDFFF7D8F80823F6E7E8
:1015800003F0FDFB0B23F2E701230020EFE700BF90
:101590000080005038B5164B0546D3F800020C46C3
:1015A00000F00700042819D8DFE800F020030B0F33
:1015B000130003F0E1FB092305B1286004B12360A7
:1015C00038BDFFF7B3F80823F6E703F0D8FB0B2389
:1015D000F2E7FFF77BF80E23800AEDE7054841F2BA
:1015E0006F4103F0CFFB00231846E5E70123E3E753
:1015F00000800050705A000038B5124B0546D3F8F1
:1016000040320C4603F00303022B0BD0032B0DD00A
:10161000012B0FD103F0B0FB092305B1286004B101
:10162000236038BDFFF782F80823F6E703F0A7FB35
:101630000B23F2E7044841F2FA3103F0A3FB002345
:101640001846EAE700800050705A000038B5104B89
:101650000546D3F860310C4603F00303022B0BD090
:10166000032B0DD0012B0FD103F086FB092305B10D
:10167000286004B1236038BDFFF758F80823F6E767
:1016800003F07DFB0B23F2E701230020EFE700BF0F
:101690000080005010B40F4C0B46D4F8204204F0E8
:1016A0000304012C0ED0022C10D008B100210160DF
:1016B0000BB100221A6040F6D27107485DF8044B66
:1016C00003F060BB5DF8044BFFF7B8BE5DF8044B58
:1016D000FFF73CBF00800050705A000010B5B0F515
:1016E000207F34D009D8B0F5007F2AD003D898B134
:1016F000B0F5C07F10D0002421E0B0F5607FFAD1B2
:10170000154BD3F88030C3F301149B0617D5032C77
:1017100015D040F295210FE00F4B1C6F230B13F0F7
:101720000E0FC4F303340AD0072C08D00F2C06D0B8
:10173000032C04D040F28521084803F023FB601CF1
:1017400010BD054BD3F89040C4F30464F7E7024B97
:101750001C6FC4F38024F2E700800050705A000030
:1017600010B54FF400320E4B04469A660020FFF786
:10177000B5FF604341F671320A4C0B4BA04294BF57
:1017800000200120D969DA639A6822F4401242EA03
:1017900000529A60CA0344BF0022DA6310BD00BF42
:1017A00000900050005A62020000035070B54609D4
:1017B00004460D460ED140F22F310D4803F0E2FAF7
:1017C000334604F01F047DB103F580530122A2408B
:1017D0001A6070BD012E05D0064B074A022E18BFB5
:1017E0001346EEE7054BECE703F50053EEE700BFC9
:1017F000705A000068800050608200506480005081
:1018000030B585B0002380280446019374D02AD8CF
:10181000002877D0A0F12004412C32D8412C30D8B8
:10182000DFE804F070737073888888887373923F60
:10183000A8653F7373732F2F2F2F2F2F8D5773731F
:1018400073B2AD732F2F2F2F2F2F2F2F2F2F2F2F1F
:101850002F702F707070882F2F2F2F2F2F2F2F2F3B
:101860002F2F2F2F7070B0F5806F63D024D8B0F574
:10187000007F55D00BD8B0F5807F6AD0B0F5C07F1F
:1018800040D040F29441434803F07CFA37E0B0F591
:10189000607F45D0F5D8B0F5207F36D0B0F5407FD9
:1018A000EFD1FEF713FF04464FF42070FFF716FF49
:1018B000B4FBF0F4640831E0B0F5C06F5AD00DD835
:1018C000B0F5A06F3BD0B0F5B06F3DD0B0F5906FE4
:1018D000D7D1002101A8FFF7FFFD10E0B0F5E06FC0
:1018E0004DD0B0F5F06F4FD0B0F5D06FC9D1002119
:1018F00001A8FFF74FFE02E0FEF7CEFE019001982F
:1019000005B030BDFEF7E2FEF8E7FEF7DFFE044665
:101910004FF42070FFF7E2FEB4FBF0F40194EEE721
:10192000FEF7BAFE05462046FFF7D8FEB5FBF0F5F8
:101930000195E4E7002101A8FFF780FDDFE7002122
:1019400001A8FFF7A7FEDAE7002101A8FFF79AFD3B
:10195000D5E702934FF0E0231B695B0705D5FEF73F
:10196000B5FE0290029B0193C9E703A902A8FFF705
:10197000EDFDF7E7002101A8FFF7E8FDBFE7002133
:1019800001A8FFF739FEBAE7002101A8FFF75EFEC4
:10199000B5E700BF705A000008B58020FFF730FFA0
:1019A000034B98429EBF4FF48032024B1A6708BD2A
:1019B000005A620200A000501FB50023B0F5807FDE
:1019C00001937FD027D8382800F09C800BD824388A
:1019D000092810D809280ED8DFE800F06F6F6F6F64
:1019E0000D0D670D3685522867D007D83D283AD0AF
:1019F0003E2800F08C8040F2795152E08028FAD1E4
:101A0000454B1B6F03F00703013B032B47D8DFE86F
:101A100003F044413F75B0F5D06F64D019D8B0F5EC
:101A2000A06F6FD00AD8B0F5806F46D0B0F5906F38
:101A3000E1D1002001A9FFF74FFD3AE0B0F5B06F0A
:101A400033D0B0F5C06FD6D1002001A9FFF77EFDDD
:101A50002FE0B0F5006FECD00AD8B0F5E06F56D0AB
:101A6000B0F5F06FC7D1002001A9FFF7EFFD20E02E
:101A7000B0F5086FBFD1284BD3F8003103F0030352
:101A8000022B35D0032B37D0012B39D1FEF734FE92
:101A9000032300E0052301930BE00223FBE740F260
:101AA000C6411E4803F06EF903E0002001A9FFF7CC
:101AB000E9FC019805B05DF804FB002001A9FFF7DF
:101AC000BDFCF6E702934FF0E0231B695B0705D5E9
:101AD000FEF7FCFD0C230393039BDCE703A902A89C
:101AE000FFF734FDF8E7002001A9FFF753FDE0E719
:101AF000FEF71CFE0823CEE703F03CF90723CAE7F4
:101B00000123C8E7002001A9FFF7C4FDD1E70020A9
:101B100001A9FFF771FDCCE700800050705A00006A
:101B20004FF40022034B5A66012203F580439A6268
:101B3000704700BF00900050F8B5036804460F2BB3
:101B400004D940F66D316C4803F01CF963680F2B23
:101B500004D94FF43761684803F014F9A3680F2BD8
:101B600004D940F67331644803F00CF9237B0F2B42
:101B700004D940F67631604803F004F9637B0F2BFB
:101B800004D940F679315C4803F0FCF8A37B3F2B85
:101B900004D940F67C31584803F0F4F8E37B3F2B3E
:101BA00004D940F67F31544803F0ECF82369032B45
:101BB00004D940F68231504803F0E4F86369032BFE
:101BC00004D940F685314C4803F0DCF8E369012B79
:101BD00004D940F68831484803F0D4F88020FFF754
:101BE000EBFE032800F087804FF40022434B0221D4
:101BF0005A6645F60E03424AC2F88030414B99625C
:101C0000012103F580539962936DD903FCD4D4E983
:101C100000131B0543EA0163E17B94F820500B435A
:101C2000217BE77E43EA0143617B6D0143EA013397
:101C3000A17B43EA811313619169D4E904031B0674
:101C400043EA806301F000410B43A17E94F8230036
:101C50000B43217E43EA0143617E43EA0123936102
:101C6000136AE66923F00D0394F8221043EA870310
:101C7000002E2DD11362966A94F8213045EA0313A1
:101C800026F033052B4343F0010393621E4D1C4B9A
:101C90009A6D35EA0202FBD102221A4DAA621A6538
:101CA0009A6D5200FCD41A69A56822F4700242EAC7
:101CB00005521A614FF00042124B9A6119B9022283
:101CC00003F580539A6278B90122104B9A620BE0B7
:101CD000334343F008031362936A23F0330303434F
:101CE0002B4343EA4103936294F824301BB1044B25
:101CF000074AC3F88020F8BD705A000000900050D9
:101D000000C0005000D000500300014000E000502F
:101D1000F1A7FFFF014B93F900007047E117002086
:101D200010B543680446072B04D940F6B3512A483E
:101D300003F028F8A368032B04D940F6B5512648D0
:101D400003F020F82378032B04D940F6B75122483A
:101D500003F018F894F90130002B04DA40F6B95179
:101D60001D4803F00FF84FF480011C4A6378516658
:101D70004FF4D151022002F5B832516218494F2B6D
:101D800048604FF0010028BF4F2301F580514860A3
:101D90001169C903FCD4217843EA01235361D4E9D2
:101DA00001131B0143EA0123617B0B43217B43EABF
:101DB00041039360E37BA17B1B0143EA4113617CF8
:101DC0000B43217C43EA41035360A37C13B16FF4BE
:101DD000D153536210BD00BF705A000000900050F4
:101DE00000100250014B1880704700BFAE11002058
:101DF000014B1880704700BFAC11002010B5B0F542
:101E0000207F65D00ED8B0F5007F4FD003D800B347
:101E1000B0F5C07F1DD040F21231BDE8104034480B
:101E200002F0B0BFB0F5607FF5D14C1E012C06D991
:101E3000042904D04FF43D712D4802F0A3FF2D4A30
:101E4000D2F8803023F0300343EA0413C2F8803024
:101E500010BD4C1E012C0AD9102903D8264BCB40AB
:101E6000DB0704D440F2C721214802F08BFF03F0C6
:101E7000D2F803F0DEF84FF48031204B1D4A196789
:101E8000136F23F4704343EA04331367FEF71EFC19
:101E90000446FFF7C7FAC0F10201204603F0C3F879
:101EA00000F03EF8BDE81040FFF776BD4C1E1F2C39
:101EB00004D940F206310E4802F064FF0D4AD2F810
:101EC000903023F0F85343EA0463C2F89030BFE740
:101ED0004C1E012C04D94FF44371054802F052FF07
:101EE000044A136F23F4806343EA84231367AFE744
:101EF000705A000000800050100101000090005056
:101F000008B50121022000F03FF903F084F803F046
:101F100090F84FF48032014B1A6708BD00900050D2
:101F200008B54FF4C070FFF76BFCBDE808400449EA
:101F3000884294BF012102214FF42070FFF75EBF59
:101F400080F0FA020028ABBF00F16040054B00F5BD
:101F5000614000F00F00ACBF90F80003185C00096E
:101F6000704700BF14ED00E010B5C3B23F2B04462C
:101F700004D94FF44D71074802F004FF064B620983
:101F800053F8220004F01F04E040C04300F00100B9
:101F900010BD00BFBF5A000000E100E010B500F125
:101FA0000C03DBB24B2B044604D940F2C221144887
:101FB00002F0E8FEEFF31083DB0702D501221046A2
:101FC00010BD2046FFF7D0FF02460028F6D120467C
:101FD000FFF7B8FF0146EFF3118313B1B0EB131F06
:101FE000ECD2084B5B68C3F30803002BE7D0103B2F
:101FF00058B2FFF7A7FF88428CBF00220122DEE71C
:10200000BF5A000000ED00E010B5224B70B94FF44C
:102010000031214A1860516602F598325268012A4F
:1020200003D11E4AD2F800211A6010BD1B68002B94
:10203000FBD01B4A5268012AF7D0184A8020C2F808
:102040000031FFF7B9FC05281FD14FF4C070FFF72E
:1020500045FB0128044604D102214FF4C070FFF76C
:10206000CDFE07220F4B1A610122A3F580535A605F
:102070000B4A1369DB07FCD5012CD6D12146BDE8FC
:1020800010404FF4C070FFF7B9BE0122064B5A60F2
:10209000CBE700BF041600200090005000800050E5
:1020A00000C0015000E0015000D00150044A4178C6
:1020B000536F23F4407343EA01235367704700BF13
:1020C0000040005010B5044610B10020FFF79CFFFF
:1020D000104A136943F00403136101F09DFA02F002
:1020E000D2FF0D4B0D4AC3F8202402F0BCFF03F0D1
:1020F00063FB02F0BCFF02F0C7FF01F0B5FA1CB9A8
:10210000BDE81040FEF7E2BA0120BDE81040FFF73D
:102110007BBF00BF00ED00E000E003500000FF0FB8
:1021200010B5044610B10020FFF76EFF0E4A136988
:1021300043F0040313610D4B0D4AC3F8202401F052
:102140006BFA02F090FF03F037FB02F090FF01F012
:102150008BFA1CB9BDE81040FEF7B8BA0120BDE803
:102160001040FFF751BF00BF00ED00E000E003505A
:102170000000FF0F034A0179D36E23F030030B43B5
:10218000D366704700400050F8B50446244BD3F89E
:102190008420D006FBD4D3F88430C3F381139C424F
:1021A0003CD0FEF779FA012C05460BD11D4B984225
:1021B00004D940F2BE711C4802F0E4FD012128461A
:1021C00002F031FF02F04FFF4FF00072174B07464D
:1021D0005A66204602F05FFF4FF48063104E621E85
:1021E00093403367736E9A0103D4D6F884309B060C
:1021F0000AD5384602F03BFF022C0FD12846BDE835
:10220000F840002102F00FBFD6F884309906E9D5D6
:1022100040F2CC71044802F0B5FDE3E7F8BD00BF21
:1022200000400050005A62020F5B00000060005046
:1022300010B50C4608B9FEF72FFA074B21461B785C
:102240003BB1064B984204D80120BDE81040FFF78F
:102250009BBF0220F9E700BFE2170020005A62028C
:10226000034B0278012100201A70FFF7E1BF00BF85
:10227000E217002038B54FF00042264B26495A6637
:1022800001224A604AF6CD3103F50B235D6C1964D7
:10229000154030BB9968C9070BD4002401221F4B9D
:1022A0005A6015B11E4B1F4A1A6402F0F5FE204613
:1022B00038BD1A498A601C4AD96ACC0705D49042B5
:1022C00001D10724EAE70130F6E79042E5D1F8E7CB
:1022D0000132DC6A14F0080406D08A42F8D10724DF
:1022E000DFE700221049F4E78A42F8D020220B4BA6
:1022F0000B495A620122A3F580539A6023460A4A89
:10230000486A800603D49342E9D00133F8E7934248
:10231000C7D1E4E700900050005009500060095018
:10232000004009503254FFFF40420F0038B54FF0D3
:102330000042174B174C5A66012203F50C235A60D2
:102340004AF6CD33656C2364437893401343124AB5
:10235000D363C3788178A2689B0043EA011322F01B
:1023600074021343A3600279837943EA0223236151
:102370004279C37943EA022363610078FFF77AFF69
:10238000EB0744BF054B236402F086FE012038BDF5
:102390000090005000400950004000503254FFFFB0
:1023A00010B5044602F07DFE002341F20202084906
:1023B000E360A360226104F50052E3616361A361FD
:1023C00023626362E362A3645164A36210BD00BF31
:1023D0007F370C0138B5154B044698420D4604D0A2
:1023E0004FF4B371124802F0CDFC25B92046BDE888
:1023F000384002F056BE012204F580535A6040F284
:10240000FF71204605F00F0202F047FE226378219B
:1024100002F043FE05F001036A0748BF43F00203E0
:10242000226C02F003029A42FAD138BD0000035A2E
:102430005E5B0000F8B506460C46154622B94FF41F
:102440000971434802F09EFC424B9E4202D184B97E
:1024500038240AE040F227213D4802F093FC44B9B9
:1024600040F276313A4802F08DFC2046FFF7C8F979
:1024700004467368012B04D040F25921344802F01D
:1024800081FCB36803F0E003402B42D009D893B13C
:10249000202B1AD040F29B21BDE8F8402C4802F0D6
:1024A00071BC602B42D0802BF4D105EB4503A342D5
:1024B00047D801230DE0B5EB141F04D940F2812168
:1024C000234802F05FFC102303E0B5EBD40F1AD8C9
:1024D00008236B436401B4FBF3F41F4F203CB7EBBC
:1024E000C40F4FEAC40504D240F2A621184802F0F6
:1024F00049FC30463D40012102F0CFFDB562BDE808
:10250000F84002F0CABD40F28621114802F03AFCC0
:10251000DEE70623B4FBF3F3AB4201D30623D8E78F
:1025200040F28B210A4802F02DFCF7E7B5EB940F3F
:1025300001D80423CDE74FF42471054802F022FCB2
:10254000F7E740F29521024802F01CFCB1E700BF1A
:102550005E5B00000000035AF8FF7F0070B543681F
:1025600004460D4616461BB140F2FF7102F095FD80
:102570002046FFF715FFE9896B7B22690B43298A07
:1025800022F44C520B4322F0030213432361A2684E
:102590002B7B297E22F0804222F0E2020B43134380
:1025A0006A691343A360AB681BB9A36843F0004397
:1025B000A360EB69002B57D0987A1A7A4004A1687F
:1025C00040EA82503F4A0A4010439A8802F4C042CF
:1025D00010435A7840EA82005A7B40EAC2009A7B54
:1025E00040EA02109A7840EA8220A060E168D3E9CC
:1025F000042021F4D81121F4C06102430A439979DF
:1026000042EA8122D97942EA4122E2601A78012A1B
:1026100005D1E26842F00402E2602B4A06E0032A98
:102620003ED1E26842F00402E260284A0121C2F889
:10263000C0105A7A04F580510A621AB1E26842F475
:102640000062E260DA7A4AB1E268214942F400426B
:10265000E2601A7B02F00F02C1F88020E269DB7BA6
:1026600022F003021343E36136B196F8203004F5FB
:102670008051CBB101238B6105212046FFF7AAFED3
:10268000AA681AB120466968FFF7D4FE2046297867
:10269000FFF7A0FE236CDB4313F4405FFAD170BD5B
:1026A000023A012AC1D9B8E7626996F8223096F851
:1026B000210022F009020343134343F001034B615D
:1026C000DAE700BFE39BBDFF00E4035000D40350F2
:1026D0000090035038B5294B054698420C463FD12F
:1026E00019B98C21264802F04DFB3820FFF764F918
:1026F000083808283DD8234B0341DB0739D4637BD6
:10270000032B03D9AA211E4802F03CFB237B802B1C
:1027100003D0AC211A4802F035FB6369B3F1804F56
:1027200003D0AE21164802F02DFB238A23F4005378
:102730009BB2B3F5805F03D0B021114802F022FBB9
:10274000A368013BB3F5165F03D3B2210C4802F036
:1027500019FB21462846BDE838400022FFF7FEBE9F
:102760008A21074802F00EFB1CB98C21044802F0B4
:1027700009FB9E21024802F005FBC0E70000035A56
:102780005E5B0000F4FEFFFF38B5114B0546984232
:102790000C4603D070210F4802F0F4FA1CB97221E4
:1027A0000C4802F0EFFA237B802B03D176210948F5
:1027B00002F0E8FA637B032B03D97921054802F084
:1027C000E1FA21462846BDE838400022FFF7C6BEA0
:1027D0000000035A5E5B0000F8B5294B044698429E
:1027E00023D040F2BD21274802F0CCFA254840F220
:1027F000763102F0C7FA0020FFF702F8224DA66AF0
:10280000A468AE42074604F0E00404D94FF49D6189
:102810001C4802F0B7FA402C06EA05060FD006D88D
:102820003CB3202C28D0002022E03820E4E7602CA4
:1028300024D0802CF7D14FF4807500241AE0802535
:102840000024032306F580765E4300233846324693
:10285000194601F057FB544300FB05F705FB034401
:10286000A2FB050100233246214401F04BFB384412
:10287000F8BD10250123E5E72546DEE74025DCE726
:102880000000035A5E5B0000F8FF7F0070B51F294F
:1028900004460D46164603D99121064802F072FA05
:1028A0002EB104F580540123AB40236070BD04F5C4
:1028B0000054F8E7B05B000038B5032804460D4625
:1028C00005D80B4B33F81030CB40DB0704D44FF462
:1028D0008661084802F056FA30220123544341F23F
:1028E000100204F1A044AB4004F57034A35038BD8D
:1028F000505C00000C59000038B5032804460D4612
:1029000005D80B4B33F81030CB40DB0704D440F232
:102910000141084802F036FA30220123544342F2C2
:10292000100204F1A044AB4004F57034A35038BD4C
:10293000505C00000C5900002DE9F84F03280746B1
:102940000E46144698469DF828A09DF82C9005D870
:10295000274B33F81030CB40DB0703D4BF21254889
:1029600002F010FA86EA0403032B03D9C12121489F
:1029700002F008FA072C4FF0030506F0030625D8ED
:102980004FEA840B05FA0BF529461B4807FA0BF2B0
:1029900002F0A9FB2946194806FA0BF202F0A3FB44
:1029A000424621461648FFF771FF52462146154818
:1029B000FFF76CFF0123144AA340C2F820342146DC
:1029C0004A46BDE8F84F1148FFF760BFA4F1080B75
:1029D0004FEA8B0B05FA0BF529460D4807FA0BF267
:1029E00002F081FB29460B4806FA0BF2D6E700BF3E
:1029F000505C0000FF5B000000C4035008C403509B
:102A000010C4035014C4035000E0035024C4035006
:102A100004C403500CC40350F8B5032804460D4603
:102A200016461F4605D81C4B33F81030CB40DB0749
:102A300004D44FF4B071194802F0A4F926B1294624
:102A40002046CFB1FFF738FF04EB4403072D4FF0CA
:102A50000F014FEA031312D8A80006FA00F28140D2
:102A60000F48184402F03FFBAEB92946204677B123
:102A7000BDE8F840FFF720BFFFF73EFFE4E7A5F110
:102A80000800800006FA00F281400648E9E7BDE848
:102A9000F840FFF731BFF8BD505C0000FF5B00005D
:102AA00004C003500CC0035070B5144E04463042AD
:102AB0000D4604D040F2AB11114802F063F93542E3
:102AC00004D04FF4D7710E4802F05CF90D4B0E495B
:102AD0000E4A2540C1F83044C3F83054C3F82C44A2
:102AE000D36E03F03003202B1FBFD36E23F03003CF
:102AF00043F01003D366C1F8204470BDFFFF00F01F
:102B0000FF5B000000D0035000E003500040005085
:102B10002DE9F041032805460F4614461E469DF850
:102B2000188005D80F4B33F81030CB40DB0704D4A6
:102B30004FF49A710C4802F025F9032239462846D1
:102B400086F00103FFF768FF0120103406FA04F154
:102B5000A040FFF7A9FF42462146BDE8F0410348E7
:102B6000FFF794BE505C0000FF5B000024C40350DC
:102B700038B5072804460D4603DD7721084802F0E2
:102B800001F91F2C03D99121064802F0FBF8064AEF
:102B9000064B002D08BF13460122A2401A6038BD23
:102BA000585C0000B05B000040100450402004500E
:102BB00010B5044618B991211F4802F0E3F82378B4
:102BC0001B0613F0604F03D092211B4802F0DAF885
:102BD000E3780F2B03D99521174802F0D3F8012190
:102BE0002020FEF7E3FD01212120FEF7DFFD012279
:102BF000124B5A60227812069A606178A27842EAF3
:102C000001429A61FF229A6200229A631A644FF08D
:102C100000425A654FF0FF324FF4001103F50053A4
:102C20001A65074AC2F88011E3781B01DBB282F80B
:102C30001533116010BD00BF585C00000000045047
:102C400000E100E038B5022805460C4603D94C21C6
:102C50000C4802F097F8E378627821785B0143EA48
:102C6000820322790B4343EA02130C226A4302F1E6
:102C7000B0421363012902BFA278034B43F8252019
:102C800038BD00BFA85C0000E880035008B54FF0D5
:102C9000B0435A686AB958B15B680BB102F033FAB5
:102CA00001210D4B596002F02EFA4FF0B043D9606C
:102CB00008BD5B680BB102F026FA0028F0D102F0E3
:102CC00022FA4FF0B0430222DA6002F01CFA01222D
:102CD000024B5A60ECE700BF00100058002000587B
:102CE00010B54FF0B0414B680BB102F00CFA012265
:102CF0000B4BC4785A608378934043EA840344784A
:102D00002343047943EA0413447943EAC4038B6000
:102D1000044B5A600378C3F10203CB6010BD00BFBF
:102D20000020005800100058024B1868C0F30740FC
:102D3000704700BF0080E00F07B56B46054A10687A
:102D4000516803C36846FFF7F1FA002003B05DF84D
:102D500004FB00BFF85C000013B50024064A684677
:102D6000536F43F00103536700948DF80440FFF75D
:102D700001FA204602B010BD0040005030B58BB0C3
:102D80006C46174D0FCD0FC40FCD0FC495E803004F
:102D900084E80300134BD3F84C2112031CD5A3F590
:102DA000FE431C884FF6FF739C4208BF79248DF8C0
:102DB0001940FEF7AFFF204480F308008DF818009B
:102DC0000948FDF79FFC6846FEF7B6FE3220FFF784
:102DD0000FF800200BB030BDD3F85041E4B2E6E765
:102DE000005D00000080E00F00F0490230B587B0C0
:102DF000084D01AC0FCD0FC42B6801A823602A2316
:102E00008DF80530FEF78CFF3220FEF7EBFF002037
:102E100007B030BD285D000010B56FF004035021ED
:102E20000A480B4C13F0800F03F1010207D1234431
:102E3000402A83F800131346F4D1002010BD03F09C
:102E40000F03043B034419761346EBE700ED00E063
:102E500000E100E010B502F006F9034B1C6802F037
:102E600006F9204610BD00BF0816002010B500204E
:102E7000144602F055F9022804D018B1C3210248C3
:102E800001F080FF204610BD3C5D0000054B1A7824
:102E90002AB95B78002B0CBF032002207047012069
:102EA000704700BFED170020F8B5032905460E4610
:102EB00007D8174B5C5C032D19D8DFE805F0090F24
:102EC00012154FF45171134801F05CFF0024F2E732
:102ED00044F00204104B1F687FB9F8BD44F00804A9
:102EE000F8E744F02004F5E744F08004F2E740F20C
:102EF0005931084801F046FFECE77B681A68144234
:102F000003D0314628465B6898473F68E4E700BF36
:102F1000135E0000AA5D00003816002038B5104D81
:102F20002B78ABB10F4C23781BB100F0DBFB0023F7
:102F30002370002002F042F90B4C50B100F024FC49
:102F40000023012120782B70FFF7AEFF01232370AF
:102F500038BD0122054B1A702278054B1A70F7E72D
:102F6000E8170020E6170020EF170020E9170020DF
:102F7000EA17002010B502F076F8064B04461B78DD
:102F80001BB1BDE8104002F072B8FFF7C7FF204642
:102F9000F7E700BFE517002010B5154C2378FF2B8D
:102FA00014D1E0B14FF47671124801F0EBFE2378B2
:102FB000D3B901232370104B1B78012B11D90F4B70
:102FC0001B7873B9BDE81040FFF7A8BF53B90028BC
:102FD000EFD140F2DA31074801F0D4FE2378013B0B
:102FE000237010BD0028FAD00133DBB2E2E700BF46
:102FF000ED170020AA5D0000EF170020E917002060
:1030000070B502F030F8124E054633789BB900F0E7
:10301000F7FC044620B1284602F029F8204670BD8E
:103020000C4801F0B0FE00F055FF0B4B1C6000F0A7
:10303000B3FD0A4B186000F02DFA02F0C1F8084BFE
:103040000024186001232846337002F010F8E5E7E9
:10305000F0170020381600200C160020341600202F
:10306000101600202DE9F843441EE3B2012B0E4652
:1030700004D940F29B11354801F084FE344D2B5D9C
:10308000FF2B4AD1002E50D04FF4CF712F4801F0C2
:1030900079FE2B5D002B4CD02E4F013339782B5508
:1030A000012944D9FFF7F2FE0128044646D801F071
:1030B000DAFFDFF8AC80054698F8003013B3264EEF
:1030C00033781BB901223270244A1370DFF89490D0
:1030D00099F8003023B100F005FB002389F8003097
:1030E000284601F0C4FF012002F068F801F0BBFFA0
:1030F000337805461BB100F047FB002333700023F3
:1031000088F80030284601F0B2FF3878A0420ED08F
:103110002146FFF7C9FE3C7009E063B94EB94FF490
:10312000D0710A4801F02EFE2B5D013B2B55BDE806
:10313000F8832B5DB0E7002EF7D0ADE70329E4D18B
:103140000228E2D102F040F8DFE700BFAA5D0000EC
:10315000ED170020EF170020E5170020E9170020E9
:10316000E8170020E617002038B501F07CFF094B76
:1031700005461B78012B04D801F079FF0024204676
:1031800038BD054B1C6800F04FFB0444284601F095
:103190006EFFF4E7EF1700200C160020054B1B68AC
:1031A0005843054B00F5742000F23F20B0FBF3F0CC
:1031B000704700BF3416002040420F002DE9F04F49
:1031C00085B0EFF3108772B6AFF3008001F048FDD1
:1031D00000287CD0854EDFF83482337823B100207C
:1031E000FFF7DAFE00233370FFF750FE012811D0FD
:1031F00009D90238C0B2012870D940F2C131404625
:1032000001F0C0FD06E0337823B10020FFF7C4FED3
:1032100000233370FFF73AFE01280546744CDFF8AF
:10322000009200F289802078854240F0C3802078A7
:1032300000F0DEFA99F8003013B16E4B1B78237062
:10324000AFF3008007B962B6EFF3108772B66A4B2E
:103250001A7852B100221A70664B20781B78984277
:1032600003D101212170FFF71FFE644800F002FC2A
:1032700001F000FD05460028AFD1614BDFF89481D5
:10328000187098F80030ABB189F80000DFF88C9125
:1032900099F800301BB100F025FA89F800500020A1
:1032A00001F08CFF002800F0988000F06DFA0023F8
:1032B00088F80030337823B10020FFF76DFE00233B
:1032C000337000212078FFF7EFFD00232370AFF368
:1032D000008007B962B605B0BDE8F08F002003A9F1
:1032E00000F016FC002895D1464B039A1B689A42C1
:1032F00004D80120FFF750FE01238AE7424B1C68E7
:1033000000F092FA241804D540F2AA313F4801F0A7
:1033100039FD039B9C42ECD200F098FA830043F005
:1033200002039BB2019300230399394A0093091BBE
:10333000324801F04DFF6DE7364BDFF8C4A093F83B
:1033400000B0BBF1000F25D100F050F92078854284
:1033500030D19AF800307BB92E4D2B78002B7FF4BA
:1033600066AF2D4B1B7823B900F0B6F901222B4B29
:103370001A7001232B705AE7022DEDD18AF800B0A4
:1033800015E02378022B25D100238AF80030AFF313
:1033900000801FE0207885420CD19AF80030002B85
:1033A0003FF445AF022DD7D100238AF80030AFF3A8
:1033B0000080D1E70023DFF848A08AF8003099F8B0
:1033C000003013B92946FFF76FFD9AF800302570D9
:1033D000002BD6D1012DBFD829E7012000F008FA33
:1033E00007B962B6EFF3108772B658E7E717002007
:1033F000EF170020EA170020E31700201416002022
:10340000EB170020101600200C160020AA5D00000B
:10341000752F0000E8170020EC170020E6170020A9
:10342000E917002010B501F01EFE0022044B1C78A5
:103430001A7001F01CFE00F08DFC2043C0B210BDDC
:10344000E417002073B5114E0446337883420FD041
:103450004FF400730E4DADF8043058B101A8FEF7DB
:1034600025FE4020FFF79AFE2B68181A286034705A
:1034700002B070BD8DF8050001A8FEF717FE4020D0
:10348000FFF78CFE2B681844F0E700BFB411002052
:103490007016002073B5002401A88DF80440FEF7D3
:1034A000DFFE2046FFF7CEFF434A4449136F4448EE
:1034B00003F007030B60D2F80011424D01F0030145
:1034C00001604FF400204049032B48664FF4003060
:1034D000486601F598318969C1F34001297057D0D8
:1034E000D2F8203103F00303981E43424341D2F83F
:1034F0002421364C02F00702022A08BF43F00103E0
:103500004FF4C8702370FFF749FE0022304B314959
:103510001860314E0B680132D2B20A2A46F8040B09
:10352000F9D1034400EBC00003440B602B782B4D12
:10353000002B39D02378204A3BB9D2F8003103F070
:103540000303591E4B424B412370D2F8003103F064
:103550000303022B1ED0032B1FD0012B20D1FDF71C
:10356000CBF8024600B31E4B1E4EDC680023194602
:10357000C4F30B04013404EB84040138E4FB0601BA
:1035800000F0C0FCFFF70AFE2B6803442B600BE041
:103590000123ACE7FDF7CAF8E3E701F0EBFBE0E756
:1035A000F321114801F0EEFB1F20FFF7F7FD2B6818
:1035B00003442B6002B070BD0080005074160020E0
:1035C00078160020F417002000900050F517002016
:1035D0003C160020401600204416002070160020E3
:1035E00000C0015040420F00175E0000074A084922
:1035F000D2F8203103F003030B60D2F82431054ADE
:1036000003F00703136001F040BD00BF00800050CD
:10361000801600207C16002008B5104B1A78C2B125
:1036200000221A700E4B1A6F22F0070242F00102BC
:103630001A67D3F8202142F00302C3F82021D3F8FF
:10364000242122F0070242F00302C3F82421FDF7EF
:103650003DF80122034B5A6708BD00BFF317002055
:103660000080005000E0005010B50122144B154CB2
:103670005A67154B1B7813B3022001F001FEF0B11D
:1036800000F076FAD8B1A36DD90302D5E36D9A079D
:1036900015D40C4B9B6DDB0711D401220B4B1A7018
:1036A00001F0D9FDBDE81040094B0A4A1860136FBC
:1036B00023F0070343F003031367FDF707B810BDBA
:1036C00000D0005000C00050F5170020F217002075
:1036D0006C160020008000500122014B1A707047C8
:1036E000F3170020F8B51F4B1B78002B39D01E4C68
:1036F0002378B3B91D4B9A6DD10302D5DA6D9207C9
:103700002FD49B6DDB072CD401F0A5FD184B194A73
:103710001860136F23F0070343F003031367FCF7EC
:10372000D5FF01F098FD124B134D1B68134EC01AC4
:103730002B78134F56F8232046F82300111A3A68C5
:103740001048521A0A213A600932B2FBF1F20133F1
:10375000DBB20260B3FBF1F201FB12332B700023EA
:103760002370F8BDF5170020F217002000C00050AC
:103770006C16002000800050F11700204416002035
:10378000401600203C16002008B501F081FC124BC9
:1037900012491A6F096822F007020A431A67104992
:1037A000D3F82021096822F003020A43C3F820213C
:1037B0000C49D3F82421096822F007020A43C3F810
:1037C0002421094B1B7813B10122084B9A62BDE8F2
:1037D0000840FCF77BBF00BF00800050741600203B
:1037E000801600207C160020F517002000E0005015
:1037F00002280AD003280BD001280CD1084A1369EB
:1038000023F00403136130BF70470020FEF75ABC59
:103810000020FEF785BC40F24B21024801F0B2BA0D
:1038200000ED00E0175E0000054B187818B1054B5D
:10383000186800EBD000044B1B681844704700BFA9
:10384000F51700203C16002070160020014B187858
:10385000704700BFF517002038B501F00AFD0025BC
:10386000084B094C1A682368C31A2AB123B151695D
:10387000994203D3C91A5161206038BD55615B1A62
:103880009268F2E78C1600208816002070B5C38875
:1038900004460D463BB9FFF767FC8542064602D257
:1038A00001F081FC35460E4965610B688BB90C60EF
:1038B000A3600DE0AD1A9A68184665616AB11346B7
:1038C0005A69AA42F6D930B18460521BA3605A618A
:1038D00070BD0020F4E70C60F7E79C60A260F7E79A
:1038E0008C16002038B5134D2B685B6993B1124AD2
:1038F000022014681C4400F0A9FA204600F074FA73
:1039000000230E492A680B70D088800709D501234F
:103910000B7038BD022000F099FA022000F0B8FACE
:10392000EEE79268002AF4D050690344012BEBD9EA
:10393000EFE700BF8C16002088160020F717002044
:1039400070B516469DF81420C0E903360271049A3A
:10395000BDF818300260002204460D468260C38024
:10396000EEB901F086FC2844A0619DB12E4601F01D
:103970007AFB0546FFF770FF31462046FFF786FFCA
:10398000104B1B68A34201D1FFF7ACFF284601F0A2
:103990006EFB02E0E36865617BB9002070BD01F059
:1039A00068FC3044A061002DE0D1E3686561002B24
:1039B000DDD0204621689847D9E7204621689847FE
:1039C000EBE700BF8C16002000220C490B687BB18E
:1039D00083420AD183687AB1936083681BB15A69C4
:1039E00041690A445A61002070471A469B68EEE715
:1039F0000028EFD0022070470B60EEE78C16002005
:103A000070B501F037FB144E05463478FCB9134B02
:103A10001C60134B1C60134B1C8000F0A7F90120A5
:103A200000F014FA01F03BFC0F4B0246186020B97D
:103A3000284601F025FB232070BD234640F2E731E4
:103A40000A4800F05FFA0A4B1860012333702846D9
:103A500001F016FB0020EFE7F81700208C1600207D
:103A600088160020DC1700209016002018FCFFFFAD
:103A70008416002070B5044640B301F0F4FA144EE9
:103A80000546FFF7E9FE3068A04209D02046FFF75F
:103A90009BFF0446B0B1284601F0E9FA204670BD0C
:103AA000FFF792FF04460028F5D133683BB90220A6
:103AB00000F0D8F9284601F0DAFA0024EEE7FFF723
:103AC00011FFF7E73368002BF4D1F0E72224E5E794
:103AD0008C16002038B50C460546A8B1A1B10023CC
:103AE0000B7001F0C7FA0121084B1B6833B901F0D4
:103AF000C7FA002038BD9D4204D121702278002AE7
:103B0000F9D0F4E79B68F1E72220F3E78C16002058
:103B1000F8B506460F4601F0ADFA00250446124BF3
:103B20001B6823B9204601F0ABFA1B2011E05A694B
:103B30001544DA88B2420DD101F09BFB0B4E33687D
:103B4000C01AA8420AD3002320463B6001F098FA2D
:103B50000020F8BDFF2EEFD09B68E2E701F089FB63
:103B600033682B441B1AEFE78C16002088160020C0
:103B700008B5074B187848B101F06DFB054B1B6881
:103B80009B69C01A02288CBF0020012008BD00BF1D
:103B9000F71700208C160020014B1868704700BFF3
:103BA0009016002038B50021044640F2E730054B5E
:103BB0004FF47A721D680023E5FB040100F0A2F9BE
:103BC00038BD00BF9016002000B58DB001238DF8E0
:103BD0000F30FFF7E7FF00230146CDE90033074A26
:103BE0000DF10F0304A801F012FB18B99DF80F3076
:103BF000002BFBD10DB05DF804FB00BFCB510000E2
:103C00002DE9F843C20704460BD54E4A1388013309
:103C10009BB21380FFF720FE4B4B1B680BB1FFF7E5
:103C200061FEA30740F18B8001F024FA4FF00008F9
:103C300005464646FFF710FE434F3C680CB16369EA
:103C40008BB10022414B012E1A7003D118F0020FE4
:103C500018BF1E70002C6ED0FFF744FE2846BDE84A
:103C6000F84301F00DBA23465A693AB91A79217915
:103C7000914288BF1C469B68002BF5D1284601F075
:103C8000FFF92569DDB101F0F4FAA269A0EB0208A1
:103C90004FEAE873A84573F1000311DB236913446D
:103CA000A361E368B4F80680013613B120462168A9
:103CB000984701F0DFF90546FFF7CEFDBDE7A846BE
:103CC00001F0D8F981462046FFF77EFE484601F014
:103CD000D7F92369002BE4D0B5EB08054FEAE87368
:103CE00063EB4303012D73F1000304DA40F22A5120
:103CF000174801F047F8A38B33B1E28B13449BB212
:103D0000B3F57A7F0FD2E38301F0B4F980462946F8
:103D10002046FFF7BBFDA369226940461344A36117
:103D200001F0AEF9BDE7A3F57A73E383A369013D22
:103D3000013BA361E8E7022000F094F88EE7BDE8BC
:103D4000F88300BFDC1700208C160020F617002037
:103D5000875E000010B501F08DF9034B1C7801F06F
:103D60008FF9204610BD00BFF61700201FB50024B4
:103D70001A4B012118689A880290D3F806009B7AA2
:103D800000903E20ADF80C208DF80430FDF70EFDBC
:103D90008DF8084001F06BFA8DF80C0002A8FEF7D0
:103DA0009FFF694601208DF80040FEF74BFF40F26F
:103DB000FF320B4B9A615A614FF0B042936A13F095
:103DC0000803FBD113620120FEF760FF4FF480521D
:103DD000044BC3F880211A6004B010BDEA5E0000F5
:103DE0000020005800E100E010B5044601F03BF966
:103DF0004FF0B042936A1907FCD4136A116C5269F0
:103E0000520604D4CA1A032A01D88B420ED1E21AF0
:103E1000022A98BFDC1CB4F1FF3F38BF013C4FF0D1
:103E2000B04340221C6403F580539A6101F01FF9EE
:103E3000054A13783BB14FF0B041CB6B43F002031E
:103E4000CB630023137010BDB511002000F00103F7
:103E50008207034A48BF43F040039361704700BFA5
:103E600000100058820700F001030AD50121064A1C
:103E700043F0400311704FF0B041CA6B22F00302CF
:103E8000CA63024A93617047B511002000200058B0
:103E9000830742BF4022014B5A617047001000580F
:103EA00010B501F0E7F84FF0B04304465B695A06DD
:103EB000074A03F0010003F0510348BF40F002003D
:103EC0005361FFF79DFE2046BDE8104001F0D8B8D1
:103ED0000020005810B50A4BD3F8403203F003031A
:103EE000013B012B0BD801F0BEF804460121022052
:103EF000FFF7B8F82046BDE8104001F0B8B810BD93
:103F00000080005053B94AB9002908BF00281CBFDF
:103F10004FF0FF314FF0FF3000F082B9ADF1080CE7
:103F20006DE904CE00F006F8DDF804E0DDE90223D7
:103F300004B070472DE9F04F099D0C46002B4DD180
:103F40008A420F4684469646B2FA82F360D94BB154
:103F500002FA03FEC3F120029F4000FA03FC20FA9C
:103F600002F217434FEA1E461FFA8EF44FEA1C4234
:103F7000B7FBF6F106FB117701FB04F042EA0742BA
:103F8000904208D91EEB020201F1FF3702D29042A3
:103F900000F231813946121A1FFA8CFCB2FBF6F09E
:103FA00006FB102200FB04F44CEA024C644508D9DD
:103FB0001EEB0C0C00F1FF3202D2644500F21E81B0
:103FC000104640EA0140ACEB040C002125B12CFA6C
:103FD00003F30022C5E90032BDE8F08F8B4205D91A
:103FE0000DB1C5E9000100210846F5E7B3FA83F1F8
:103FF00000294DD1A342C0F0F380904280F0F080C0
:10400000064623460846002DE6D0C5E90063E3E7EF
:10401000002B40F0A3808A1A4FEA1E471FFA8EF643
:104020000121B2FBF7F407FB14204FEA1C4242EADD
:10403000004206FB04F090420FD91EEB020204F18D
:10404000FF382CBF4FF001094FF00009904203D90F
:10405000B9F1000F00F0CC804446121A1FFA8CFC14
:10406000B2FBF7F007FB102200FB06F64CEA024C0D
:10407000664508D91EEB0C0C00F1FF3202D26645F2
:1040800000F2B3801046ACEB060C40EA04409DE71A
:10409000C1F120068B4004FA01FE22FA06F720FA4D
:1040A00006FCF4408A401F434EEA0C0300FA01FE6E
:1040B0004FEA17484FEA13491FFA87FCB4FBF8F0A0
:1040C00008FB104449EA044400FB0CF9A1450ED951
:1040D0003C1900F1FF3A2CBF4FF0010B4FF0000BE1
:1040E000A14503D9BBF1000F00F08B805046A4EB33
:1040F00009041FFA83F9B4FBF8F308FB134403FB2C
:104100000CFC49EA0444A44506D93C1903F1FF38E4
:1041100001D2A4457BD8434643EA0040A4EB0C04FB
:10412000A0FB02984445CC46434602D306D1CE4577
:1041300004D20138B9EB020C68EB0703002D6CD0F8
:10414000BEEB0C0264EB030422FA01F304FA06F658
:10415000CC4000211E43C5E900643DE702FA03FE9E
:10416000C3F1200104FA03F200FA03FCCC404FEA49
:104170001E4720FA01F11FFA8EF6B4FBF7F00A434E
:1041800007FB1044110C41EA044100FB06F48C4289
:104190000ED91EEB010100F1FF382CBF4FF00109D1
:1041A0004FF000098C4202D9B9F1000F2CD04046E3
:1041B000091B92B2B1FBF7F407FB141142EA01426A
:1041C00004FB06F1914207D91EEB020204F1FF380D
:1041D00001D291421ED84446521A44EA004120E7D7
:1041E000861A64EB030301200DE7F44402384AE722
:1041F000023C724431E702397244CCE6F44402389E
:10420000DFE602383C4472E702387144D0E7023BF3
:104210003C4481E7023C7244DEE72946DCE600BF0D
:10422000704700BF08B5064B044613B10021AFF339
:104230000080044B1B6803B19847204600F09BFFA9
:1042400000000000CC170020002310B50446836056
:10425000818119464366C28108228361C0E9003327
:10426000C0E904335C3001F09DF80D4B24626362B9
:104270000C4BA3620C4BE3620C4B23630C4B9C4234
:1042800006D003F16802944202D0D0339C4205D19B
:1042900004F15800BDE8104001F08CB810BD00BF1B
:1042A0001F53000041530000795300009D5300004C
:1042B00094160020024A0349034801F012B800BFD7
:1042C00048110020F75500005811002041680C4BA0
:1042D000994210B5044601D001F08DF9A168094B4F
:1042E000994202D0204601F086F9E168064B9942D6
:1042F00004D02046BDE8104001F07DB910BD00BFDC
:1043000094160020FC1600206417002010B50B4BFB
:1043100004210B4C0B4A20461A600022FFF794FF41
:1043200004F1680001220921FFF78EFF04F1D0009B
:1043300002221221BDE81040FFF786BFCC170020F3
:1043400094160020B5420000014801F034B800BFC7
:10435000FA170020014801F02FB800BFFA1700201B
:1043600010B50446FFF7F0FF236A1BB1BDE810400B
:10437000FFF7F0BF044B2362044B1B68002BF5D101
:10438000FFF7C4FFF2E700BFCD420000CC170020CA
:104390000FB407B5064904AB086853F8042B8168CD
:1043A000019300F061F903B05DF804EB04B07047CD
:1043B0005411002038B50023054D044608462B60F3
:1043C00000F0D7FE431C02D12B6803B1236038BD37
:1043D000D017002038B50446064D08461146002285
:1043E0002A601A4600F0CFFE431C02D12B6803B1AD
:1043F000236038BDD017002038B50446064D084666
:10440000114600222A601A4600F0BFFE431C02D16A
:104410002B6803B1236038BDD017002038B504469F
:10442000064D0846114600222A601A46FEF71EFD78
:10443000431C02D12B6803B1236038BDD017002084
:1044400070B50D4D00260D4C641BA410A64209D179
:104450000B4D00260B4C01F0A3F9641BA410A642DF
:1044600005D170BD55F8043B01369847EEE755F885
:10447000043B01369847F2E7E0110020E0110020EC
:10448000E0110020E411002038B50546002941D094
:1044900051F8043C0C1F002BB8BFE41800F0D8F80A
:1044A0001D4A136833B9636014602846BDE838407C
:1044B00000F0D4B8A34208D9206821188B4201BF6C
:1044C00019685B6809182160EDE71A465B680BB153
:1044D000A342FAD911685018A0420BD120680144B8
:1044E000501811608342E0D118685B68084453603B
:1044F0001060DAE702D90C232B60D6E72068211878
:104500008B4202BF19685B680918636008BF2160AD
:104510005460CAE738BD00BFD817002070B50F4EF1
:104520000C460546316811B900F038FB3060214671
:10453000284600F033FB431C03D14FF0FF342046E4
:1045400070BDC41C24F00304A042F8D0211A2846F0
:1045500000F024FB0130F2D1EFE700BFD4170020B8
:104560002DE9F041CD1C064625F0030508350C2D3C
:1045700038BF0C25002D01DBA94204D90C23336080
:104580000020BDE8F081314F00F062F83B681C4626
:1045900044BB29463046FFF7C1FF431C044650D1B7
:1045A0003C682146002941D1002C44D02368304684
:1045B00004EB030800F0F2FA80453CD12168304654
:1045C0006D1A2946FFF7AAFF013034D023682B4427
:1045D00023603B68002B36D05A68A24229D10022C2
:1045E0005A600EE02268521B1DD40B2A16D961199D
:1045F000A342256018BF5960636808BF39606251E3
:104600004B60304600F02AF804F10B00231D20F027
:104610000700C21AB5D01B1AA350B2E7A3426268C2
:10462000DED13A60EDE723466468B1E70C4649689D
:10463000B8E71346CEE70C233046336000F00EF89F
:104640009EE70560DDE75B60FFDE00BFD817002056
:10465000014800F0B0BE00BFF9170020014800F08B
:10466000ABBE00BFF91700202DE9F04F0D469DB0FD
:1046700014469846064618B1036A0BB9FFF770FE58
:104680006B6ED90705D4AB899A0502D4A86D00F0EA
:1046900092FEAB891B0701D52B699BB92946304691
:1046A00000F026FA70B16B6EDC0704D54FF0FF30D6
:1046B0001DB0BDE8F08FAB899805F7D4A86D00F068
:1046C0007BFEF3E70023CDF80C804FF00109DFF803
:1046D000B481099320238DF8293030238DF82A30B6
:1046E00023469A4613F8012B0AB1252AF9D1BAEBD1
:1046F000040B0BD05B4622462946304600F074FE80
:10470000013000F0A780099A5A4409929AF80030C3
:10471000002B00F09F8000234FF0FF320AF1010AC6
:10472000049307938DF853301A93CDE9052354462B
:104730000522544814F8011B00F0C3FF049AD8B9AD
:10474000D10644BF20238DF85330130744BF2B23D9
:104750008DF853309AF800302A2B15D0079A54461A
:1047600000204FF00A0C214611F8013B303B092B89
:104770004BD9B0B1079214E0A0EB0803A24609FAA6
:1047800003F313430493D2E7039B191D1B68002B0B
:104790000391BBBF5B4242F0020207930793B8BF8D
:1047A000049223782E2B0AD163782A2B32D1039BD3
:1047B00002341A1D1B6843EAE37303920593DFF882
:1047C000D4A003222178504600F07BFF38B1A0EB43
:1047D0000A004022049B013482401343049314F8DE
:1047E000011B062228488DF8281000F06AFF0028D7
:1047F0003FD0264B1BBB039B073323F00703083333
:104800000393099B3B4409936AE70CFB02320C4675
:104810000120A8E7002301344FF00A0C1946059344
:10482000204610F8012B303A092A03D9002BC6D0B4
:104830000591C4E70CFB012104460123F0E703AB1B
:104840002A4604A930460093114BAFF30080074677
:10485000781CD6D16B6ED90705D4AB899A0502D4E2
:10486000A86D00F0A9FDAB895B063FF51FAF099865
:104870001EE703AB2A4604A930460093044B00F020
:104880000BF8E4E7F55E0000FF5E000000000000AA
:10489000E9530000FB5E00002DE9FF470F7E9146C3
:1048A00080460C46782F9A460C9E01F1430207D8A9
:1048B000622F0AD8002F00F0DD80582F00F0C3804F
:1048C00004F1420684F842703AE0A7F16303152B25
:1048D000F6D801A151F823F0314900004549000004
:1048E000C1480000C1480000C1480000C1480000A4
:1048F00045490000C1480000C1480000C14800000F
:10490000C14800005B4A0000D3490000134A000080
:10491000C1480000C14800007D4A0000C1480000B5
:10492000D3490000C1480000C14800001B4A0000F4
:1049300033681A1D1B68326004F1420684F8423065
:104940000123A8E031682368081D30601E0601D5E8
:104950000D6803E05D06FBD5B1F90050002D6168DC
:1049600078DA2D200029A16084F843002DDA6D4209
:104970005D480A231646B5FBF3F103FB1157C75DEB
:1049800006F8017D2F460D46BB42F4D9082B0BD10A
:104990002368DF0708D5236961689942DEBF3023A9
:1049A00006F8013C06F1FF36921B22614B4603AA32
:1049B00021464046CDF800A000F028FD01306FD11F
:1049C0004FF0FF3004B0BDE8F08723F0040323600C
:1049D000CDE721683368080653F8045B02D4490622
:1049E00048BFADB26F2F33603F4814BF0A2308237E
:1049F000002184F843106668002EA660BADB2168A7
:104A000021F004012160002DB4D1002EB2D1164650
:104A1000BCE7236843F020032360782733482368EA
:104A200084F845701F06316851F8045B02D45F06B4
:104A300048BFADB23160D90744BF43F020032360C3
:104A40001DB11023D4E72848E9E7236823F02003A9
:104A50002360F6E724480A23CDE733682568181D4C
:104A6000616930602E061B6801D5196002E0680696
:104A7000FBD5198000231646236197E73368002190
:104A80001A1D32601E686268304600F01AFE08B1D6
:104A9000801B606063682361002384F8433085E7EE
:104AA0002369324649464046D047013088D02368C2
:104AB0009B0714D4E068039B9842B8BF184681E76F
:104AC0000123324649464046D04701303FF478AF93
:104AD0000135E36803995B1AAB42F1DCEAE7002594
:104AE00004F11906F5E700BF065F0000175F00003C
:104AF00038B5294B05460C46186818B1036A0BB93E
:104B0000FFF72EFCB4F90C30190722D4DA0607D4CB
:104B100009222A6043F040034FF0FF30A38133E0C5
:104B2000580712D5616B41B104F14403994202D098
:104B30002846FFF7A9FC00236363A38923F024031D
:104B4000A3810023636023692360A38943F00803E2
:104B5000A38123694BB9A38903F42073B3F5007FC4
:104B600003D02146284600F0DFFDB4F90C3013F0E5
:104B700001020AD00022A26062695242A261226947
:104B800042B913F08000C5D138BD990758BF62699A
:104B9000A260F4E70020F7E75411002038B50023A5
:104BA000054D044608462B60FBF7C6FD431C02D1A9
:104BB0002B6803B1236038BDD017002038B500231F
:104BC000064D0446084611462B6000F0D5FA431CFA
:104BD00002D12B6803B1236038BD00BFD01700207D
:104BE00038B50023054D044608462B6000F0C9FA8D
:104BF000431C02D12B6803B1236038BDD0170020BD
:104C000008B500F056FBFBF721FB00F05FFBFBF75C
:104C100059FBFEF7D3FAF8E700F055B808B5FBF7F3
:104C200017FEFCF73DF8FBF7FBFBFBF7FFFBFBF781
:104C30000DFCBDE80840FBF791BC08B500F041F859
:104C4000BDE80840FEF7DCBE7047FBF715BC7047B7
:104C5000FBF758BC70477047012070470120704730
:104C600010B5FBF75DFC0446FFF7F6FF002818BF00
:104C7000204610BD38B5FEF7D5FB0446FBF75EFCB9
:104C8000042817D002284FF0000508BF0124FCF7C4
:104C9000ADFB042810D0022808BF0124FFF7DEFF77
:104CA00004280BD0022808BF0124002D18BF0024BF
:104CB000204638BD0125EAE70125EFE70024F7E7A4
:104CC00070470F2070470E20704708B501213A2029
:104CD000FCF76CFDBDE80840FFF79EBF01213A20BC
:104CE000FCF764BD70B5002506462C46052C20D87F
:104CF000DFE804F003070B0F13175B210820FBF715
:104D000007FE0C210820FBF703FED1210820FBF74A
:104D1000FFFD80210820FBF7FBFD00210820FBF7A9
:104D2000F7FD6C1C2946E4B208202546FBF7F0FD90
:104D30000624A4F10E03012B05D85A210820FBF705
:104D4000E7FD0134D2E7102C05D1BDE870405D21AC
:104D50000820FBF7DDBDB31F195DEFE7FEE710B5D7
:104D60003AB1002350F8234041F8234001339A42DE
:104D7000F8D110BD002070474FF4004070474FF449
:104D80007A707047FEE7002303607047436803B101
:104D9000184722207047436903B11847FF20704726
:104DA00038B50D680C462B78022B0CD06979287920
:104DB000FBF7D2FCB0FA80F0400928702046BDE82D
:104DC0003840FBF761BB38BD03681878704710B5F1
:104DD00004682378022B15D061792079FBF7BCFC9D
:104DE000A279012A15D1003818BF01204FF6E071D1
:104DF000638840EA430363F03F039BB28B4202D1D6
:104E00002270638010BD4FF6DF729342F9D1002209
:104E1000F6E7002AF6D1B0FA80F040092070F1E7F9
:104E200003681A78022A03D100225A80FBF7B6BC25
:104E3000704713B504682378022B10D0A379022B96
:104E40000BD100216079FBF743FF002362792079C1
:104E50001146CDE90033FDF76FFD0223237002B048
:104E600010BD4FF060420123D2F8001E83400B4377
:104E70000020C2F8003E70474FF060410122D1F897
:104E8000003E824023EA02030020C1F8003E704742
:104E9000D0E90003184710B5044601213A20FCF779
:104EA00085FCA3782078B3FA83F3042261785B0948
:104EB000FDF7B2FD002010BD034659789B780078BD
:104EC0000BB9FBF747BDFBF765BD034659789B78E7
:104ED00000780BB9FBF75EBDFBF73CBD37B5044668
:104EE0000D46C07EE17F002D39D001230422FDF75D
:104EF00093FD0123022294F82010207FFDF78CFD02
:104F000094F83530022B19D10023012294F8211096
:104F1000607FFDF781FD0023042294F82210A07F1A
:104F2000FDF77AFD012394F82120019300931146A7
:104F3000607FFDF701FD002003B030BD032BFAD1E7
:104F40000023012294F82110607FFDF765FD002306
:104F5000042294F82210A07FFDF75EFDEBE72B46BC
:104F60002A46FDF759FD2B462A4694F82010207F4B
:104F7000FDF752FD94F83530022B12D12B462A460C
:104F800094F82110607FFDF747FD2B462A4694F8E0
:104F90002210A07FFDF740FD94F821200123019508
:104FA000C4E7032BC7D12B462A4694F82110607F13
:104FB000FDF732FD2B462A46CBE737B590F8355042
:104FC0000446022D12D1437E94F82210807F23B92B
:104FD000FBF758FF002003B030BD012B02D1FBF7D7
:104FE00071FFF7E7237E002BF9D1F1E7012DF1D115
:104FF000037E73B911238DF80730FCF7ADF82A460C
:1050000020460DF10701FCF721F82046FCF7BCF81B
:10501000E0E71323EFE708B5FBF76AFBBDE80840BC
:105020000021FCF79DBB0029CCBF01210021FCF72A
:1050300097BB02214FF42070FCF7E0BE10B5FBF7E0
:1050400045FB0446FCF7EEF9C0F102012046FFF7EC
:10505000EAFF01210020FDF7EBF8FCF761FFBDE856
:105060001040FCF799BCEFF3108072B6704700B99E
:1050700062B67047EFF31180302383F311887047D5
:1050800080F311887047704770470020FCF7BCBF61
:105090000120FCF7B9BF70477047C36C0B42FCD1CD
:1050A000704708B543680246DB0714D50A23502130
:1050B0000363FFF7F2FF136C9907FCD1936A012198
:1050C00010469362FFF7E9FF136C1B0604D401231B
:1050D00002F50052536008BD536BF5E7036C5B06A5
:1050E000FCD5C163704770B5054614460E46FFF700
:1050F000BAFF2B685C4034405C402C60BDE87040D7
:10510000FFF7B5BF70474FF0B0435A6812B19A6AC3
:10511000002AFAD1704783695B06FCD5C1637047EA
:1051200070B50C46154610B9FDF794FE38B14368CA
:105130002BB12A462146BDE870400068184723205D
:1051400070BDF7B50D4616461C4648B103B901AC13
:1051500087685FB12346324629460068B84706E0B3
:10516000FDF778FE04B901AC0028F1D1232003B08B
:10517000F0BD00207047FEE74FF4005300204B6065
:105180007047012070470020704707B5002001AB31
:105190000190FFF7D6FF0198002808BF4FF0FF30BD
:1051A00003B05DF804FB10B5FFF75DFF0446FDF7A3
:1051B000B5FE2046BDE81040FFF759BF01207047FB
:1051C0004FF4C870FDF7EABF704700230B707047BB
:1051D0002DE9FF410D4616461F460446A8B14FF083
:1051E0000008C0F81C80FEF745FCBDF82C30424694
:1051F00002939DF828302946CDE9007320463346B6
:10520000FEF79EFB04B0BDE8F0812220FAE7F0B57E
:1052100087B01F4600230D46164604468DF817300A
:10522000A8B1C3610DF11701FEF754FC9DF81720DA
:105230007AB9BDF83430294602939DF830302046C3
:10524000CDE900733346FEF77BFB07B0F0BD2220AB
:10525000FBE70320F9E738B5FFF70CFF054600F040
:1052600008F804462846FFF70BFF204638BD00200B
:1052700070474FF0B0439A6A1207FCD4186A70471F
:105280004FF0B04301285B6904D0022805D1C3F375
:105290008010704703F0010070470020704708B588
:1052A0003E20FCF7ADFA0346FFF7E1FF23FA00F0DA
:1052B00008BD08B5FBF786F8FFF7B0FCFFF7BDFCAB
:1052C000FFF7C2FCBDE80840FFF7BFBC08B5FFF719
:1052D000BEFCFFF7BDFCFFF7BDFCBDE80840FFF7D3
:1052E000BABC2DE9F8430746884614460026D4E99F
:1052F0000195B9F1010905D52468002CF7D1304694
:10530000BDE8F883AB89012B07D9B5F90E3001331D
:1053100003D029463846C04706436835E9E710B54B
:105320000C46B1F90E10FFF767F80028ABBF636DAC
:10533000A3891B1823F48053ACBF6365A38110BD00
:105340002DE9F0411F468B8905460C46DB051646C4
:1053500005D502230022B1F90E10FFF73BF8A3890F
:105360003246B4F90E10284623F48053A3813B46FD
:10537000BDE8F041FFF752B810B50C46B1F90E1078
:10538000FFF728F8431CA38915BF606523F48053F9
:1053900043F48053A38118BFA38110BDB1F90E104F
:1053A000FFF708B802440346934200D1704703F860
:1053B000011BF9E77047704770479368013B002B6A
:1053C000936010B408DA9469A34201DB0A2903D17F
:1053D0005DF8044B00F037B91368581C106008469C
:1053E00019705DF8044B7047F8B506460F46144631
:1053F000D518AC4201D1002007E03A4614F8011B51
:105400003046FFF7DAFF431CF3D1F8BD2DE9F04732
:10541000164698468A6807460B690C46DDF82090C8
:105420009342B8BF1346336091F843200AB1013369
:1054300033602368990642BF3368023333602568BE
:1054400015F0060506D104F1190AE36832689B1AC3
:10545000AB422BDC94F843302268003B18BF012399
:10546000920630D404F1430241463846C847013021
:1054700023D023681A3454F80A2C03F00603042BB3
:105480000ABF54F80E5C002533684FF0000608BFD1
:10549000ED1A54F8123C08BF25EAE5759342C4BFE3
:1054A0009B1AED18B5421AD1002008E0012352469C
:1054B00041463846C847013003D14FF0FF30BDE8C0
:1054C000F0870135C1E7E1185A1C3020023322442D
:1054D00081F8430094F8451082F84310C2E7012395
:1054E000224641463846C8470130E6D00136D9E762
:1054F000B1F90C202DE9F041170705460C4656D4AA
:105500004B68002B02DC0B6C002B3DDDE66A002EA5
:105510003AD0002312F480522F68216A2B6025D0E4
:10552000626DA389580705D56368D21A636B0BB106
:10553000236CD21A216A0023E66A2846B047411C30
:1055400024D00023636023692360A389DA0400D593
:105550006065616B2F60B9B104F14403994202D0D8
:105560002846FEF791FF002363630DE001232846E0
:10557000B047461C0246D4D12B68002BD1D01D2B3E
:1055800001D0162B2AD12F6000202EE02A68B4F912
:105590000C3042B11D2A01D0162A21D100236360AC
:1055A00023692360D5E7626022692260CEE70F6934
:1055B000002FE9D093070E680F600CBF4B690023E2
:1055C000A6EB07088B60B8F1000FDDDD43463A46D5
:1055D000216A2846A66AB047002808DCB4F90C30D6
:1055E00043F040034FF0FF30A381BDE8F081074452
:1055F000A8EB0008E7E738B50B6905460C4613B978
:105600000025284638BD18B1036A0BB9FEF7A8FE7D
:10561000B4F90C30002BF3D0626ED00704D4990596
:1056200002D4A06DFFF7C7FE28462146FFF760FFB2
:10563000636E0546DA07E4D4A3899B05E1D4A06D27
:10564000FFF7BAFEDDE7F8B50E461446054618B179
:10565000036A0BB9FEF784FEA369A360A3891A0746
:1056600001D5236943B921462846FFF741FA18B10D
:105670004FF0FF373846F8BD2368F6B22269374647
:10568000981A6369834205DC21462846FFF7B3FF79
:105690000028EDD1A368013BA36023685A1C226057
:1056A0001E70431C62699A4204D0A389DB07E1D5CE
:1056B0000A2EDFD121462846FFF79DFF0028D9D0CA
:1056C000D6E7C9B20346024410B59342184601D149
:1056D000002003E0047801338C42F6D110BD70B590
:1056E0000C46B1F90E1096B0154600291E460CDA8C
:1056F000A389002113F0800F14BF40234FF480636F
:10570000002031602B6016B070BD6A46FFF756FA74
:105710000028EDDB019901F47041A1F500535942D5
:1057200059414FF48063EBE78B89F7B59D07064637
:105730000C4607D504F1470323602361012363610D
:1057400003B0F0BD01AB6A46FFF7C9FF009F0546F5
:1057500030463946FEF704FF48B9B4F90C309A05D3
:10576000EED423F0030343F00203A381E2E7A3890D
:10577000206043F08003A381019BC4E904075BB16F
:10578000B4F90E103046FFF72BFA28B1A38923F0A5
:10579000030343F00103A381A3891D43A581CFE740
:1057A000F8B500BFF8BC08BC9E467047F8B500BF0E
:1057B000F8BC08BC9E4670475FF800F0B9110020A5
:1057C00000000000000000000000000000000000D9
:1057D00000000000000000000000000000000000C9
:1057E0003D3D3D3D3D3D3D3D3D3D3D3D3D3D3D3DE9
:1057F0003D3D3D3D3D3D3D3D3D3D3D3D3D3D3D3DD9
:105800003D3D3D3D3D3D0D0A002020535441525445
:1058100055502054455354202D2045465233324292
:1058200047323220697320616C697665210D0A0068
:1058300020204C45442077696C6C20626C696E6B4B
:1058400020666F7265766572206E6F772E2E2E0D34
:105850000A002020576174636820636F6E736F6C59
:105860006520666F72206D6573736167657320656F
:1058700076657279207365636F6E640D0A003D3D35
:105880003D3D3D3D3D3D3D3D3D3D3D3D3D3D3D3D48
:105890003D3D3D3D3D3D3D3D3D3D3D3D3D3D3D3D38
:1058A0003D3D3D3D0D0A0D0A005469636B3A2025CC
:1058B0006C7520202D204C454420697320626C6952
:1058C0006E6B696E672C2065766572797468696E97
:1058D00067206973204F4B210D0A0000A41100209E
:1058E0009D070000CF4D0000214E0000334E000008
:1058F000C94D0000B0110020974E0000B94E0000C5
:10590000CB4E0000D5090000150A0000633A5C7513
:10591000736572735C73756468617273616E5C73D6
:10592000696D706C696369747973747564696F5CAF
:1059300073646B735C6765636B6F5F73646B5C70E0
:105940006C6174666F726D5C656D6C69625C696ECA
:10595000635C656D5F6770696F2E6800433A2F5511
:10596000736572732F73756468617273616E2F5300
:10597000696D706C696369747953747564696F2FAC
:1059800053444B732F6765636B6F5F73646B2F704A
:105990006C6174666F726D2F6472697665722F62C6
:1059A0007574746F6E2F7372632F736C5F73696D90
:1059B000706C655F627574746F6E2E630000FF011A
:1059C0001F00FF000F00FF011F00FF000F001E005F
:1059D0000003433A2F55736572732F7375646861C2
:1059E0007273616E2F53696D706C6963697479535A
:1059F000747564696F2F53444B732F6765636B6FC6
:105A00005F73646B2F706C6174666F726D2F656D60
:105A10006472762F756172746472762F7372632F5D
:105A2000756172746472762E6300FF011F00FF00BF
:105A30000F000000050000000000000000C201008F
:105A40000005000000100000000000000000000041
:105A5000050000000000000000C20100000200007C
:105A60000010000000000000000000000000000026
:105A7000433A2F55736572732F737564686172733F
:105A8000616E2F53696D706C6963697479537475B5
:105A900064696F2F53444B732F6765636B6F5F733C
:105AA000646B2F706C6174666F726D2F656D6C69BD
:105AB000622F7372632F656D5F636D752E63004394
:105AC0003A2F55736572732F7375646861727361D1
:105AD0006E2F53696D706C69636974795374756462
