:020000041000EA
:10000000002008205D0100101B0100101D010010E0
:100010001101001011010010110100101101001058
:100020001901001019010010190100101F01001022
:10003000110100101901001021010010230100100E
:100040001101001011010010110100101101001028
:100050001101001011010010110100101101001018
:100060001101001011010010110100101101001008
:1000700011010010110100101101001011010010F8
:1000800011010010110100101101001011010010E8
:1000900011010010110100101101001011010010D8
:1000A00011010010110100101101001011010010C8
:1000B00011010010110100101101001011010010B8
:1000C00011010010110100101101001011010010A8
:1000D0001101001011010010110100101101001098
:1000E0001101001011010010110100101101001088
:1000F0001101001011010010110100101101001078
:100100001101001011010010110100101101001067
:10011000EFF30580103800BE00BE00BE00BE00BE7A
:1001200000BE00BEF2EB887184780010A478001045
:10013000A001001090A31AE7D3DEFFFF42012110B7
:10014000FF010000C0880000793512AB4FF00000BD
:100150001E49086006C881F3088810474FF05040D8
:10016000006810B14FF00000F2E70DA40ECC00299A
:1001700002D000F012F8F9E71549164A002000E015
:1001800001C19142FCD11449884714498847144958
:10019000884700BEFDE701C901C29A42FBD3704700
:1001A000A47800101001002064120020F8890010CB
:1001B0000000082000000820F88900100010082026
:1001C00000100820000000007047000008ED00E06B
:1001D0006412002008240220B9170010D502001074
:1001E000B1170010F8B500BF0348044B834202D09A
:1001F000034B03B1184770476412002064120020BB
:1002000000000000064B0749C91A891048BF013198
:10021000491003D0044B0BB101481847704700BF89
:1002200064120020641200200000000010B5064C8B
:10023000237843B9FFF7D8FF044B13B10448AFF359
:1002400000800123237010BDF8140020000000007E
:100250007874001008B5044B1BB104490448AFF38F
:100260000080BDE80840CDE700000000FC1400203D
:10027000787400100E2080B500F04AF84FF00106A7
:100280000E2346EC44300F2000F042F80F2346ECDA
:1002900044304FF00007DFF838800E2546EC405020
:1002A0000F2446EC4040404601F0C6FB4FF4167068
:1002B00006F094F947EC405047EC4040034801F009
:1002C000BBFB4FF4487006F089F9E6E7887400102C
:1002D0007874001000B583B001F06AFB4FF4FA6047
:1002E00000F008FF074801F0A7FB012400234FF4AA
:1002F0008072CDE900430449044806F009F806F08D
:1003000031F8FEE798740010BC74001075020010FC
:1003100030B44FF0000343EC440043EC40000525AB
:100320004FF480740B4BC20053F8201003EB800095
:1003300081F0400102F1804303F5203301F0C00257
:1003400000F5805100F540500A605D60046030BCEB
:10035000704700BF048003400FB400B583B0049C15
:10036000074801F069FB3CB105A92046019101F065
:1003700005FA044801F060FB012001F017FA00BF04
:10038000C8740010D8740010EFF3108072B6064BDA
:10039000D3E8CF1F01220029FAD1C3E8412F002959
:1003A000F6D1BFF35F8F70478F1700200023034AF9
:1003B000C2E88F3F80F31088704700BF8F1700207E
:1003C00070B58646EFF3108572B6124CD4E8CF6F45
:1003D0000120002EFAD1C4E8460F002EF6D1BFF35B
:1003E0005F8F4FF0010CC80801F007030CFA03F30C
:1003F0001EF800C01CEA030608D14CEA030C0EF8F4
:1004000000C0C4E88F6F85F3108870BD1046FFF7F9
:10041000A3FF00BF8F170020F8B5EFF3108572B669
:10042000234CD4E8CF7F0126002FFAD1C4E8476FD0
:10043000002FF6D1BFF35F8F9A4227D80126D70845
:1004400010F807E002F0070C06FA0CFC1EEA0C0F8D
:1004500000EBD2070DD125E04FEAD20E10F80EE0E6
:1004600002F0070C06FA0CFC1EEA0C0F00EBD20798
:1004700018D001329342EFD24FF0FF300023C4E88E
:100480008F3F85F31088984207DBF8BD0023C4E84E
:100490008F3F85F310884FF0FF300029F5D0069884
:1004A000FFF75AFF4EEA0C0E104687F800E0E5E72A
:1004B0008F170020044A1078431CDBB2182B28BF8A
:1004C00010231370704700BFB81100200146024A84
:1004D0000248FFF775BF00BFDC740010A01B0020AE
:1004E00010B5054C82B001461F2318220094034822
:1004F000FFF792FF02B010BDFC740010A01B00209B
:100500004FF0E022936843F000539360704700BFC0
:100510000021044B03F12002C3E88F1F01339342F3
:10052000FAD17047841700204FF0E0234FF080325B
:10053000C3F80024C3F80424C3F80824C3F80C2427
:10054000C3F81024C3F81424C3F81824C3F81C24D7
:10055000C3F82024C3F82424C3F82824C3F82C2487
:10056000C3F8302462B67047012300F01F029340A5
:10057000400941B1800000F1604000F56140C0F8E1
:10058000803103607047024A203042F820307047C3
:1005900000E100E00123064A410952F8212000F061
:1005A0001F008340134214BF01200020704700BF8A
:1005B00000E100E001224309034900F01F008240EE
:1005C000403341F82320704700E100E0054A103035
:1005D0009268054B52F82000C01A2F288CBF0020CB
:1005E0000120704700ED00E0BC110020F8B50D4679
:1005F000EFF3108772B6124ED6E8CF2F0123002AF0
:10060000FAD1C6E8423F002AF6D1BFF35F8F0D4B07
:1006100000F110049B680C4A53F82430934203D035
:10062000994201D000F082FF064B9B6843F82450AA
:10063000BFF35F8F0023C6E88F3F87F31088F8BDB4
:100640008D17002000ED00E0110100102DE9F04FA2
:1006500081468B46164683B0EFF3108372B6DFF8FF
:10066000D0A10093DAE8CF1F01230029FAD1CAE80C
:10067000413F0029F6D1BFF35F8F664B93F90040ED
:10068000002CC0F2A080644D04EB440705EB870802
:1006900098F8061009F110091970604BBF009B68AB
:1006A00053F829006300411B2F292FD95C49884248
:1006B00040F0A4801C445B4B02372F44043BDB1BFF
:1006C000C3F34A036FEAC3434FF421416FEAD343B4
:1006D00025F8241005EB840463804BF60153A380B6
:1006E000FF2348F00100E671C4F808B0A3714B4B3A
:1006F0009B6843F82900BFF35F8F0023CAE88F3F50
:10070000009B83F3108803B0BDE8F08F20F0010E4A
:100710009EF80710B1422ED84FF42143EB53414BC2
:10072000B91C2944043B04375B1A2F44AEF1040181
:100730003D4CC91BC1F34A012143A8F80410C3F37F
:100740004A033A492343A8F802304AF6AA207346DE
:100750005B1B5B415843000D88F8076088F8060072
:10076000C8F808B048F00100CEF80010BFE7D17912
:10077000B1422ED996469EF906C00CEB4C02BCF154
:10078000000F05EB8202F2DA4BF601510EF1040282
:10079000A8F10407BF1AC7F34A076FEAC7476FEA11
:1007A000D7478EF8064003EB0408204C05EB88037E
:1007B000AEF8047045F82840998083F806C0DE71D1
:1007C000C3F808B093E700F0B1FE124B93F9004074
:1007D00059E7724632F8041F490514D4491502310D
:1007E00002EB410101916FF00701C91B019F491BF9
:1007F0003944C1F34A0141F46041C9E7019300F073
:1008000095FE019B56E701F5FF1101F5FF511F31E0
:10081000E4E700BF03240220BC11002000ED00E04B
:1008200011010010EC11002000E0FFFF014880479B
:100830008D1700204FF0FF0C20F0030303F16043FD
:1008400003F5644300F003001A68C0000CFA00FCD2
:1008500022EA0C0281400A431A607047F0B5EFF3B8
:100860000585EDB2EFF3108C72B62649D1E8CF2F93
:100870000123002AFAD1C1E8423F002AF6D1BFF392
:100880005F8F214E40F0010EB4684AF6AA2354F857
:1008900025701E4A0446A41A644163431B0D774524
:1008A0005BB21BD092F906409C421CD092F91240D8
:1008B0009C4223D092F91E409C4221D092F92A40BA
:1008C0009C4208BF03240FD0114A002415781370EE
:1008D0008571C1E88F4F8CF31088F0BDB2680D4C64
:1008E00042F82540F0E7002404EB440402EB8402C4
:1008F000FF2494714BF601549480E5E70124F3E75B
:100900000224F1E78D17002000ED00E0BC1100206B
:10091000032402201101001010B5074C82B00146DB
:100920000523002200940548FFF776FD0028A8BFA4
:10093000C0F1330002B010BD18750010072402206A
:10094000014B0B440360704784170020F8B5124C2C
:10095000124DAC4211D24FF0FF36002723686BB125
:10096000FFF7A8FD01462046FFF7EAFF6660277201
:10097000BFF35F8F0C34AC42F0D3F8BDFFF79AFDA4
:1009800001462046FFF7DCFF6660BFF35F8F083447
:10099000AC42E3D3F8BD00BF541200206412002023
:1009A00010B50446FFF786FD01462046FFF7C8FF55
:1009B0004FF0FF336360BFF35F8F10BD10B5044687
:1009C0000120FFF78DFD034B03442360BFF35F8FCE
:1009D00010BD00BF84170020024B0B440360BFF31F
:1009E0005F8F7047841700202DE9F04F2DED028BAB
:1009F00085B0EFF30583DBB2103B9A0818BF0122E4
:100A00004FF0010103F0030018BFAF4DAF4B08BF1B
:100A1000AF4D00EB820253F8226001FA00FB05F5AE
:100A200041539FEDA78B0190C3F804B02EE0B3882B
:100A3000180440F19280B379002B40F0DC80B6F9C5
:100A400008100029C0F21D81736901EB410103EB1D
:100A5000C103D3E90247B7F1FF3F08BFB4F1FF3F3D
:100A60000DD0019B05EB8301AB6A0A69D21AE31A28
:100A7000934203D32B6A13EA0B0F00D10C61284673
:100A800000F0BEFBA042B941C0F2FB80B6F90830CD
:100A9000C5F83CB0002B0093C9DBD6F8149003EBEB
:100AA000430A284609EBCA07D7E9024800F0A8FB29
:100AB000A04271EB0801BADBB8F1000FC0F2C380AD
:100AC000D7E90431834A934200F0ED807A88B6F981
:100AD000080092B242EA0040984702460B4652EAAA
:100AE000030100F0B080002B80F2D180B4EB020E45
:100AF00068EB030839F93A30C7E902E8002B96DBC6
:100B0000716903EB430201EBC202D2E90270BE45F8
:100B100078EB000C4FEA430289DBB4462CF8083F1F
:100B20000BE031F93230A446002B0DDB03EB430020
:100B300001EBC0005A00D0E90270BE451A4478EBC0
:100B4000000001EBC204ECDA29F83A30009BACF863
:100B50000030B38818043FF56EAF3369EFF31082AD
:100B600072B6D3E8CF0F01210028FAD1C3E8401FA5
:100B70000028F6D1BFF35F8F4FF6FF74B0880023D3
:100B8000316900B2B480C1E88F3F82F31088984287
:100B9000FFF651AF0746A946746906F1080807EB4E
:100BA000470E04EBCE03D3E90250B6F90830C44631
:100BB000002B13DBB246009704E034F9363094463C
:100BC000002B09DB03EB430604EBC602D2E90271FA
:100BD000BD4270EB0101F0DA5646009FACF80070A0
:100BE00034F93E7024F83E30002FD8DAB3794D4600
:100BF000002B3FF424AF0023B371B6F9083006F19F
:100C00000808591C3DD01946776903E080465A1CF4
:100C10003FF417AF03EB430207EBC200B0F802C08A
:100C20001C461CF4004F9E4637F93230EED08C4201
:100C300080ED028B05D0A8F80030318927F83210FA
:100C400034817146E3E739F83A3033813369EFF3A1
:100C5000108272B6D3E8CF0F01210028FAD1C3E881
:100C6000401F0028F6D1BFF35F8F7388316929F8E0
:100C70003A30009B73800023C1E88F3F82F31088D5
:100C8000D5E640BF05B0BDEC028BBDE8F08F28462D
:100C9000CDE9022300F0B4FA029A039B10EB020E96
:100CA00043EB010826E708460B69029198470028A4
:100CB000C9D00299D1E9002311E700BFAFF300804A
:100CC000FFFFFFFFFFFFFFFF00800B401C20002005
:100CD00000000B40E90900100B4808B50368EFF36A
:100CE000108172B6D3E8CFCF0122BCF1000FF9D149
:100CF000C3E84C2FBCF1000FF4D1BFF35F8F03F0BA
:100D0000F1FB0020002108BDE02200202DE9F84F72
:100D1000364C25692DB1BDE8F84F0A213448FFF75C
:100D20000FBEDFF8E4800321404600F057FA0326A7
:100D3000C4F80C80FFF7BEFB4FF0504C2D4B2670D3
:100D400003442361DCF800300F2163706369618024
:100D50001D834FF00405A3F878504FF00505A3F864
:100D600090504FF00605A3F8A8504FF007050E214C
:100D70004FF6FF7208274FF00A0EA3F8C0504FF04D
:100D800001094FF00C0C4FF0020B4FF0090A0D2037
:100D90004FF00B05A3F868111749A280A3F808E1EA
:100DA000A160A3F848B0A3F8F0A0A3F82051A3F8DD
:100DB00038C1A3F85001A3F83090A3F86060A3F8FD
:100DC000D8701A800D4B3046C8F820700C49DC6092
:100DD000FFF70CFC49463046FFF7C6FB094B0A21DA
:100DE0001F640348BDE8F84FFFF7AABD04120020B6
:100DF000E022002084170020FFFF10001C200020AC
:100E0000E909001000200B4000000B40004870472B
:100E100004120020F8B59DF82070044616461D46C1
:100E200037B900F0F5F9864265EB010100295CDB7A
:100E30002369EFF3108772B6D3E8CF1F0122002990
:100E4000FAD1C3E8412F0029F6D1BFF35F8FB4F97F
:100E500002C063690CEB4C01BCF1000F4FEAC10208
:100E600003EBC10138DB985A4FF0000E6080206917
:100E7000C0E88FEF87F310880698C1E90265086122
:100E80000798486148880130C0F30E00012838BF38
:100E90000120488040EA0C402169EFF3108572B6CA
:100EA000D1E8CF7F0126002FFAD1C1E8476F002F8C
:100EB000F6D1BFF35F8FA1889952A4F804C02369CB
:100EC000C3E88FEF85F310880122E368217803F5EA
:100ED00001538A405A60F8BD00232269C2E88F3F5F
:100EE00087F310884FF0FF30F8BD3846F8BD00BFDB
:100EF0000146F0B50069EFF3108772B6D0E8CF5F16
:100F00000124002DFAD1C0E8454F002DF6D1BFF3E2
:100F10005F8FB1F902E04C690EEB4E0CBEF1000F91
:100F20004FEACC0504EBCC0C3DDB605B002648802F
:100F30000869C0E88F6F87F31088BCF80200CCE91D
:100F400002230130C0F30E00012838BF0120059BA9
:100F5000ACF80200CCF81030069B40EA0E40CCF80A
:100F600014300B69EFF3108272B6D3E8CFCF0127AC
:100F7000BCF1000FF9D1C3E84C7FBCF1000FF4D1F4
:100F8000BFF35F8F8B886353A1F804E00B69C3E85C
:100F90008F6F82F310880122CB68097803F5015323
:100FA0008A405A60F0BD00230A69C2E88F3F87F388
:100FB00010884FF0FF30F0BD03464089B0EB214F61
:100FC00037DD58690A1402EB420210B500EBC2008B
:100FD0001C69EFF3108C72B6D4E8CFEF0122BEF19A
:100FE000000FF9D1C4E84E2FBEF1000FF4D1BFF3CA
:100FF0005F8F428889B292B28A4207D000221B6971
:10100000C3E88F2F8CF31088002010BD42F40042FB
:1010100042800121002218699971C0E88F2F8CF35A
:1010200010881C78DA68084602F50153A14059601F
:1010300010BD0020704700BF407870472DE9F04395
:10104000B0F1960641F1FF35B04271EB050338BFB0
:10105000002683B038BF354604460F4600F0D8F866
:10106000301A65EB0103012873F1000306DA20460C
:10107000394603B0BDE8F04300F0D4B800F0C8F83A
:10108000864265EB010100290ADB0021154B32463F
:10109000009315482B460191FFF72AFF0028E6DB55
:1010A000DFF84C80DFF84490D8F824309D4205D812
:1010B000D8F82820B242DAD29D42D8D1D9F80030EF
:1010C000EFF3108172B6D3E8CF0F01220028FAD1D6
:1010D000C3E8402F0028F6D1BFF35F8F034803F029
:1010E000CFF9E1E7D90C001004120020E022002023
:1010F00000000B4010B5044600F08AF84FF47A73F4
:101100004FF0FF3C6FF00042E4FB0301BDE81040EC
:10111000844572EB01033CBF60461146FFF78EBF6A
:101120002DE9F04306460D4683B0EFF30584E4B2A3
:101130003CB1274B586AA8421CD2002003B0BDE83E
:10114000F083244FD7F80C9097F80080484600F0C1
:1011500057F808F1040859F828301B1A301A65EBC3
:101160000101984271F1000111DB20BF184B586A50
:10117000A842E2D39B6AB34203D3012003B0BDE887
:10118000F083401B18BF012003B0BDE8F08300F0DE
:101190003FF8864265EB01010029CADB0E4B384659
:1011A000CDE9003432462B46FFF7A2FE011EC0DD1A
:1011B000074B5A6AAA4208D39B6AB34203D3054835
:1011C000FFF7FAFEB5E7AA42F9D120BFF7E700BF63
:1011D00000000B4004120020D90C001010B4054B85
:1011E000054C064AA04214BF1846581C5DF8044B33
:1011F000FFF7E6B8A41B002000800B4034750010F8
:101200000346416A0A46986A596A8A42FAD1704787
:10121000034B596A0A46986A596A9142FAD1704753
:1012200000000B40074A536A9942FCD8994207D103
:10123000044B02E05A6A914202D19A6A8242F9D37F
:10124000704700BF00000B4000EB400C4FEA8C0CD5
:101250000CF1804C0CF5803CF0B51646DCF804200F
:10126000051FB2F5803F38BF4FF48032EDB238BF72
:10127000CCF80420012D2AD94FF40067254C0CF539
:101280004052176054F82020B2B9DCF80020012D3C
:1012900082EA461202F0E0020CF5805632602AD94A
:1012A0004FF4006144F820304FF480330CF50052C5
:1012B0001160CCF80430F0BD6769B7FBF2FE0EF1A7
:1012C000010E0EEB4E0EBEF1030EFCD2DDE701293E
:1012D000D2D103240CF540521460DCF80820D20768
:1012E000FBD5DCF800200B4C82EA461202F0E0024B
:1012F0000CF5805632600122DCF800504D4005F0BC
:101300000305356002FA01F1DCF808200A42FBD03F
:10131000C6E700BFA81B0020014B53F82000704710
:10132000A81B002070B4039D04682D0345EA034503
:101330001B4B002CB3FBF1F3B2FBF3F61FDB194A96
:10134000194B904214BF4FF480424FF40042174CA7
:101350001A6003F580531A60A36832EA0303FBD1D5
:10136000212200F540530433016086601A60026850
:10137000002AFCDA0822C5601A6070BC7047036856
:1013800003F03F038B42DAD18368C3F30B03B3420C
:10139000D5D1C36803F4EE23AB42D0D1EDE700BF53
:1013A000001BB70000800540002002400000024002
:1013B00030B44FF080441C4B1C60E0B11B4CA3F5D3
:1013C0004053DC611A4C40F0010044401C625962F9
:1013D00098624FF080454FF0E061134B1548164C72
:1013E0001D60846019604AB930BC4FF00042A3F51B
:1013F00080531A607047114BD861EAE74FF47A7353
:1014000003FB02F2B2F1807F2ABF6FF07F431346E5
:101410001A464FF080410A4C08482360094B42604D
:1014200030BC1960704700BF00B00D40D3C007B09A
:101430002D3FF84F00A00140F3FFFF0100800D4059
:101440000C20002000A00D40012300EB4000800094
:1014500000F1804000F5841041600360704700BFD8
:10146000002370B5DB8A04460D46002242E800F2F4
:10147000520254BF1021042144F25220984786465C
:101480002B462246F446BDE870400A214FF4817095
:10149000604700BF0023DB8A002242E800F25202CC
:1014A00001D4102118470421184700BF08B503468E
:1014B0000846191E02DB1AB140F03000FFF7D0FFDA
:1014C00040F02000FAE700BF034AD2F82838002B8A
:1014D000FBD0BFF35F8F704700000E400021044B2C
:1014E000044ABFF35F8F43F8041B9342F9D170475E
:1014F0000C080E402C080E4010B44FF48D704FF4C1
:101500002A64064A064B07491460D0601960536884
:10151000002BFCDA5DF8044B704700BF00800440EC
:1015200000A0044000B0FA00704700BF08B50148B1
:10153000FEF712FF5875001038B5054C054DAC424A
:1015400004D254F8043B9847AC42FAD338BD00BFEC
:10155000287400106874001038B5054C054DAC4275
:1015600004D254F8043B9847AC42FAD338BD00BFCC
:10157000547400106874001010B40748074C084BEE
:10158000084A094904601A608B6832EA0303FBD1F8
:101590005DF8044B704700BF002002407F3BEFEF37
:1015A00000300240F6FFF30300000240044BDB6C06
:1015B000B3F5004F03D14FF48022024BDA64704739
:1015C00000001150002011504FF0E022044BD2F8DF
:1015D000881D0B43C2F8883D10EE3004704700BFF1
:1015E000030330006FF06041044B054A19609368B3
:1015F000DB4333F06043FAD1704700BF0030024054
:101600000000024010B545F25320FFF743FFBDE84C
:10161000104003460420184710B545F25320FFF749
:1016200039FFBDE81040034601201847FEF770BFA0
:1016300070B51449144C154D641AA610442E324648
:1016400028BF44222846920005F0CAFDB4F5867FE3
:1016500013D80F4AC6F1440112D02B19480803EBE6
:10166000C000C3E9002208338342FAD1CB0704D576
:1016700021F00103334445F82320064B9D6070BDE3
:101680004323F8E7000000101001001000000020C4
:101690001101001000ED00E0002370B52B4C82B06A
:1016A000C4F88430FFF728FF0122294BDA63636C0A
:1016B000012BFCD10321264A244B11639C6B012C86
:1016C000FCD10226052521460523224A2248009600
:1016D000FFF728FE21462B46204A21480095FFF7B8
:1016E00021FE0022042031461E4BFFF7ADFD2146AE
:1016F000284600221C4BFFF7A7FD002208201146B8
:101700001A4BFFF7A1FD002209201146174BFFF7E6
:101710009BFD002206201146134BFFF795FD00228A
:10172000114B07201146FFF78FFD0420FFF7F4FD52
:1017300000240F4BA3FB0035AD0CE0B22946013469
:10174000FFF782FE062CF8D102B070BD0000014008
:1017500000300140002F685900000540008C86478A
:1017600000800540001BB70080D1F008006CDC024F
:1017700083DE1B4300B9704700F01CB910B5094B5C
:1017800084B01C684CB1034600914FF0FF3203A9AE
:101790000548A047012004B010BD00F04DF92046D7
:1017A00004B010BD082000207517001000BEFDE732
:1017B00008B5FFF7FBFF00BF38B5064C064DFFF735
:1017C000BBFEAC4204D254F8043B9847AC42FAD377
:1017D00038BD00BF687400107874001003680846B4
:1017E00011461847437D2DE9F04781460F461646BE
:1017F000002B43D0002A3BDD037D00204D1E014617
:1018000015F8012FDFF884800A2A01F101040ED0B7
:10181000A6421CD02B782146A3F10D03B3FA83F323
:1018200015F8012F5B090A2A01F10104F0D1002B00
:10183000EED18142A1EB000138441BDC022140467D
:10184000D9F800309847A64208D02046E2E7864201
:1018500004DD311AD9F8003038449847374417F876
:10186000013CA3F10D03B3FA83F35B0989F814304B
:10187000BDE8F087D9F800309847DFE73846D9F857
:1018800000301146BDE8F047184700BFBC76001095
:101890002DE9F04782B00D46924699460746FFF77C
:1018A000B7FC4FF0FF366FF000442F4A821841F129
:1018B0000003964274EB03013CBF324623462B489B
:1018C00005F0A6FD6B1C804603D1384605F004FDEB
:1018D0000546274B274E1C68274BB9F1000F18BF50
:1018E0001E46B4B1BAF1000F1AD1DFF8909001E0B2
:1018F000246974B12368002BFAD0D9F800300BB1F9
:101900009C42F5D120462A463946B0472469002C2E
:10191000F0D1B8F1000F1FD1284602B0BDE8F08722
:101920004FF00A0ADFF8549002E02469002CF0D04E
:101930002368002BF9D0D9F800300BB1A342F4D1C1
:101940002A4639462046B047012220460DF10701BC
:101950008DF807A0B047E8E7044805F049FD2846A0
:1019600002B0BDE8F08700BF40420F005C120020CB
:10197000FC1B0020DD170010E5170010041C0020E0
:101980000A4A13684BB1834202D109E0984207D05A
:1019900003F110021B69002BF8D101B110607047F0
:1019A0000029FCD10369136001617047FC1B002012
:1019B00000F06EBAF0B583B006468DF80700FFF769
:1019C00027FC4FF0FF356FF00044174A821841F1B1
:1019D0000003954274EB03013CBF23462A4613489B
:1019E00005F016FD124B07461C689CB1114D01E035
:1019F00024697CB12368002BFAD02B680BB19C4280
:101A0000F6D1204601220DF10701FFF7EBFE246914
:101A1000002CEFD117B9304603B0F0BD034805F0F4
:101A2000E7FC304603B0F0BD40420F005C120020DE
:101A3000FC1B0020041C002038B5044605F04CFCBB
:101A4000012305461A4620462946FFF721FF084B89
:101A50001C682CB163682BB198472469002CF9D11C
:101A6000284638BD2469002CF4D1284638BD00BF73
:101A7000FC1B0020704700BF0022014B1A7070470A
:101A8000042402204B79FF2B0BD1887948B9CB79FC
:101A9000012B07D1082A05D9034B8A7809201A702F
:101AA00070470020704700BF0424022001207047C7
:101AB000012901D00120704708B5104B91881B788F
:101AC000994201D0002008BD5378012B08D0022B89
:101AD000F8D1002164220846FFF76AFC012008BD06
:101AE0005188CB054BBF4A0A4A0A10464FF0FF30D7
:101AF00002F0010201F07F01FFF7D8FC042402206C
:101B00000048704788770010012907D15378012BCE
:101B100002D19388072B03D0002070470120704723
:101B20001146A623014A01F041BA00BFE076001039
:101B30000346012201481A70704700BFC0760010AA
:101B400008B50B68B3F5966F00D008BD00224FF0C2
:101B5000FF301146FFF7AAFC024A034B10601960E0
:101B6000704700BF981B00209C1B0020184B70B5CD
:101B70001A68002A28D0EFF3108172B6D2E8CF4F4E
:101B80000120002CFAD1C2E8440F002CF6D1BFF39B
:101B90005F8F00220F4C186859602270C0E88F2FA9
:101BA00081F31088002400250B4E3078FEF7F2FCFC
:101BB00020B9002400252046294670BD3078FEF764
:101BC000F9FC2046294670BD4FF47A740025EBE7F6
:101BD000142000200624022005240220014B18783E
:101BE000FEF7E8BC0524022038B5044600200D4667
:101BF00001F008FBA8B3002001F01AFB88B3FFF73F
:101C000007FB4FF0FF3E6FF0004C174A821841F17E
:101C1000000396457CEB03013CBF724663461348C4
:101C200005F0F6FBE8B1002001F0ECFA58B900210C
:101C30004FF0FF3000F012FD6FF002040B4805F08A
:101C4000D7FB204638BD002001F0F2FA0028EED084
:101C500021462A46002001F0F7FA04460028EDD17B
:101C6000EAE76FF00204ECE740420F00E4220020B4
:101C700008B5FFF7CDFA4FF0FF3E6FF0004C0F4A6A
:101C8000821841F1000396457CEB03013CBF72468C
:101C900063460B4805F0BCFB70B14FF0FF300021EC
:101CA00000F0DCFC002001F015FB0028F5D1BDE8B8
:101CB0000840034805F09CBB08BD00BF40420F0030
:101CC000E42200202DE9F84307460E46FFF7A0FA6C
:101CD0004FF0FF356FF00044334A821841F10003A2
:101CE000954274EB03013CBF2A4623462F4805F07A
:101CF0008FFB08B9BDE8F883002001F083FA0028C3
:101D000048D0002E41DD0025DFF8A480DFF8A49044
:101D100013E02246002001F023FB002104464FF08F
:101D2000FF3000F09BFC002001F0D4FAFFF770FABE
:101D3000C8E900012544AE4227DD002001F032FB56
:101D4000741B8442A8BF04467919002CE1D12146B6
:101D50004FF0FF3000F082FC204601F0BBFA204635
:101D600001F050FA88B1204601F01CFB0028E2D1B6
:101D7000FFF74EFAD8F80030D8F8042013EB090327
:101D800042F1000283428A41D5D20848BDE8F843B7
:101D900005F02EBB00200021054BC3E90001BDE882
:101DA000F843024805F024BB40420F00E422002023
:101DB000B014002020A1070030B5002185B02E48C6
:101DC00005F02EFBF0B92D4B1A68CAB1EFF3108164
:101DD00072B6D2E8CF5F0124002DFAD1C2E8454F98
:101DE000002DF6D1BFF35F8F254C1D682278596016
:101DF000D3B201222270C5E88F0F81F31088CBB1D6
:101E000005B030BD00214FF0FF3000F027FC00206E
:101E100001F00EFA0446184805F0EAFA002CEFD05B
:101E2000184B1B68002BEBD0174A106805B0BDE8B3
:101E300030401847FEF7EAFF0446FFF7E9F94FF094
:101E4000FF3C6FF0004510F57A7241F100039445B4
:101E500075EB030138BF2B464FF000014FF0010531
:101E600020460A4C38BF6246CDE901150094FEF7C2
:101E7000D1FF05B030BD00BFE422002014200020B7
:101E800006240220981B00209C1B00206D1B0010C4
:101E90004FF0504330B585B01C68FEF7B7FFFFF731
:101EA000CBF8A04202D0002005B030BD00212A4B63
:101EB00008461B7801F046FD28480368002B47D0F0
:101EC0000120FEF729FD0346254C2649C0B22370A8
:101ED000FEF78CFB20780121FEF746FB0E20FEF773
:101EE00075FB40BB204B0125C3E90000FEF78EFFC8
:101EF0000446FFF78DF94FF0FF3E6FF0004C10F5F0
:101F00007A7241F1000396457CEB03014FF000012A
:101F10002046164C3CBF72466346CDE9011500943D
:101F2000FEF778FF0028BEDB01211148FFF728FDEE
:101F3000012005B030BD0120FEF7D2FA01460A4863
:101F4000FEF74AFD00220E200A49FEF77FFBEBE771
:101F5000FEF726FDB4E700BFA0780010E4220020C1
:101F600005240220B91D0010142000206D1B001054
:101F70001C120020DD1B0010004870472478001060
:101F800000487047D077001038B5184B04461A78CF
:101F90000AB344B940F209424FF44173144D6A80C8
:101FA00013482B8038BD052C1AD8124B104D53F80E
:101FB000241028460023013903E0132B20F8022FB8
:101FC00010D011F8012F0133DBB2002AF5D15B00EC
:101FD00043F44073E4E71121184600F025F8D8E7F0
:101FE000002038BD4FF44A73DAE700BF0023022017
:101FF000D01B0020B877001000B545F247308BB0F9
:10200000FFF748FA01220346092101A89847DDE9B4
:102010000332044912BA1BBAC1E900230BB05DF8C0
:1020200004FB00BFD8220020012901F1FF3300F09A
:10203000B3805D490A784FEA121C9F2A8CBF0CF1CD
:10204000370C0CF1300C012B80F800C000F0A78099
:1020500002F00F02092A8CBF37323032022B427055
:1020600000F09D804A784FEA121C9F2A8CBF0CF129
:10207000370C0CF1300C032B80F802C000F08F807D
:1020800002F00F02092A8CBF37323032042BC270A3
:1020900000F085808A784FEA121C9F2A8CBF0CF1D1
:1020A000370C0CF1300C052B80F804C077D002F00F
:1020B0000F02092A8CBF37323032062B42716ED0A4
:1020C000CA784FEA121C9F2A8CBF0CF1370C0CF116
:1020D000300C072B80F806C061D002F00F02092AED
:1020E0008CBF37323032082BC27158D00A794FEA90
:1020F000121C9F2A8CBF0CF1370C0CF1300C092BF1
:1021000080F808C04BD002F00F02092A8CBF37328A
:1021100030320A2B427242D04A794FEA121C9F2A6F
:102120008CBF0CF1370C0CF1300C0B2B80F80AC073
:1021300035D002F00F02092A8CBF373230320C2B17
:10214000C2722CD08A794FEA121C9F2A8CBF0CF1E4
:10215000370C0CF1300C0D2B80F80CC01FD002F0A6
:102160000F02092A8CBF373230320E2B427316D041
:10217000CA7911099F2A8CBF373130310F2B8173F7
:102180000DD002F00F02092A94BF30323732102BE3
:10219000C27318BF103002D0002303707047184478
:1021A00000230370704700BFD822002070B500F0F4
:1021B00033F90C2340261B4CFF22A3670E201A493B
:1021C000FEF744FA194B32460021184604F0B6FFD8
:1021D0000346002101258020154A58849A60843ADC
:1021E0005D701E831E875960C2F88410C2F880108B
:1021F00002F58072DA60DA62803A83F8211083F89F
:102200003B1059629A624FF0005605F0EDF84FF41A
:1022100080320849084B25642846E664C4F89010CB
:10222000DA6470BD00001150A9030020081C0020D2
:102230008400105010D001000020115001210E2008
:10224000FEF792B900220248114600F005B900BF1E
:10225000281C0020044B197021B14FF40032034BAD
:10226000C3F89020704700BF0124022000201150C5
:102270000B785B0602D14B78052B00D070474B885A
:10228000014ADBB21360704700001150CB782DE992
:10229000F04103F0030EBEF1010FC3F301005DD066
:1022A000002791F802C0354C0CF07F035E0089884E
:1022B00006EBDC1204EB42124FEADC15D076C1F3D8
:1022C0000A0185F00100507082F802C01183D770B6
:1022D00018B2DA008DBB2A48043204EB831C02EBEF
:1022E0000008CCF8088017508BB3264ADB001A444C
:1022F000CCF80420244B3F311A6821F03F01BEF195
:10230000020F08BF490011441960204B771904EBF4
:1023100047179942FA602CD82E4404EB4613D97E15
:1023200082F0A04282F480125B6842EA816242F04D
:1023300000421A600120BDE8F081DFF844C004EBE0
:1023400083186244C8F828204CF830704BB900223A
:102350000F4904EB4513D9605A60EBE70020BDE854
:10236000F081DB0003F1A04303F58013C8F82430AB
:10237000C0E7FFF7DBF8FA68CEE700BF081C0020D3
:10238000800010500400105010200020FF0F10504B
:102390000001105005F028B88C4608B511460748D2
:1023A0001A460CF07F034FEADC1C0CEB430C00EBED
:1023B0004C1000F051F8012008BD00BF081C00209F
:1023C000CB0911F07F0103D1064AC3F102009066E8
:1023D000054803EB41034FF40062002100EB43107A
:1023E00005F012B800201150081C002011F07F03E6
:1023F00000D17047002210B4C809064C00EB43001E
:1024000004EB40136FF4006118465DF8044BDA707A
:1024100004F0FABF081C00204FF0805209480A4916
:1024200008B50A4B02600A609968C94311F08051EF
:10243000FAD14FF48052064804F080FE0922054B81
:102440005A6708BD002002400030024000000240F0
:10245000000010500000115000234FF0010C10B587
:1024600080F81AC08282C3820161044604F0C8FF6A
:1024700020B14FF40032074BC3F89020204604F0FF
:10248000CBFF10B10123237710BD2046BDE81040DB
:1024900004F0A6BF002011502DE9F04100241D4E8C
:1024A000054623463278DFF878801B4F0DE03B6805
:1024B00013EB441325D0DB68284698473278013463
:1024C000E4B2511CA142234606DBA242A3EB020365
:1024D000EDD808EB4313EEE7104C542200212046C0
:1024E00004F02CFE4FF0FF33251D6360C5E9013376
:1024F000EB6004F114002022BDE8F041FF2104F05C
:102500001DBE4FF0E023D3F8F03DDB0700D500BE41
:10251000BDE8F08100240220A8160020B01700209A
:1025200038780010704700BF704700BF0020704728
:1025300000207047704700BF704700BF704700BF62
:10254000704700BF024B5878003818BF0120704711
:10255000B0170020024B1878C0F38000704700BF0E
:10256000B01700202DE9F047DFF8E8A09AF8003016
:10257000FF2B02D00120BDE8F0870E4600293ED097
:10258000002154220746294804F0D8FD0022284C97
:10259000284B20461A70FEF703FA274B27481C6089
:1025A000274CFEF70BFA204601F0B0FD254A264BDA
:1025B000264D146063B32846FFF7BAFA244B2A78F5
:1025C00018600024DFF890902346DFF884800EE046
:1025D000D8F8003013EB441311D05B687BB19847F7
:1025E0002A780134E4B2511CA142234612DBA242F4
:1025F000EED89B1A09EB43135B68002BEFD14FF029
:10260000E023D3F8F03DDB0700D500BE0020B2E7A1
:102610002A78D6E7314638468AF80070FFF7C6FDBB
:102620000028ECD03846FFF709FEA3E7B0170020DA
:10263000A8170020022402200418002048120020BD
:102640003412002008180020311B00100024022042
:10265000A816002050120020387800102DE9F04F05
:10266000DFF8C8928BB099F80030FF2B00F0F180B2
:10267000A84CA94DDFF8B0A2DFF8B4B226687369A0
:10268000EFF3108272B6D3E8CF0F01210028FAD100
:10269000C3E8401F0028F6D1BFF35F8FB261304618
:1026A00007A901F081FB00237269C2E88F3FB3697B
:1026B00083F31088002800F0CC809DF81D30013B8A
:1026C000072B00F27D83DFE803F0A7B1959D8E35DF
:1026D0000A04089B002BD1D009989847CEE79DF8B3
:1026E000201001F07F0605EB460000EBD11090F8BA
:1026F000343023F0010380F8343090F8343023F084
:10270000040380F83430002E00F0A680037D9AF890
:102710000020934280F09380804A126812EB4313AA
:1027200000F090809E699DF82120099B9DF81C0077
:10273000B047A3E79BF80030002B00F083809BF8A4
:102740000030013BDBB28BF800309BF8003003F027
:10275000FF00002B92D1704F9DF81C803B7843F016
:1027600001033B7097F8343060F3000387F834308E
:1027700097F8343060F3820387F8343097F83530B7
:1027800060F3000387F8353097F8353060F3820343
:1027900087F8353000F06AFC9DF8203003F06002C5
:1027A000602A6CD0402A7CD003F01F03012B00F07C
:1027B000C180022B00F08180002B60D1202A00F024
:1027C000E981002A5BD19DF82130092B57D8DFE839
:1027D00013F0B001A2015600C101560095016B0132
:1027E00056006001F4002B78D9077FF547AFFFF75B
:1027F000A7FE43E7EB78DA077FF540AF0898FFF7CD
:1028000093FE3BE72B78D8077FF538AF2878C0F3E5
:10281000C000FFF793FE31E79DF81C00FFF73CFE78
:1028200000F01AFC9DF82030AB7027E79DF81C00E3
:10283000FFF732FE00F010FCFFF77EFE1EE7501C93
:10284000984211DA4FF0E023D3F8F03DDC0700D5D1
:1028500000BE0BB0BDE8F08F099B9DF821209DF8CC
:102860001C0000F017FC09E79B1A2D4A02EB4313EA
:1028700058E7FFF785FB0246002840F082814FF0C1
:10288000E023D3F8F03DDE0700D500BE9DF81C0024
:102890000021FFF795FD80219DF81C00FFF790FDBA
:1028A000ECE6204800F0E2FB0121404608AAFFF7D1
:1028B0002BF900287FF4E2AEE8E79DF8241011F030
:1028C000700FDCD101F07F0607EB4600164B00EBE2
:1028D000D1101B78007D7600019698424FEAD11600
:1028E000009659D35E1C8642C0F26681C01A0C4B1A
:1028F00003EB4016002A00F06381706900F0B6FB1C
:1029000001214046736908AA984700287FF4B6AEB3
:10291000BCE700BF08180020B0170020A816002050
:1029200038780010091B00100024022050120020EB
:10293000022402209DF824300F2BA7D8AE4A3B4436
:102940001B791278934232D3511C99429EDBAB4ED5
:102950009B1A06EB4316706900F088FB0121404684
:10296000736908AA984700287FF488AE9DF8203044
:1029700013F060068AD19DF821300A3B012B85D8DF
:1029800000F074FB9DF821300A2B00F0F2814046E4
:1029900008A900F0F1FA71E6994B1B6803EB4016A9
:1029A000002A00F00D81002E3FF470AFA5E7944A95
:1029B000166816EB4316CED168E77B789DF8226047
:1029C0009E4200F04F817B78002B40F0BE817E70EC
:1029D000002E00F04581701EC0B2FFF7D1FA034609
:1029E000002800F05F814278022A40F05B81C179C3
:1029F00003F10906C1F340121201C1F3801142EA4A
:102A000041123146387820F0300002433A705A883B
:102A1000CDF80C809A180192019B8B4240F2A48160
:102A20004A780B2A00F0AF810123042A40F03A8152
:102A30000026019A0096521A92B202926E4A0493AC
:102A400012781DE06E4B1B6813EB461800F02A81CC
:102A5000029AD8F810300398059198470828024642
:102A6000059906F1010303D90298904280F0FF8096
:102A7000DEB2614B00961A78531C9E4200F312811D
:102A8000009BB242A3EB0202DCD85C4B03EB421882
:102A9000DEE77B7840468DF81A300DF11A020123EB
:102AA00008A900F083FAE9E5BDF82200030A013B1A
:102AB000020AC0B20E2B3FF6E9AE01A151F823F095
:102AC000D52C0010712B0010112D00108D28001036
:102AD0008D280010F32C0010712B00108D28001091
:102AE0008D2800108D2800108D2800108D280010D2
:102AF0008D2800108D280010C72C001008A800F0A9
:102B0000BBFA40469DF82210FFF79CFB3B7843F050
:102B100002033B70B2E5BDF82230012B7FF4B6AE64
:102B20003B78404623F0080308A93B7000F024FAE4
:102B3000A4E540463B789A0802F00202C3F3401332
:102B40001343ADF81A300DF11A02022308A900F060
:102B50002DFA93E5BDF82230012B7FF497AE3B7838
:102B6000404643F0080308A93B7000F005FA85E5EC
:102B7000022A3FF47EAEFFF7DBFC024600283FF45A
:102B800085AE4046538808A900F010FA00287FF46B
:102B900075AD7BE69DF824300F2B3FF677AE164AD5
:102BA0003B441B79127893421DD2154A166816EBE6
:102BB00043167FF4A2AE69E6002A7FF467AE0026D2
:102BC0009DF8212002F0FD03012B1BD0002A7FF489
:102BD00056AE019B009A3B44134493F83430404670
:102BE000C3F34003ADE7511C9942FFF64FAE034ECD
:102BF0009B1A06EB431680E600240220387800106A
:102C0000A8160020BDF82230B3B9012A99F80000B7
:102C100000F08680FFF7D4FB019B009A3B441344ED
:102C200093F8342042F0020283F8342093F83420E1
:102C300042F0010283F83420002E3FF41FAD70698A
:102C400000F014FA7369012108AA40469847002051
:102C500000F00CFA97F83530DF073FF50FAD96E638
:102C6000FFF76AFC404608A900F086F906E5049BD8
:102C7000012B00F09E80002B00F08A80002091F84C
:102C8000028005E08CF804605FFA80FC63457FD920
:102C900008EB000C57FA8CFC9CF804E00130BEF104
:102CA000FF0FEFD04FF0E023D3F8F03DDA0700D567
:102CB00000BE4FF0E023D3F8F03DDB0700D500BEA7
:102CC00000237B70E2E5FEF71BFF024600287FF43D
:102CD00058AFDBE5FFF750F9024600283FF4CFADCF
:102CE0004046122308A900F061F900287FF4C6AC21
:102CF000CCE5FFF71BFC024600283FF4C7AD404679
:102D0000137808A900F052F900287FF4B7ACBDE5AC
:102D1000BDF82410FFF738F902460028EFD1B5E5D9
:102D20000293FFF763FB019A009B3A441A4492F81E
:102D30003410029B63F3410182F8341092F834108E
:102D400063F3000182F8341076E700214046FFF774
:102D500081FA4046FFF71EFBBB7840460093FFF721
:102D60009BFB009BBB7032E6DDF80C80FFF7E2FBBB
:102D700078E74046012308A90DF11A028DF81A6080
:102D800000F014F97AE40A78CB7811444A784CE6DA
:102D9000334610480492029100F07CFE0E4B049AD8
:102DA00002991B781144009A01339342BFF634AE66
:102DB00078E7D8F810C00948844508BF02235DE7CA
:102DC0004FF0E023D3F8F03DDB077FF557AC00BEB2
:102DD00054E400BFC417002000240220A5340010D2
:102DE0002DE9F84FDDF82880002A3FD00C461E461A
:102DF00015464FF0000B1F4FDFF87C9017E0204680
:102E000099F8021000F014FEF8B121465046FFF781
:102E10003DFA08B3A3780BF1010BDA0916BF0B9A40
:102E200088F8003013702378AB451C441ED06378BB
:102E3000052B11D1E17801F00301B1420CD1A37847
:102E400097F800A013F0700FD9D04FF0E023D3F81B
:102E5000F03DDA0700D500BE4FF0E023D3F8F03D97
:102E6000DB0700D500BE0020BDE8F88F0120BDE8DB
:102E7000F88F00BF50120020B017002038B50E4B5D
:102E80001D788B7813F0700F08D04FF0E023D3F843
:102E9000F03DDB0700D500BE002038BD074B0C46D7
:102EA0000846997800F0C4FD0028EED02146284657
:102EB000BDE83840FFF7EAB950120020B0170020F3
:102EC0000B46064A06481168DA09343203F07F03DC
:102ED00002EB4303184400F065BD00BF0418002056
:102EE000B01700200B46064A06481168DA0934324A
:102EF00003F07F0302EB4303184400F07DBD00BFE5
:102F000004180020B017002010B5194C01F07F0EF6
:102F100004EB4E0404EBD11494F834C015481CF0B3
:102F2000010F04F13004007808D04FF0E023D3F80B
:102F3000F03DDA0700D500BE002010BD94F804C0B3
:102F40004CF0010C84F804C0FFF726FA0028F4D1F5
:102F50004FF0E021227960F300022271227960F3C0
:102F600082022271D1F8F03DDB07E5D5E3E700BF2F
:102F7000B01700205012002030B50B4C8C46A646EE
:102F80000546086849680023AEE803009CF8001075
:102F90002846C943C4E90233BDE830401A4601F06F
:102FA0008001FFF7B1BF00BF701700202DE9F0418D
:102FB000274F4FF00008BE468C4606460868496811
:102FC000BA60AEE80300A7F80E801546BCF80620EC
:102FD000934228BF1346BB819AB11C462BB3DDB187
:102FE00097F90030402C28BF4024002B28DB4146B5
:102FF00023463046174AFFF787FF68B10120BDE836
:10300000F0819CF800101346C943304601F080015E
:10301000FFF77AFF0028F1D14FF0E023D3F8F03D1D
:10302000DB0700D500BE0020E9E71A46397801F039
:10303000800123463046FFF767FF0028DED1EBE72B
:1030400022462946034804F0CBF88021014AF0E7E4
:1030500070170020301700200022034BC3E9002224
:10306000C3E902221A61704770170020014B1861F2
:10307000704700BF7017002030B40246044C002592
:10308000234600685168C4E9025530BC03C3704749
:103090007017002070B53C4CC90922780646B1EB88
:1030A000D21F1D4682B017D053B14FF0E023D3F8A2
:1030B000F03DDB0702D4002002B070BD00BEFAE78D
:1030C0002146FFF7D5F823691BB12246032130467C
:1030D0009847012002B070BD94F90030A068002B21
:1030E00005DB0028E7D02A46284904F079F8E08972
:1030F000A168E388284480B229448342E081A1602A
:1031000016D03F2D14D9A28994F90040131A9BB20E
:10311000402B28BF4023002C26DB90424FF00001BB
:1031200030D01A4A3046FFF7EFFE0028D1D1BCE775
:10313000236923B102213046134A984758B12178B8
:103140000023C94330461A4601F08001FFF7DCFE38
:103150000028BED1A9E701463046FFF731F98021AA
:103160003046FFF72DF9B4E7904208D01A460748D9
:10317000019304F035F88021044A019BD2E78021B5
:103180000022CFE70A46CDE7701700203017002055
:103190002DE9F0410446FFF7D5F908B9BDE8F08103
:1031A000FFF7D8F907460028F8D1C822134B02FBD5
:1031B0000436F1780029F1D006F11005284600F018
:1031C000E1FD3F28EAD93846F178FFF779FE00287B
:1031D000E4D0284600F0D6FD3F2809D9084A3846F1
:1031E000F17802EBC4124023BDE8F041FFF78CBE3A
:1031F0003846F178BDE8F041FFF774BE6812002050
:10320000AC16002010B50446FFF79CF908B9002061
:1032100010BDFFF79FF90028F9D1C822034B02FB2C
:103220000433187900F0010010BD00BF68120020BF
:10323000C82108B5102301FB0030024A104400F0F9
:1032400087FD08BD681200202DE9F8434FF6FF7393
:103250004FF0C80810249A4228BF1A4618FB0044B1
:103260001A4F06463C44204692B200F0E7FD054660
:10327000FFF768F910B92846BDE8F883FFF76AF947
:1032800081460028F7D108FB0677FB78002BF2D0A7
:10329000204600F077FD3F28EDD94846F978FFF742
:1032A0000FFE0028E7D0204600F06CFD3F2808D92B
:1032B000074A48464023F97802EBC612FFF724FE7E
:1032C000D9E74846F978FFF70DFED4E768120020E9
:1032D000AC1600202DE9F0410546FFF733F910B98F
:1032E0000020BDE8F081FFF735F906460028F7D148
:1032F0004FF0C808242418FB0544174F3C442046CF
:1033000000F026FD0028EBD008FB05773046B978A1
:10331000FFF7D6FD0028E3D04022104B204602EBF9
:10332000C5141C44214600F089FD054680B10346C2
:1033300022463046B978FFF7E7FD38B94FF0E02371
:10334000D3F8F03DDB07CBD500BEC9E72846C8E778
:10335000B978FFF7C7FDC3E768120020AC1600205C
:1033600038B54FF6FF734FF0240CC8249A4228BF9B
:103370001A4614FB00C40A4B92B21C440546204670
:1033800000F018FE034620461C4600F0E1FC3F28F2
:1033900001D8204638BD2846FFF79CFF204638BD9F
:1033A00068120020C82108B5242301FB0030024A1E
:1033B000104400F0E7FC08BD68120020F0B5194C7D
:1033C00083B0C8220021204603F0B8FE0025FF2369
:1033D0004FF4E1310822144804F1B8070570009554
:1033E00004F110006371A160A27304F1380101239C
:1033F000402200F07DFC0123402204F1780100937B
:1034000004F1240000F074FC04F1C0063846FDF716
:10341000C7FA3046FDF7C4FAC4E90757C4E90C659A
:1034200003B0F0BD681200202C170020094B196B67
:1034300049B11A6A12B10022C3E907220022C3E986
:103440000C22012070471A6A002AFAD00120C3E931
:103450000711704768120020002210B50E4C0F486B
:10346000237802600271DA0707D59B070BD5BDE808
:10347000104001210A4800F065BE103000F046FE01
:1034800023789B07F3D4064800F040FEBDE81040C7
:103490000121034800F056BE2C17002068120020BE
:1034A0008C120020F0B54B7983B0022B03D000259D
:1034B000284603B0F0BD8B79022BF8D1264FBB789C
:1034C0003BB14FF0E023D3F8F03DDB07EFD500BE72
:1034D000EDE78B7806463B700B780925CC186178B0
:1034E00024290BD1082A02D80FE0AA420DD3237851
:1034F0001C4461782B4424299DB2F6D005290AD0BA
:10350000042902D163790A2B13D00020FFF740FE73
:10351000284603B0F0BD21463046FFF7AFFC002837
:10352000CFD0A3787B7023781C442B4461789DB264
:10353000E6E70A4B277801930133009302233046D4
:103540001A46E119FFF74CFC0028BAD00E3517FADD
:1035500085F5ADB2D9E700BF681200206A120020DD
:10356000137803F06003202B08D170B5264C9388A4
:1035700094F800C09C4503D0002070BD0020704727
:103580005378203B032BF7D8DFE803F027230D0205
:1035900001292ED003291ED11C4BE3B100205188F4
:1035A000AFF3008017E0012923D0032913D15588F8
:1035B000174805F0010686F00101257100F0C2FDF3
:1035C000144B43B131460020C5F34002AFF30080F5
:1035D00001E0012911D0012070BD01290DD003297E
:1035E000F9D10D4B002BF6D000200C49FEF7A8FABC
:1035F000F1E71146FFF7C0FCEDE711460723074A44
:10360000FFF7D4FCE7E700BF6812002000000000CD
:103610008C12002000000000411B001070120020DE
:103620002DE9F047364F0C46FA7806468A421D4689
:1036300097F802C03CD08C4513D04FF0E023D3F86C
:10364000F03DDB0700D500BE0020BDE8F0872D4B24
:1036500023B12D4800F08CFB00284ED00020FFF74E
:1036600097FDBB78A34202D00120BDE8F087274B2D
:1036700013B10020AFF300800020FFF72BFE0028DD
:10368000F2D1234800F064FB0028EDD1002DEBD0EF
:1036900015F03F05E8D13046B978FFF711FC002856
:1036A000E2D02B462A463046B978FFF72DFCDBE7FF
:1036B000DFF864809AB2414607F1100000F07AFC0E
:1036C000144B002BC3D07B79FF2BC0D0002DBED074
:1036D00007F1100908EB050A02E0C245B7D07B7973
:1036E00018F8012B9A42F8D1484600F041FB002817
:1036F000F3D17979AFF30080EFE7AFF30080ADE766
:103700006812002000000000781200200000000075
:103710008C12002000000000AC160020F0B5144C04
:1037200085B04FF413720021204603F007FD4027B7
:1037300000234FF480760F4D04F5A6721946CDE9AB
:103740000257009201961A4604F5947000F0CEF9E3
:10375000002304F128013D44009101221946CDE9DE
:1037600002570196201D00F0C1F905B0F0BD00BF61
:103770004C190020CC18002010B5054C204600F054
:10378000E1F9A4F5927000F0DDF9012010BD00BF51
:10379000741A002038B50025064C04F59870257081
:1037A00000F0B4FC04F10C0000F0B0FC84F82951E6
:1037B000657138BD4C1900202DE9F84F4B79FF2B6E
:1037C00002D00020BDE8F88F394D0E4695F829311A
:1037D0000C78002BF5D16F79002FF2D18B780C4447
:1037E0002B700B79002B3ED0804604EB020B05F5C5
:1037F000987A05F594796378052B09D0A34502D80A
:1038000031E05C452FD223781C446378052BF8D136
:10381000A34528D921464046FFF730FB00283ED07B
:10382000A378DB0923D1504600F070FCA37895F80B
:10383000281185F82931A3884046C3F30A03A3F56C
:103840000073B3FA83F35B0963F3410185F8281130
:10385000494600F0E5F910B32378317901371C446B
:10386000FBB29942C7D8A11B88B2BDE8F88F1148B6
:1038700000F04CFCA37895F804C06B71A3880E4946
:10388000C3F30A03A3F50073B3FA83F35B0963F38D
:10389000410C002085F804C000F08AF9DCE74FF005
:1038A000E023D3F8F03DDB078BD500BE89E700BFEE
:1038B0004C190020581900205019002070B51B4CDD
:1038C000064694F829C11D468C45627904D08A4287
:1038D00018BF002018D070BDB4F8343163B9144B50
:1038E00023B100201349AAB2AFF300803046124939
:1038F00000F096F9012070BDD4F82C11AAB204F59D
:10390000987000F057FBEAE70C4B1BB10020A9B2FE
:10391000AFF3008030460A4900F04AF90028E9D1A7
:103920002A463046064900F00FF9E3E74C1900201B
:1039300000000000CC180020741A002000000000D5
:103940005019002010B582B0B9B101280CD80B78FD
:1039500053B1134C012B235402D0012002B010BDEF
:10396000FEF700FE0028F8D14FF0E023D3F8F03D39
:10397000DB0700D500BE0020F0E70124084601A9BE
:10398000ADF80440FEF7EEFD38B94FF0E023D3F870
:10399000F03DDA07E2D500BEE0E7014B1C70DDE741
:1039A000A4170020F8B5037813F001041AD10378A6
:1039B00005465A07C3F3800701D52046F8BD0E46D9
:1039C0004FF0FF31304603F007FD2B7813F0010470
:1039D0000BD12B785B0709D42B78012443F0040327
:1039E0002B7003E000242046F8BD3C46304603F02F
:1039F000FFFC2046F8BD00BF70B50C4605464FF0F1
:103A0000FF31204603F0E8FC2B78C3F380065B0708
:103A100008D52B7813F0010311BF00262A7863F331
:103A200082022A70204603F0E3FC304670BD00BFDE
:103A3000C378828803F003000228C2F30A021FD071
:103A4000032803D001280AD000207047022914BFA0
:103A500040234FF48063934209D301207047022929
:103A600040F2FF3308BF4FF480639342F6D24FF029
:103A7000E023D3F8F03DDB07E6D500BE0020704719
:103A8000022902D0402AE8D9F1E7B2F5007FE4D05C
:103A9000EDE700BF0A44914226D291F801C0BCF183
:103AA000050F05D091F800C061448A42F5D87047EF
:103AB00000B591F802C00CF07F0E00EB4E0E4FEAFD
:103AC000DC1C0EF80C3091F800C061448A4209D920
:103AD00091F801C0BCF1050FEBD091F800C0614432
:103AE0008A42F5D85DF804FB704700BF2DE9F0412C
:103AF0008E4682B0009390F800C0089EBDF82470F6
:103B00006EF3000C04461546012331463A4600F890
:103B100008CBBDF82C8000F0EBF806B13FB90120CE
:103B20000A9BA4F80280636002B0BDE8F08104F152
:103B30001C063046FCF734FF0DB135460026C4E9BB
:103B40000556ECE701207047F8B50746084640F2F5
:103B5000FF13154610F8082B0C4612F0020F0CBF8D
:103B60003F261E4600F0F4F828B925B12E4202D1B6
:103B70002378DA0701D50020F8BD38466178FFF7D1
:103B80009FF90028F7D0237813F0010307D04FF0F6
:103B9000E023D3F8F03DDB07EDD500BEEBE71A4696
:103BA00038466178FFF7B0F90028F0D0F8BD00BFC3
:103BB00070B501F10805064628460C4600F0C8F825
:103BC00010B12378D80701D5002070BD3046617848
:103BD000FFF776F90028F7D028466288616800F080
:103BE0002DF92378054648B1D9070ED54FF0E023CB
:103BF000D3F8F03DDA07E7D500BEE5E7DB07E3D40D
:103C000030466178FFF76EF9DEE7034662683046BA
:103C10006178FFF779F90028E8D0284670BD00BF29
:103C20008A892DE9F0410B780C4605468AB9DF07F1
:103C300025D44978FFF744F908B322786388D6077A
:103C40003FD54FF0E023D3F8F03DDA0717D500BE9B
:103C500015E003F0020301F10808002B40460CBFF9
:103C600040274FF400774FF6C07618BF4FF47E46DA
:103C700000F088F8874202D82378D80702D50020C0
:103C8000BDE8F08128466178FFF71AF90028F6D0E0
:103C9000404600F077F887421FD823786288D9071A
:103CA000CFD43040904228BF104661780646E0B13C
:103CB000626833462846FFF727F90028C1D030460E
:103CC000DEE761783BB162682846FFF71DF90028FE
:103CD000B7D06088D4E71A46F6E72378DB07CED45E
:103CE00028466178FFF7FEF8C9E70246E1E700BF22
:103CF0002DE9F041B2F5004F9DF8188024D8044614
:103D0000C06817460E461D4618B14FF0FF3103F04C
:103D100063FB206918B14FF0FF3103F05DFB002217
:103D2000C5F30E03E06843EAC83362812660A780CA
:103D3000E380228108B103F05BFB206908B103F046
:103D400057FB0120BDE8F0810020BDE8F08100BFF5
:103D5000038942899BB292B28088934236BFC2EBFC
:103D600040029B1A9B189BB2984228BF1846704786
:103D70000289438990B29BB2C01AB0FA80F0400920
:103D8000704700BF038942899BB2808892B29342F8
:103D900036BFC2EB40029B1A9B189BB2984286BF6B
:103DA000C01A80B20020704738B5044600690D463D
:103DB00018B14FF0FF3103F00FFB2189638989B2FD
:103DC0009BB2A288994236BFC3EB4200C81A401882
:103DD00080B250B3824209D291422CBF891A89180D
:103DE0008BB29A42638103D89B1A9BB29A42FBD949
:103DF000E2882168C2F30E0202FB0311284603F099
:103E0000EFF96189012589B24B1C9BB29942A288C6
:103E10000ED9002302FA05F15B1A9BB22069638177
:103E200008B103F0E5FA284638BD054663899BB220
:103E3000B3EB420F4FEA4201F0DBEDE72DE9F0472B
:103E4000064600698846914618B14FF0FF3103F0ED
:103E5000C3FA338974899BB2A4B2B588A34236BF32
:103E6000C4EB45071F1BFF18BFB2002F4AD0BD424D
:103E700040D3B94528BFB946A5421FFA89F703D8F0
:103E8000641BA4B2A542FBD9B6F806A02B1B31686F
:103E90009BB2CAF30E029F42924602FB041123D941
:103EA00013FB02F31FFA83F94A4640467D1B03F0D9
:103EB00097F9621912FB0AF2316808EB090092B215
:103EC00003F08EF97289B58892B2D3199BB29A42E7
:103ED0001AD96A009B1A9BB23069738108B103F04A
:103EE00087FA3846BDE8F087404607FB02F203F048
:103EF00077F9E7E7AB422CBF5B1B5B199CB22F46FF
:103F00007481B6E773899BB2B3EB450F4FEA450264
:103F1000E2DBDFE7F8B50446C0680E4618B14FF0A3
:103F2000FF3103F059FA2589238961899BB289B24F
:103F3000A2888B4236BFC1EB42015B1A5B189BB271
:103F40009A42ADB208D8E779FF0905D1E06808B117
:103F500003F04EFA3846F8BD954219D32B469B1A0A
:103F60009BB29342FBD2E2882068C2F30E0202FBAE
:103F70000300314603F034F96B1C9BB29D42A288CA
:103F800012D9002351005B1A9BB201272381DDE780
:103F9000E2882068C2F30E0205FB0200314603F0FE
:103FA0001FF90135A288ABB2B3EB420F4FEA4201D1
:103FB000EBDBE8E72DE9F04F164683B0002A4CD042
:103FC0000546C068884618B14FF0FF3103F004FA87
:103FD000EA792F896989D209AB88BFB289B240D109
:103FE0008F4236BFC1EB4301791AC91989B2994290
:103FF00041D2591A89B28E4228BF0E46B5F806A0A2
:1040000007EB0609A6EB030BCAF30E0A1FFA89F9A0
:104010001FFA8BFB9F423C4603D3E41AA4B29C4296
:10402000FBD21B1B28689BB2B3420AFB04004BD394
:1040300041460AFB06F203F0D3F8AA884F454FEA3F
:10404000420302D8B9EB420F03DBA9EB03031FFACB
:1040500083F9E868A5F8089088B9304603B0BDE850
:10406000F08FB5F806A09E42CAF30E0A0DD3002BBE
:104070003FD11E4600E00026E8680028EDD003F09E
:10408000B7F9304603B0BDE8F08F8F4236BFC1EBC1
:1040900043027A1AD21992B258003244A6EB030BAB
:1040A00082421FFA8BFB0ADB01EB03091FFA89F935
:1040B000A9EB0607BFB2B94218D9381A87B206EB86
:1040C00007091FFA89F9A5E713FB0AF35C4414FBFF
:1040D0000AF49AB24146019203F082F8019A2868E4
:1040E00008EB0201A2B203F07BF8A6E7B84291DC2C
:1040F000E3E7F61A01EB03090AFB06880F461E46A2
:104100004FF0000B1FFA89F984E700BF10B5044691
:10411000C06818B14FF0FF3103F05EF9206918B1A3
:104120004FF0FF3103F058F90023E06863812381E9
:1041300008B103F05DF9206908B103F059F90120D5
:1041400010BD00BF38B50446C0680D4618B14FF029
:10415000FF3103F041F9206918B14FF0FF3103F04E
:104160003BF9E379E06865F3C713E37108B103F045
:104170003FF9206908B103F03BF9012038BD00BFC9
:104180000A4B93F90020002A0FDB4FF05041012326
:10419000D1F888019340184207D04FF0E0224FF049
:1041A0008050C1F88C31C2F8040D704751120020C4
:1041B000002300B583B0019300F08EFA019B002B21
:1041C000FCD003B05DF804FB10B502F0D7FA04464A
:1041D00001F022FB28B14FF0E0234FF08052C3F8EA
:1041E000042D2046BDE8104002F05EBB10B504224D
:1041F0004FF0E024002322610520A361FDF78CF835
:104200000721044BA3FB00239B09013B6361216150
:1042100010BD00BFD34D62104FF0E0234FF07F423E
:10422000002130B585B00391C3F81C2DD3F81C3D97
:104230001B0E8DF807309DF807309DF807301A06E1
:104240000CD5039B013303939DF807305B00DBB271
:104250008DF807309DF807301B06F2D4039B082B1E
:1042600040D0039BC3F107031B0203F4E0634FF04C
:1042700050412548254A036012780B689A4233D092
:104280004FF0E02300244FF05045D3F8202D204973
:1042900042F47F02C3F8202D0E20C3F81C4D02F01B
:1042A0005DFD1C490B2002F059FD1B4B2A68FF21C4
:1042B0001A2043F82240FCF7BDFA1A201749FCF7F0
:1042C00095F901211A20FCF74FF900F0FDF9286853
:1042D00001F0D6FB029400F0FFF9029B002BFCD00A
:1042E00005B030BD0023C2E7FFF780FF4FF0E022AA
:1042F000D2F8203D0A4943F07F43C2F8203D0F2009
:1043000002F02CFDBCE700BFFC220220521200206C
:104310000147001099470010F4220220814100104B
:10432000C941001008B500F0D7F9BDE80840FFF713
:1043300073BF00BF4FF0E0234FF08052C3F8042D4D
:10434000BFF34F8FBFF36F8F704700BF836913F8C0
:10435000023C662B00D070474FF0E023D3F8882D45
:1043600042F47002C3F8882DD3F8342F42F0404253
:10437000C3F8342F00F08CB92DE9F04F4FF0113E07
:104380004FF0807440E909E34FF0073340F8044CE4
:10439000164C40F8343C40E903424FF005334FF0EF
:1043A00006324FF0123B40E90F324FF0033A4FF024
:1043B00002394FF001384FF010374FF009364FF007
:1043C00008354FF004346FF0020340E905AB40E9D3
:1043D000078940E90B6740F8305C40F8404C40F8F2
:1043E000443C40F8481DBDE8F08F00BFB1410010CB
:1043F00070B50E20FCF76AF80F20FCF767F8012172
:10440000032002F043FD024601234FF050410024F7
:1044100052B2084E9340084D32700848C1F88C31B2
:10442000C1F884312C7002F00DFDFFF7F5FE204637
:1044300070BD00BF51120020521200202543001011
:10444000EFF305830F2B84BF014A9B5C704700BFCD
:10445000F0E300E0094B1B78FF2B0BD0EFF3058353
:10446000DBB22BB14FF05042106800EB43007047B5
:1044700001F0C6BD4FF0504318687047521200203B
:10448000144B02681B78FF2B06D10023C2E88F3F34
:1044900081F3108820BF704710B5002382B0C2E8B6
:1044A0008F3F81F310884FF0FF34012201680A48E2
:1044B0000094091A0948A0FB01C0000900EB400064
:1044C000A1EBC001064802FA01F1006800F0B0F962
:1044D00002B010BD5212002084170020ABAAAAAA75
:1044E0007823022010B5204B8E461B780268FF2BE4
:1044F00082B02FD04FF0010C1C4BD21A1C4BA3FBE7
:1045000002131B0903EB4303A2EBC3020CFA02F1F3
:1045100040BF00240368C3E88F4F8EF31088EFF389
:104520000583DBB233B9134B186802B0BDE8104005
:1045300000F0D8B90F4B01AA1868019400F006FAF0
:10454000019B2BB14FF0E0234FF08052C3F8042DB4
:1045500002B010BD40BF00230268C2E88F3F81F364
:10456000108802B010BD00BF521200208417002036
:10457000ABAAAAAA78230220F0B5354C064694F8D7
:1045800000C00F46BCF1FF0F14461D4683B04ED04D
:10459000FCF73EFE40F2E733B4EB000C65EB0101A3
:1045A0001CEB030041F10001B0F57A7F71F10003CB
:1045B0001CDA00233268C2E88F3F87F31088254B4E
:1045C0005A6A95420CD94FF0E0234FF08052C3F85D
:1045D000042DBFF34F8FBFF36F8F002003B0F0BDEA
:1045E0009B6AA34230D3012003B0F0BD4FF47A722E
:1045F000002302F001FF0028DBD000233268C2E86C
:104600008F3F87F310880122009031681248091A01
:104610001248A0FB0160000900EB4000A1EBC001C3
:104620000F4802FA01F1006800F002F9C7E7002321
:104630000268C2E88F3F81F310882046294603B004
:10464000BDE8F040FCF76CBD9542BCD00120CBE743
:104650005212002000000B4084170020ABAAAAAA27
:104660007823022008B500F0D5F8014B186008BD8A
:104670007823022001234FF05042034991F90010A2
:104680008B40C2F8803170475112002000000000BA
:104690000BA10CC9126853F82210086806C881F3F0
:1046A0000B88022181F31488203080F30988BFF33E
:1046B0006F8F4FF0000080F311881047AFF3008038
:1046C000000000D03C20002062B661B6BFF34F8FDF
:1046D000BFF36F8F66DF00BFEFF311804FF0100163
:1046E00081F31188BFF34F8FBFF36F8F704700BF07
:1046F00080F31188BFF34F8FBFF36F8F704700BFF8
:10470000EFF309811EF0100F08BF21ED108AEFF3BF
:104710000B82734621E9FC0F55FC084457FC0964E1
:1047200059FC0A8401E9F00319A00CC8106853F879
:10473000203019604FF0100181F31188BFF34F8FC3
:10474000BFF36F8F01F09CF94FF0000080F31188E8
:104750000FA10CC9126853F8221008681838B0E885
:10476000F00345EC004447EC016449EC0284B0E8F6
:10477000FC0F13F0100F08BFB0EC108A82F30B8807
:1047800080F30988184700BFAFF30080AFF30080C3
:10479000000000D03C2000201EF0040F0CBFEFF3FF
:1047A0000880EFF309800149084700004D430010DD
:1047B0002DE9F84307460D4600F10C0901F018F801
:1047C0003B683C692B43A1453B601ED04FF000087D
:1047D00009E036B1D30148BF48EA050801F032FFCD
:1047E0003B68A1450FD020460268646822F07F45EF
:1047F00012F0806F43F0007105EA0306E9D0B5427C
:10480000E8D0A145EFD123EA08033B60BDE8F843B7
:1048100001F0DCBE10B51C2002F0B4FB044620B150
:10482000002340F8043B00F09FF8204610BD00BF75
:104830002DE9F04107461E460D46904600F0D8FF90
:104840003C689EB92C420AD0B8F1000F09D024EA86
:1048500005053D6001F0BAFE2046BDE8F081069BEB
:104860001BBB01F0B3FE2046BDE8F08135EA04032E
:10487000EAD0069B002BF4D0B8F1000118BF01214B
:104880001A46090641F080612943381D01F0A4FA57
:1048900001F09CFEF8B102F039F8830104460BD513
:1048A00024F07F442046BDE8F081B8F1000118BF34
:1048B00001211A460906E7E701F022FC3C686EB9BF
:1048C000254205D0B8F1000F02D024EA05053D606D
:1048D00001F09EFFE4E701F001FCDCE735EA0403A8
:1048E000F6D1EFE72DE9F84307460D4600F10C0934
:1048F00000F07EFF3B683C692B43A1453B601ED026
:104900004FF0000809E036B1D30148BF48EA050876
:1049100001F098FE3B68A1450FD02046026864680C
:1049200022F07F4512F0806F43F0007105EA030624
:10493000E9D0B542E8D0A145EFD123EA08033B60B6
:1049400001F044FE3868BDE8F88300BF8C4600B52E
:10495000864613467146624602485DF804EB02F053
:10496000E5B900BFB14700104FF0FF31002200F160
:104970000803C0E90131C0E903330260704700BF9A
:1049800000230361704700BFD0E9003210B494687F
:104990000133C1E90124616091605DF8044B086155
:1049A0000360704730B40D686B1C10D000F1080331
:1049B0001C465B681A68AA42FAD902684B60013249
:1049C00099608C606160086130BC02607047046966
:1049D0006368F2E70346026910B454684068996856
:1049E0009C428160486008BF5160002110685DF8FA
:1049F000044B013819611060704700BF70B516464E
:104A0000026C0446856B2AB9066801354EB3104620
:104A1000A56370BD8EB9406802F0E2FB6368216C4B
:104A2000A2680B449342636028BF236805F1010527
:104A300028BF63600020A56370BDC06802F0D0FB92
:104A4000226CE36851429B1A2268E360934202D2CF
:104A5000A3680B44E360022E08D001350020A56353
:104A600070BD806801F0DCFAA660D1E7012D38BF87
:104A70000125DFE72DE9F043064685B001F040FB54
:104A800096F845305DB2002D1CDD06F1240708E0E4
:104A9000A26BE36B03969A423DD36B1EDAB25DB212
:104AA00082B1B46C002CF3D1736A5BB1384601F06B
:104AB00031FA0028F1D001F099FA6B1EDAB25DB23A
:104AC000002AEED1FF2386F8453001F0A1FE01F067
:104AD00017FB96F844305CB2002C14DD06F110058B
:104AE00003E0631EDAB25CB26AB133695BB1284697
:104AF00001F010FA0028F4D001F078FA631EDAB25F
:104B00005CB2002AF1D1FF2386F8443005B0BDE83D
:104B1000F04301F07DBE94F84580226CD4F83890C3
:104B20004FFA88F8A2B9236809F101097BB3B8F1FB
:104B3000FF3FC4F838901FD1636A002BADD004F159
:104B4000240001F0E7F90028A7D001F04FFAB4E7FC
:104B500003A9606802F044FB6268216C09F101035B
:104B60000A44A168A3638A4228BF2368626028BF01
:104B70006360B8F1FF3FDFD000F048FE40458CD9BC
:104B800008F101084FFA88F884F8458085E7A068A5
:104B9000019301F045FA019BB8F1FF3FC4F838904A
:104BA000A360814608D1636A9BB9B9F1000F3FF455
:104BB00074AF01F01BFA80E700F028FE4045F4D9FD
:104BC00008F101035BB284F84530B9F1000FF0D170
:104BD00063E704F1240001F09DF900287FF46BAF36
:104BE000B9F1000FE5D158E7F0B5846C83B0A26B42
:104BF000E36B01909A4203D30025284603B0F0BD31
:104C000094F84560226CA76B76B2E2B1606801A9A6
:104C100002F0E6FA6268236C1A44A36862609A4262
:104C200001D32368636000250137731CA76313D188
:104C3000636A002BE1D004F1240001F06BF9002835
:104C400018BF0125D9E72568002DECD1A06801F037
:104C5000E7F9A5600546E7E700F0D8FD8642CCD22B
:104C6000013676B284F84560C7E700BFF8B5C0B337
:104C70001746A1FB002305460E4693BB01FB00F03F
:104C800010F1550F2DD8543002F07CF9044640B392
:104C900056B300F15403C4E90F56236001F030FA13
:104CA0000025FF23216CA56384F8443084F8453047
:104CB000E36B226801FB03F3591A626013440A4450
:104CC000C4E9023204F11000FFF74EFE04F12400A3
:104CD000FFF74AFE01F09CFD84F850702046A56461
:104CE000F8BD00242046F8BD0346D4E72DE9F8437B
:104CF000044690461D460F46FFF7A2FB01F03EFD1D
:104D0000A26BE36B06469A4208D3022D06D000241C
:104D1000304601F0C9FD2046BDE8F883394694F8D5
:104D200045702A4620467FB2D4F83890FFF766FED9
:104D30007B1C08D1A36C7BB1022D1DD1B9F1000FF2
:104D40001AD00124E4E700F061FD8742F9D201376F
:104D50007FB284F84570F4E7636A002BF1D004F168
:104D6000240001F0D7F80028EBD0B8F1000FE8D00C
:104D70000123C8F80030E4E72046FFF735FF00289C
:104D8000DFD0F2E7F0B5044685B00F46019201F09E
:104D9000B7F9A56B002D53D1019BA3B302A801F075
:104DA00019F92E4601F034FD00F022FD01F0A8F9BA
:104DB00094F84430FF2B08BF84F8446094F84530E1
:104DC000FF2B08BF84F8456001F022FD01A902A86D
:104DD00001F082FCE0B901F093F9A36B2BBB01F069
:104DE00017FD019904F1240000F0DCFF2046FFF7D5
:104DF00041FE01F0EBFB00B301F082F9A56BFDB9B8
:104E0000019B002BCED101F003FD002005B0F0BDC9
:104E10002046FFF72FFE01F0D9FB01F071F9A36BDB
:104E2000002BF0D001F0F4FCE6E701F0F1FC2046A5
:104E3000FFF720FE01F0CAFBDEE701F04FF9DBE7E8
:104E4000226C5AB1E168A36811449942E16028BF1D
:104E50002168384628BFE16002F0C2F92369013DAC
:104E6000A56323B901F0D4FC012005B0F0BD04F125
:104E7000100001F04FF80028F4D001F02FF9F1E70D
:104E8000002955D0444B5A68904272D01A6810B429
:104E9000002A2CD0DA6890427BD09A68002A41D050
:104EA0005A69904273D01A69002A42D0DA69904256
:104EB00065D09A69002A42D05A6A904244D01A6A50
:104EC000002A45D0DA6A90425BD09A6A002A44D020
:104ED0005A6B904257D01A6B002A43D0DA6B90423B
:104EE00053D09B6B002B42D05DF8044B7047DA68BF
:104EF00090424ED05A69904249D01A46DC69A0428D
:104F00003DD05C6AA0421FD0DC6AA04239D05C6B05
:104F1000A04238D0DC6BA04237D0C2E900105DF867
:104F2000044B70475A69904231D003F10802E5E71B
:104F30007047DA69904222D003F11002E1E75A6A21
:104F4000904201D0154ADFE7042203EBC202E4E7F6
:104F5000DA6A904215D0124AD9E75A6B904212D0C1
:104F6000104AD7E7DA6B90420FD00F4AD5E70F4AC5
:104F7000D3E7002203EBC202C2E90010704703220C
:104F8000E3E70522E1E70622DFE70722DDE7022269
:104F9000DBE70122D9E700BFB8140020D0140020BD
:104FA000D8140020E0140020E8140020F0140020A1
:104FB00070B504460E46154601F0A2F894F8443048
:104FC000FF2B04BF002384F8443094F84530FF2BB6
:104FD00004BF002384F8453001F01AFCA36B23B111
:104FE0002046BDE87040FFF745BD04F124002A4685
:104FF000314600F041FF2046BDE87040FFF73ABD62
:10500000064C08B5FFF796F92368022B00D8FEE797
:10501000FFF790F92368022BFAD8F8E75820002010
:1050200038B5836B002B02DB836B012B2FDD2C4CFF
:10503000016B236822681B6BD26B0139D50722688C
:1050400048BF03F1FF33926B002A03DB2268926BA7
:10505000012A1DDD4FF0FF35636862681B6BD26B60
:10506000D207626848BF03F1FF33926B002A03DB6B
:105070006268926B012A1ADD4DB94FF050431B68EC
:105080009D4228D054F825309B6B02331AD138BD8D
:10509000144A1568002DDDD19942DBDB426802F02D
:1050A0000102002A0CBF4FF0FF351946D4E70D4A24
:1050B0005268002AE0D18B42DEDC43689B07DBD5D7
:1050C0000125DAE72846FFF7D5FA6FF0010254F818
:1050D00025309A6338BD0122024B43F8252038BDA4
:1050E0003C200020F82302204FF050411B4B0A685F
:1050F00053F8220000282CD053F82200013843F83E
:1051000022000A6853F822301BBB10B51449154B16
:1051100053F822400B78013BDBB20B702BB91248DD
:1051200000F81230114AC2E88F3F4FF050424B78DE
:105130001068013BDBB24B7033B90B4A0C4902EBF0
:1051400040025370C1E88F3F0020FFF7D1FA0CB93D
:1051500010BD7047BDE81040FFF7ECB8F422022004
:10516000F0220220F8230220EC22022092170020D5
:10517000931700202DE9F8439600804630460D46EF
:10518000994601F0FFFE002800F0888007467C2049
:1051900001F0F8FE044600287DD07C22002101F0B9
:1051A000CDFF3246A5213846676301F0C7FF636B28
:1051B000043E1E4426F00706002D3ED02B7884F8CE
:1051C0004030002B36D06B7884F8413093B3AB7805
:1051D00084F8423073B3EB7884F8433053B32B79BF
:1051E00084F8443033B36B7984F8453013B3AB792A
:1051F00084F84630F3B1EB7984F84730D3B12B7A99
:1052000084F84830B3B16B7A84F8493093B1AB7A03
:1052100084F84A3073B1EB7A84F84B3053B12B7B6E
:1052200084F84C3033B16B7B84F84D3013B1AB7BD9
:1052300084F84E30002384F84F30089D04F10800B4
:105240001F2D28BF1F252563A565FFF799FBC5F115
:10525000200504F11C00FFF793FB4B464246304605
:10526000616BE5616461A462FFF786F84FF0FF327D
:105270000C4B20609845A26308D00B4B984505D095
:10528000099B03B11C602046BDE8F883E36B43F043
:105290000103E363F4E7384601F0FEFE00242046F4
:1052A000BDE8F88399560010015000104FF05042AD
:1052B000504B12682DE9F047DFF844914E4CDFF86F
:1052C000448153F822604D4D40E0DFF83CA10020BE
:1052D000FFF70EFAFFF700FA4FF050431B68DAE8C9
:1052E000CF2F0121002A01D1CAE8421FBFF35F8FEF
:1052F000002A50D15B000122434462705A704FF083
:1053000050431A68D5E8CF3F0121002B01D1C5E8F1
:10531000431FBFF35F8F73B118F81230002B4BD1CE
:10532000D5E8CF1F01230029FAD1C5E8413F002964
:10533000F6D1BFF35F8F0123237008F812304FF0CE
:1053400050431A6849F82270002F40D0B36B0233E3
:105350004ED14FF050410A6859F822706FB10023C6
:1053600049F8223023780A68013BDBB2237023B965
:1053700008F81230C5E88F3F0A686378013BDBB25A
:105380006370002BA1D108EB4202DFF87CA05370C0
:10539000CAE88F3F9BE708EB430252785B0012BBE1
:1053A000DAE8CF1F01220029FAD1CAE8412F0029EB
:1053B000F6D1BFF35F8F9EE723780133DBB2237012
:1053C0004FF050431A6849F82270002FBED11A6876
:1053D0002378013BDBB22370002BB7D108F81270A1
:1053E000C5E88F7F6FE763780133DBB2637086E7D0
:1053F000BDE8F0873C200020F02202209217002018
:10540000F4220220EC22022093170020F8B5FFF7C7
:1054100063F94FF050420646354B1268D3E8CF1F70
:105420000120002901D1C3E8410FBFF35F8F314D47
:1054300000293ED1510001232F4C294463704B7049
:105440002E4F3B68002B45D04FF050432C4A196833
:10545000D2E8CF3F0120002B01D1C2E8430FBFF3B8
:105460005F8F73B115F81130002B3CD1D2E8CF0F0C
:1054700001230028FAD1C2E8403F0028F6D1BFF34B
:105480005F8F0123237005F811304FF050413B68C6
:1054900001333B6023780968013BDBB223701BB901
:1054A00005F81130C2E88F3F3046BDE8F840FFF7FD
:1054B0001FB9510005EB4202527872B9D3E8CF0F01
:1054C00001220028FAD1C3E8402F0028F6D1BFF30B
:1054D0005F8FB0E7FFF7EAFEB6E7074C637801336A
:1054E000DBB26370ACE723780133DBB22370CCE727
:1054F00093170020EC220220F02202201C2302201D
:10550000921700202DE9F843594C5A4E5A4FDFF8B4
:105510008091DFF880812368002B37D0FFF7DCF81B
:10552000336893B14FF050431B6857F82320002A8B
:105530003BD04FF0504157F82320013247F8232049
:105540000B6857F82330012B28D0236803B34B4B4B
:10555000DB68DD68AB6B013340F0838005F1080048
:10556000FFF738FA464A1368013B13602368013B92
:10557000236033680BB1FFF7B7FD686B01F08CFD5A
:10558000284601F089FD2368002BC7D1BDE8F883C8
:105590003368002BBFD0FFF7A7FDBCE7D9F8003078
:1055A000002BD2D1FFF782FECFE7D8E8CF2F012121
:1055B000002A01D1C8E8421FBFF35F8F002A32D111
:1055C000304A590001233048114443704B704FF06A
:1055D00050452E4B2968D3E8CFCF5FF0010EBCF1C8
:1055E000000F01D1C3E84CEFBFF35F8FBCF1000F98
:1055F00011D012F811C0BCF1000F26D1D3E8CFCFE3
:105600000125BCF1000FF9D1C3E84C5FBCF1000FDC
:10561000F4D1BFF35F8F01234FF05045037002F8C0
:1056200011302B6885E7174A590002EB43035B787A
:105630008BB9D8E8CF0F01230028FAD1C8E8403F42
:105640000028F6D1BFF35F8FBCE703780133DBB2EC
:1056500003702B686DE70C4843780133DBB243706D
:10566000B5E73368002B91D0BDE8F843FFF73CBDA8
:1056700018230220B8230220F4220220D82302207B
:1056800014230220EC220220F02202209217002094
:105690001C2302209317002008B5FEF74BFE044C94
:1056A000FFF730FF2368022BFAD9FEF743FEF7E736
:1056B000582000202DE9F84F4FF05045464A474BFF
:1056C000474C0F46D4F800A0464ED2F8008004465E
:1056D000D3F80090FFF700F82B6856F823B0FFF7D7
:1056E00007F800238BF87930FEF7F6FF2B6856F8A1
:1056F00023B0FEF7FDFF0BF10800FFF76BF9631C09
:1057000000D18FBB4FF050451AEB04042CBF01278A
:105710000027FEF7E1FF2B6856F823A0FEF7E8FF0D
:10572000CAF8084097B9FEF7D7FF2B6856F8235000
:10573000FEF7DEFF404605F10801FFF733F92A4B7B
:105740001A68A24288BF1C60BDE8F88FFEF7C4FF4C
:105750002B6856F82340FEF7CBFF484604F10801BA
:10576000BDE8F84FFFF71EB9204C6768FEF7B4FF9D
:105770002B6856F82380FEF7BBFFC8F80C70FEF7C5
:10578000ABFF2B6856F82380FEF7B2FFBB68C8F862
:105790001030FEF7A1FF2B6856F82380FEF7A8FF14
:1057A000BA6808F108035360FEF796FF2B6856F8B5
:1057B0002380FEF79DFF08F10803BB60FEF78CFF16
:1057C0002B6856F82350FEF793FF2368AC61013332
:1057D0002360BDE8F88F00BF482000205020002043
:1057E000EC2302203C20002090230220C42302202E
:1057F000024B1B6803B97047FFF708BEB8230220AD
:10580000014B1868704700BFEC230220014B186859
:10581000704700BF142302208E4B2DE9F0471B6810
:10582000002B49D18C4B1D6801351D60002D4BD0DC
:10583000DFF84882D8F80030AB425ED9874C884DFB
:105840002B681B6B03EB830354F82330012B40F2CE
:10585000B3806B681B6B03EB830354F82330012B7D
:1058600040F2CF804FF050431C68002C00F0ED80D8
:1058700001262B689B6B023306D00020FEF7FAFE50
:105880006FF001022B689A63002E00F0CE80012C8D
:1058900017D04FF050431B68012B00F0CE8000243E
:1058A0006B689B6B02330CD00120FEF7E3FE6FF0B8
:1058B00001026B689A6304E000246A4A13680133AA
:1058C00013602046BDE8F087674B684A1868116886
:1058D0001960674910600A6801320A601A68126824
:1058E000002A40F086804FF0FF33DFF89081C8F83F
:1058F0000030D8F80030AB42A0D8DFF86C91D9F86E
:1059000000301B68002B00F092800026534C594F4A
:1059100044E09969D3E9032AC2F808A0CAF8042030
:105920004A68184662450A6808BFC1F804A0013AEF
:105930009E610A60D96A71B1D3E9082AC2F808A049
:10594000CAF804204A6872450A6808BFC1F804A072
:10595000013ADE620A601A6BD7F800E002EB8201BE
:10596000724504EB810E88BF3A60DEF80420D2F85D
:1059700008A0DA60C3F810A0CAF804C0C2F808C0D2
:1059800054F82120C3F818E0013244F82120FFF731
:1059900047FBD9F800301B68002B49D0D9F80030FC
:1059A000DB68DB689A6803F1080C954203F11C0E72
:1059B000AFD2C8F8002042E76B681B6B03EB830390
:1059C00054F82330012B24D94FF050422A4B14684D
:1059D0001B68002B3FF45BAF0126002C7FF449AF1E
:1059E000002E34D1244B01245B68002B7FF458AF88
:1059F00067E71B68DFF88480DB681B68C8F8003045
:105A000018E74FF050431C680026002C7FF431AF9C
:105A1000E6E74FF05041184B0C681A6882B95B6892
:105A2000002B7FF434AF00244BE7134BF7E70B4C0C
:105A30004FF0FF33C8F8003001E70F4A5360F2E738
:105A40000026002C7FF415AFCAE7012428E734466E
:105A500026E700BF1C230220EC2302205820002050
:105A60003C200020A02302204820002050200020BD
:105A70009423022024230220F823022090230220D2
:105A80004FF050432DE9F04F1B680446DFF82082A9
:105A900083B0D8E8CF2F0121002A01D1C8E8421FE6
:105AA000BFF35F8F002A4DD17C4A590001237C4F00
:105AB00011447B704B704FF05043DFF8F891196838
:105AC000D9E8CF3F0120002B01D1C9E8430FBFF334
:105AD0005F8F7BB112F81130002B40F0BE80D9E807
