S01A000066696E616C5F746573745F6C65645F756172742E73333702
S113000000100020510400005B2A00005B2A00005D
S11300105B2A00005B2A00005B2A00005B2A0000C8
S11300205B2A00005B2A00005B2A00005B2A0000B8
S11300305B2A00005B2A00005B2A00005B2A0000A8
S11300405B2A00005B2A00005B2A00005B2A000098
S11300505B2A00005B2A00005B2A00005B2A000088
S11300605B2A00005B2A00005B2A00005B2A000078
S1130070B92500005B2A00005B2A00005B2A00000F
S11300805B2A00005B2A00005B2A00005B2A000058
S11300905B2A0000910700005B2A00005B2A000035
S11300A05B2A0000910800006D0800005B2A000034
S11300B05B2A00005B2A00005B2A00005B2A000028
S11300C05B2A00005B2A00005B2A00005B2A000018
S11300D05B2A00005B2A00005B2A00005B2A000008
S11300E05B2A00005B2A00005B2A00005B2A0000F8
S11300F05B2A00005B2A00005B2A00005B2A0000E8
S11301005B2A00005B2A00005B2A00005B2A0000D7
S11301105B2A00005B2A00005B2A00005B2A0000C7
S11301205B2A00005B2A00005B2A00005B2A0000B7
S11301305B2A00005B2A00005B2A00005B2A0000A7
S11301400348044B834202D0034B03B11847704762
S1130150501100205011002000000000064B0749F8
S1130160C91A891048BF0131491003D0044B0BB19F
S113017001481847704700BF50110020501100205B
S11301800000000010B5064C237843B9FFF7D8FFF0
S1130190044B13B10448AFF300800123237010BD56
S11301A066150020000000008C30000008B5054BE7
S11301B01BB105490548AFF30080BDE80840FFF7CF
S11301C0CDBF00BF00000000501100208C300000A3
S11301D0A3F5803A704700BF174B002B08BF134BA1
S11301E09D46FFF7F5FF00218B460F461348144A3E
S11301F0121A02F035FD0E4B002B00D098470D4B20
S1130200002B00D098470020002104000D000D4869
S1130210002802D00C48AFF3008002F089FB2000D4
S1130220290002F0A9FB02F071FB00BF00000800E6
S11302300000000000000000001000205011002009
S11302407015002000000000000000001022014B87
S11302501A61704700E0035008B501213A2000F00C
S1130260D7FD002304221846114601F079FDFFF75B
S1130270EDFF1022054B64201A6102F03DF8FFF7F0
S1130280E5FFBDE80840642002F036B800D0035012
S113029008B51022064B4FF4FA701A6102F02CF8DC
S11302A0FFF7D4FFBDE808404FF4FA7002F024B819
S11302B000D0035010B5234C00F064FF01F052F954
S11302C0236F23F0070343F00303236702F015FCB5
S11302D01D4B00209B6A9B075EBF01221B4B9A6249
S11302E0D4F8203123F0030343F00203C4F820318F
S11302F0D4F8243123F0070343F00203C4F8243173
S1130300D4F8403123F0030343F00203C4F840312E
S1130310D4F8603123F0030343F00203C4F86031DE
S1130320D4F8403223F0030343F00203C4F840320C
S1130330D4F8003223F0070343F00203C4F8003278
S113034010BD00BF0080005000C0005000E000500D
S113035008B501F009FE01280ED1104B04205A6E95
S11303604FF480230E49520358BF0E4A4B6601F5E1
S11303701041086258BF536601F06EFE02F02DFB77
S113038001F0FAFD01F052FE01F018FEFFF792FFB2
S113039001F002FEBDE8084002F016BB00800050E8
S11303A00090005000A0005018B1034B18600020CA
S11303B070472520704700BF6811002010B5054C18
S11303C00549206800F08CFA2068BDE81040FFF76A
S11303D0EBBF00BF2C11002000100020014B186857
S11303E0704700BF6811002013B5082002F04AFBD3
S11303F0FFF7F4FF0123009390F836300C4C022BE6
S1130400206013D1006801F011FC236820F07F40C4
S113041093F8353040EA83700190684602F0E1FABF
S1130420082002B0BDE8104002F037BB0020ECE722
S1130430CC1100200348044A0449121A921002F015
S11304400DBB00BFF0310000F0310000701500203A
S113045008B500F02FF8FFF7EDFF124B12498B425D
S113046012D30020114B12498B4218D3FFF7B4FE6C
S1130470186850F82240586840F8224001329868C1
S11304808242F5D30C33EAE70022F8E71C6844F80B
S1130490220001325C68A242F8D30833E4E7002268
S11304A0F8E700BF94300000A0300000A030000046
S11304B0A030000010B54FF400414FF0FF30124B54
S11304C0124A9A60D3F8882042F47002C3F8882054
S11304D00F4A916601F1884101F5005210664FF60A
S11304E0DF7050660220C3F8D000BFF34F8FBFF314
S11304F06F8F08244FF440330648C0F88041D3601E
S113050004600B6110BD00BF00ED00E000000000BE
S11305100090005000E100E0014B1868704700BFF4
S113052034110020084B1B6F03F00703022B04D087
S1130530032B05D0012B05D0FEE7044B1868704748
S1130540034BFBE703487047008000503411002040
S11305503C110020002D310108B5FFF7E3FF054BE6
S11305601B6FC3F303330133B0FBF3F0024B18608A
S113057008BD00BF008000503011002000487047C3
S113058000B4C404014B1868704700BF3C1100203C
S1130590054B1860054B1B6F03F00703032B01D1B8
S11305A0FFF7DABF704700BF3C1100200080005005
S11305B000487047002D3101014B1868704700BF97
S11305C03811002008B501213A2000F021FC032154
S11305D001230422002001F0C3FB002002F0E4FA0E
S11305E00122214B4FF46070C3F8442400F03AFC1C
S11305F01E4B00F5D520D3F8F02000F2FC4042F069
S11306000102C3F8F020D3F8FC2042F08072C3F852
S1130610FC20174AA3F55D431A60164B0222B0FB77
S1130620F3F0154B01381861C3F8F0204FF48072D1
S1130630C3F804234FF06043104A0020C3F8B02FDE
S11306400F4AC3F8802ED3F8002E42F48072C3F808
S1130650002EFF2283F82020D3F8002E22F480728B
S1130660C3F8002E08BD00BF00D0035000ED00E029
S1130670FF030040F8590D00000004E055CEACC55E
S11306800900010030B54FF06043D3F8802ED20743
S113069015D501240B4D8440D5F8FC2042F080721E
S11306A0C5F8FC20D3F8002E2243C3F8002E53F8DB
S11306B02020002AF0D003F82010002030BD1120A3
S11306C0FCE700BF00ED00E038B5124B05461B788F
S11306D0DBB1E0B102F02DFA0F4A00231146147B7E
S11306E054B92B6001251A0101EB03131D738C50BF
S11306F002F025FA204638BD0133082B02F110021E
S1130700EDD102F01CFA0548F5E70548F3E7054882
S1130710F1E700BF67150020D0120020048000F02C
S1130720028000F0018000F013B5154B1868002317
S113073001908DF8043002F0FCF9124B1C7824B1BE
S113074002F0FDF9104802B010BD01221A7002F047
S1130750F6F90E4B01A81C731C7783F82C4083F820
S11307603C4083F84C4083F85C4083F86C4083F849
S11307707C4008238DF8073001F03AFB2046E2E77D
S1130780C02C000067150020038000F0D012002068
S11307902DE9F041174B1F6D5B6D1F4000D5FEE73F
S11307A001260025144CDFF85880374218D02368FE
S11307B0C8F85060A3B1A168284601316268A160FD
S11307C09847637B012B0BD150B90C4B03EB4513BA
S11307D01A7B60F341021A731A7F60F341021A779D
S11307E00135082D4FEA460604F11004DDD1BDE8B9
S11307F0F08100BF00000450D0120020D01100206E
S11308000020045070B5012504460B4E04B970BD98
S113081094FAA4F0B0FA80F005FA00F306EB0012A3
S113082024EA03045368002BF0D0117B11B19168C2
S11308309847EBE79847E9E75013002008B51920DB
S113084000F0B2FE28B14FF00072074BC3F88021CC
S11308501A601A2000F0A8FE28B14FF08062024B03
S1130860C3F880211A6008BD00E100E0074BD3F80B
S11308702404D3F8202403F50053104000F055302D
S113088020F05020C3F82004FFF7BCBF00C0035081
S1130890074BD3F82404D3F8202403F50053104065
S11308A000F0AA3020F0A020C3F82004FFF7AABF6C
S11308B000C0035010B50446FFF736FF002104F1D1
S11308C00800FFF701FF014608B1044810BD04F118
S11308D00C00FFF7F9FE0028F8D0F6E70E7000F0E0
S11308E0F0B58FB00446614F06AE0D460FCF0FC66C
S11308F097E80F0086E80F0018220021684602F0EE
S1130900AFF9002C00F0B0801DB9594C20460FB04F
S1130910F0BD60220021204602F0A2F902232A68D9
S113092084F8363022602B7C5249237100238A429A
S113093084F83530E9D1382262624FF480124E488F
S113094084F83130C4E90402D5E9091284F830305E
S1130950A1623A200B804B808B8084F83030E262B5
S1130960012113805380938084F8313084F833302C
S113097000F04EFA0121606A00F04AFA2B79012155
S11309803E4E002B62D0352000F042FA01214FF494
S1130990C06000F03DFAD6F8403123F0030343F081
S11309A00103C6F84031D6F8203223F0030343F0A4
S11309B00203C6F820320226314BC3F8C060A87B7C
S11309C02F7B47EA0042C3F8D020697BEA7B41EAE7
S11309D0024CC3F8CCC02177E07784F82020E77676
S11309E06B7F20466377AB7F84F82130EB7FA3775E
S11309F095F8203084F8223002F05BF8AB688DF86B
S1130A00256008936B8ACDF834D0ADF82830AB8AD2
S1130A10ADF82630AB7D8DF82430AB690B93012300
S1130A20ADF8063002F085F806238DF818302B79DE
S1130A30064606A92868A3B101F076F82046FFF718
S1130A4039FF0446304602F07AF85FE74FF48060DD
S1130A5000F0DEF9D6F8203223F0030343F001035B
S1130A60A7E701F0BBF8E9E7064C4FE7E02C0000EC
S1130A70037000F00000035A0100100000800050D1
S1130A8000C40350027000F0044BD3F88420D20653
S1130A90FBD4D3F88400C0F38110704700400050A9
S1130AA038B5104B0546D3F820310C4603F0030348
S1130AB0022B0BD0032B0DD0012B0FD1FFF72CFDF4
S1130AC0052305B1286004B1236038BDFFF75AFD42
S1130AD00323F6E7FFF76CFD0223F2E7012300206E
S1130AE0EFE700BF00800050F7B50027114B0197D6
S1130AF0D3F88041064604F00304012C0D4608D0C7
S1130B00022C12D041F2B1310B4801F0BAFF3C463D
S1130B1004E0394601A8FFF7C3FF0F240EB1019B7F
S1130B20336005B12C6003B0F0BDFFF741FD0190C7
S1130B30F4E700BF00800050002D000038B51A4BC8
S1130B400546D3F824010C4600F00700062821D8F6
S1130B50DFE800F0280410181C0C1400FFF7DCFC7C
S1130B60052305B1286004B1236038BDFFF7D4FC28
S1130B700623F6E7FFF706FD0323F2E7FFF702FD7E
S1130B800423EEE7FFF714FD0223EAE701F071FF07
S1130B900723E6E7054840F6A87101F072FF002339
S1130BA01846DEE70123DCE700800050002D00003A
S1130BB038B5104B0546D3F840310C4603F0030317
S1130BC0022B0BD0032B0DD0012B0FD101F053FFBF
S1130BD0092305B1286004B1236038BDFFF7ECFC9C
S1130BE00823F6E701F04AFF0B23F2E70123002074
S1130BF0EFE700BF0080005038B5164B0546D3F828
S1130C0000020C4600F00700042819D8DFE800F0C1
S1130C1020030B0F130001F02EFF092305B12860F8
S1130C2004B1236038BDFFF7C7FC0823F6E701F0E1
S1130C3025FF0B23F2E7FFF78FFC0E23800AEDE775
S1130C40054841F26F4101F01CFF00231846E5E717
S1130C500123E3E700800050002D000038B5124B5B
S1130C600546D3F840320C4603F00303022B0BD0A5
S1130C70032B0DD0012B0FD101F0FDFE092305B18B
S1130C80286004B1236038BDFFF796FC0823F6E71B
S1130C9001F0F4FE0B23F2E7044841F2FA3101F0CB
S1130CA0F0FE00231846EAE700800050002D000003
S1130CB038B5104B0546D3F860310C4603F00303F6
S1130CC0022B0BD0032B0DD0012B0FD101F0D3FE3F
S1130CD0092305B1286004B1236038BDFFF76CFC1B
S1130CE00823F6E701F0CAFE0B23F2E701230020F4
S1130CF0EFE700BF0080005010B40F4C0B46D4F84F
S1130D00204204F00304012C0ED0022C10D008B1B0
S1130D10002101600BB100221A6040F6D27107482D
S1130D205DF8044B01F0ADBE5DF8044BFFF7B8BEAF
S1130D305DF8044BFFF73CBF00800050002D00001D
S1130D4010B5B0F5207F34D009D8B0F5007F2AD093
S1130D5003D898B1B0F5C07F10D0002421E0B0F5DD
S1130D60607FFAD1154BD3F88030C3F301149B068E
S1130D7017D5032C15D040F295210FE00F4B1C6FB3
S1130D80230B13F00E0FC4F303340AD0072C08D03E
S1130D900F2C06D0032C04D040F28521084801F022
S1130DA070FE601C10BD054BD3F89040C4F304647E
S1130DB0F7E7024B1C6FC4F38024F2E70080005075
S1130DC0002D000010B54FF400320E4B04469A6615
S1130DD00020FFF7B5FF604341F671320A4C0B4B1C
S1130DE0A04294BF00200120D969DA639A6822F4F2
S1130DF0401242EA00529A60CA0344BF0022DA63F6
S1130E0010BD00BF00900050005A62020000035061
S1130E1070B5460904460D460ED140F22F310D48F7
S1130E2001F02FFE334604F01F047DB103F5805317
S1130E300122A2401A6070BD012E05D0064B074A5C
S1130E40022E18BF1346EEE7054BECE703F50053FB
S1130E50EEE700BF002D0000688000506082005063
S1130E606480005030B585B0002380280446019387
S1130E7074D02AD8002877D0A0F12004412C32D88D
S1130E80412C30D8DFE804F0707370738888888848
S1130E907373923FA8653F7373732F2F2F2F2F2FD8
S1130EA08D57737373B2AD732F2F2F2F2F2F2F2FB7
S1130EB02F2F2F2F2F702F707070882F2F2F2F2FE1
S1130EC02F2F2F2F2F2F2F2F7070B0F5806F63D0FF
S1130ED024D8B0F5007F55D00BD8B0F5807F6AD008
S1130EE0B0F5C07F40D040F29441434801F0C9FDC1
S1130EF037E0B0F5607F45D0F5D8B0F5207F36D027
S1130F00B0F5407FEFD1FFF727FB04464FF4207084
S1130F10FFF716FFB4FBF0F4640831E0B0F5C06FDE
S1130F205AD00DD8B0F5A06F3BD0B0F5B06F3DD01E
S1130F30B0F5906FD7D1002101A8FFF7FFFD10E0B5
S1130F40B0F5E06F4DD0B0F5F06F4FD0B0F5D06F85
S1130F50C9D1002101A8FFF74FFE02E0FFF7E2FA32
S1130F600190019805B030BDFFF7F6FAF8E7FFF7F6
S1130F70F3FA04464FF42070FFF7E2FEB4FBF0F4FA
S1130F800194EEE7FFF7CEFA05462046FFF7D8FEB8
S1130F90B5FBF0F50195E4E7002101A8FFF780FD1A
S1130FA0DFE7002101A8FFF7A7FEDAE7002101A887
S1130FB0FFF79AFDD5E702934FF0E0231B695B0727
S1130FC005D5FFF7C9FA0290029B0193C9E703A96B
S1130FD002A8FFF7EDFDF7E7002101A8FFF7E8FD00
S1130FE0BFE7002101A8FFF739FEBAE7002101A8F5
S1130FF0FFF75EFEB5E700BF002D000008B58020B6
S1131000FFF730FF034B98429EBF4FF48032024BF0
S11310101A6708BD005A620200A000501FB50023E1
S1131020B0F5807F01937FD027D8382800F09C80CA
S11310300BD82438092810D809280ED8DFE800F086
S11310406F6F6F6F0D0D670D3685522867D007D807
S11310503D283AD03E2800F08C8040F2795152E08D
S11310608028FAD1454B1B6F03F00703013B032B88
S113107047D8DFE803F044413F75B0F5D06F64D042
S113108019D8B0F5A06F6FD00AD8B0F5806F46D0EC
S1131090B0F5906FE1D1002001A9FFF74FFD3AE0D0
S11310A0B0F5B06F33D0B0F5C06FD6D1002001A930
S11310B0FFF77EFD2FE0B0F5006FECD00AD8B0F555
S11310C0E06F56D0B0F5F06FC7D1002001A9FFF74B
S11310D0EFFD20E0B0F5086FBFD1284BD3F8003105
S11310E003F00303022B35D0032B37D0012B39D166
S11310F0FFF748FA032300E0052301930BE00223E2
S1131100FBE740F2C6411E4801F0BBFC03E00020AF
S113111001A9FFF7E9FC019805B05DF804FB002084
S113112001A9FFF7BDFCF6E702934FF0E0231B692A
S11311305B0705D5FFF710FA0C230393039BDCE749
S113114003A902A8FFF734FDF8E7002001A9FFF77F
S113115053FDE0E7FFF730FA0823CEE701F089FCFE
S11311600723CAE70123C8E7002001A9FFF7C4FD4C
S1131170D1E7002001A9FFF771FDCCE70080005002
S1131180002D00004FF40022034B5A66012203F5A0
S113119080439A62704700BF00900050F8B503681E
S11311A004460F2B04D940F66D316C4801F069FCFC
S11311B063680F2B04D94FF43761684801F061FC70
S11311C0A3680F2B04D940F67331644801F059FC2D
S11311D0237B0F2B04D940F67631604801F051FC93
S11311E0637B0F2B04D940F679315C4801F049FC4C
S11311F0A37B3F2B04D940F67C31584801F041FCD5
S1131200E37B3F2B04D940F67F31544801F039FC8D
S11312102369032B04D940F68231504801F031FC94
S11312206369032B04D940F685314C4801F029FC4D
S1131230E369012B04D940F68831484801F021FCC8
S11312408020FFF7EBFE032800F087804FF4002294
S1131250434B02215A6645F60E03424AC2F88030D7
S1131260414B9962012103F580539962936DD9032F
S1131270FCD4D4E900131B0543EA0163E17B94F831
S113128020500B43217BE77E43EA0143617B6D01E0
S113129043EA0133A17B43EA811313619169D4E9E1
S11312A004031B0643EA806301F000410B43A17E63
S11312B094F823000B43217E43EA0143617E43EA11
S11312C001239361136AE66923F00D0394F8221055
S11312D043EA8703002E2DD11362966A94F82130D5
S11312E045EA031326F033052B4343F001039362CD
S11312F01E4D1C4B9A6D35EA0202FBD102221A4D97
S1131300AA621A659A6D5200FCD41A69A56822F47F
S1131310700242EA05521A614FF00042124B9A6180
S113132019B9022203F580539A6278B90122104B4D
S11313309A620BE0334343F008031362936A23F089
S1131340330303432B4343EA4103936294F8243069
S11313501BB1044B074AC3F88020F8BD002D0000E0
S11313600090005000C0005000D000500300014025
S113137000E00050F1A7FFFF014B93F90000704714
S11313806815002010B543680446072B04D940F6BD
S1131390B3512A4801F075FBA368032B04D940F626
S11313A0B551264801F06DFB2378032B04D940F690
S11313B0B751224801F065FB94F90130002B04DA9F
S11313C040F6B9511D4801F05CFB4FF480011C4A02
S11313D0637851664FF4D151022002F5B83251625C
S11313E018494F2B48604FF0010028BF4F2301F5E7
S11313F0805148601169C903FCD4217843EA012370
S11314005361D4E901131B0143EA0123617B0B43BC
S1131410217B43EA41039360E37BA17B1B0143EA05
S11314204113617C0B43217C43EA41035360A37C59
S113143013B16FF4D153536210BD00BF002D0000EF
S11314400090005000100250014B1880704700BFFC
S113145042110020014B1880704700BF401100204A
S113146010B5B0F5207F65D00ED8B0F5007F4FD011
S113147003D800B3B0F5C07F1DD040F21231BDE8EF
S11314801040344801F0FDBAB0F5607FF5D14C1E30
S1131490012C06D9042904D04FF43D712D4801F0E4
S11314A0F0FA2D4AD2F8803023F0300343EA0413D3
S11314B0C2F8803010BD4C1E012C0AD9102903D863
S11314C0264BCB40DB0704D440F2C721214801F06E
S11314D0D8FA01F0FFFA01F00BFB4FF48031204BF6
S11314E01D4A1967136F23F4704343EA04331367E7
S11314F0FFF732F80446FFF7C7FAC0F102012046AD
S113150001F0F0FA00F03EF8BDE81040FFF776BDB8
S11315104C1E1F2C04D940F206310E4801F0B1FADA
S11315200D4AD2F8903023F0F85343EA0463C2F82A
S11315309030BFE74C1E012C04D94FF44371054889
S113154001F09FFA044A136F23F4806343EA84236F
S11315501367AFE7002D0000008000501001010068
S11315600090005008B50121022000F041F801F07C
S1131570B1FA01F0BDFA4FF48032014B1A6708BD8D
S11315800090005008B54FF4C070FFF76BFCBDE845
S113159008400449884294BF012102214FF420707D
S11315A0FFF75EBF80F0FA0210B5C3B23F2B0446CA
S11315B004D94FF44D71074801F063FA064B6209F0
S11315C053F8220004F01F04E040C04300F001007F
S11315D010BD00BF4F2D000000E100E0034A017977
S11315E0D36E23F030030B43D366704700400050A2
S11315F0F8B50446244BD3F88420D006FBD4D3F8A2
S11316008430C3F381139C423CD0FEF78BFF012C42
S113161005460BD11D4B984204D940F2BE711C48BB
S113162001F02FFA0121284601F05CFA01F07AFA60
S11316304FF00072174B07465A66204601F082FAB3
S11316404FF48063104E621E93403367736E9A01A9
S113165003D4D6F884309B060AD5384601F066FADE
S1131660022C0FD12846BDE8F840002101F03ABA17
S1131670D6F884309906E9D540F2CC71044801F0DB
S113168000FAE3E7F8BD00BF00400050005A6202D0
S11316909F2D00000060005010B50C4608B9FEF7FD
S11316A041FF074B21461B783BB1064B984204D8B7
S11316B00120BDE81040FFF79BBF0220F9E700BFFF
S11316C069150020005A620238B54FF00042264BDB
S11316D026495A6601224A604AF6CD3103F50B23A6
S11316E05D6C1964154030BB9968C9070BD400249C
S11316F001221F4B5A6015B11E4B1F4A1A6401F098
S113170022FA204638BD1A498A601C4AD96ACC0795
S113171005D4904201D10724EAE70130F6E790426C
S1131720E5D1F8E70132DC6A14F0080406D08A42F5
S1131730F8D10724DFE700221049F4E78A42F8D001
S113174020220B4B0B495A620122A3F580539A6065
S113175023460A4A486A800603D49342E9D00133F7
S1131760F8E79342C7D1E4E70090005000500950D5
S113177000600950004009503254FFFF40420F00FE
S113178038B54FF00042174B174C5A66012203F547
S11317900C235A604AF6CD33656C23644378934036
S11317A01343124AD363C3788178A2689B0043EA47
S11317B0011322F074021343A3600279837943EA8C
S11317C0022323614279C37943EA022363610078E7
S11317D0FFF77AFFEB0744BF054B236401F0B3F92D
S11317E0012038BD009000500040095000400050D6
S11317F03254FFFF10B5044601F0AAF9002341F268
S113180002020849E360A360226104F50052E36127
S11318106361A36123626362E362A3645164A362AC
S113182010BD00BF7F370C0138B5154B04469842F4
S11318300D4604D04FF4B371124801F022F925B9D2
S11318402046BDE8384001F083B9012204F58053F5
S11318505A6040F2FF71204605F00F0201F074F95E
S11318602263782101F070F905F001036A0748BF8B
S113187043F00203226C02F003029A42FAD138BD0B
S11318800000035AEE2D0000F8B506460C46154636
S113189022B94FF40971434801F0F3F8424B9E42D8
S11318A002D184B938240AE040F227213D4801F0EE
S11318B0E8F844B940F276313A4801F0E2F82046BB
S11318C0FFF7D0FA04467368012B04D040F2592183
S11318D0344801F0D6F8B36803F0E003402B42D05B
S11318E009D893B1202B1AD040F29B21BDE8F840CF
S11318F02C4801F0C6B8602B42D0802BF4D105EB04
S11319004503A34247D801230DE0B5EB141F04D9C6
S113191040F28121234801F0B4F8102303E0B5EB31
S1131920D40F1AD808236B436401B4FBF3F41F4F9C
S1131930203CB7EBC40F4FEAC40504D240F2A62101
S1131940184801F09EF830463D40012101F0FCF8B2
S1131950B562BDE8F84001F0F7B840F286211148BD
S113196001F08FF8DEE70623B4FBF3F3AB4201D3B7
S11319700623D8E740F28B210A4801F082F8F7E702
S1131980B5EB940F01D80423CDE74FF42471054837
S113199001F077F8F7E740F29521024801F071F879
S11319A0B1E700BFEE2D00000000035AF8FF7F00EE
S11319B070B5436804460D4616461BB140F2FF71EC
S11319C001F0C2F82046FFF715FFE9896B7B226915
S11319D00B43298A22F44C520B4322F00302134393
S11319E02361A2682B7B297E22F0804222F0E2024E
S11319F00B4313436A691343A360AB681BB9A36821
S1131A0043F00043A360EB69002B57D0987A1A7A0D
S1131A104004A16840EA82503F4A0A4010439A8831
S1131A2002F4C04210435A7840EA82005A7B40EAEA
S1131A30C2009A7B40EA02109A7840EA8220A060B1
S1131A40E168D3E9042021F4D81121F4C0610243F0
S1131A500A43997942EA8122D97942EA4122E26031
S1131A601A78012A05D1E26842F00402E2602B4AA6
S1131A7006E0032A3ED1E26842F00402E260284A0A
S1131A800121C2F8C0105A7A04F580510A621AB1D1
S1131A90E26842F40062E260DA7A4AB1E26821491B
S1131AA042F40042E2601A7B02F00F02C1F8802087
S1131AB0E269DB7B22F003021343E36136B196F85B
S1131AC0203004F58051CBB101238B6105212046E0
S1131AD0FFF7AAFEAA681AB120466968FFF7D4FE88
S1131AE020462978FFF7A0FE236CDB4313F4405F04
S1131AF0FAD170BD023A012AC1D9B8E7626996F8F1
S1131B00223096F8210022F009020343134343F0E4
S1131B1001034B61DAE700BFE39BBDFF00E4035020
S1131B2000D403500090035038B5294B0546984221
S1131B300C463FD119B98C21264800F0A2FF382069
S1131B40FFF76CFA083808283DD8234B0341DB071C
S1131B5039D4637B032B03D9AA211E4800F091FFDB
S1131B60237B802B03D0AC211A4800F08AFF6369E1
S1131B70B3F1804F03D0AE21164800F082FF238AD0
S1131B8023F400539BB2B3F5805F03D0B021114816
S1131B9000F077FFA368013BB3F5165F03D3B221CE
S1131BA00C4800F06EFF21462846BDE8384000226C
S1131BB0FFF7FEBE8A21074800F063FF1CB98C21A1
S1131BC0044800F05EFF9E21024800F05AFFC0E77F
S1131BD00000035AEE2D0000F4FEFFFF38B5114B50
S1131BE0054698420C4603D070210F4800F049FF87
S1131BF01CB972210C4800F044FF237B802B03D1D5
S1131C007621094800F03DFF637B032B03D979213A
S1131C10054800F036FF21462846BDE8384000223A
S1131C20FFF7C6BE0000035AEE2D0000F8B5294B9D
S1131C300446984223D040F2BD21274800F021FFFA
S1131C40254840F2763100F01CFF0020FFF70AF926
S1131C50224DA66AA468AE42074604F0E00404D903
S1131C604FF49D611C4800F00CFF402C06EA050669
S1131C700FD006D83CB3202C28D0002022E03820F6
S1131C80E4E7602C24D0802CF7D14FF48075002435
S1131C901AE080250024032306F580765E430023A2
S1131CA038463246194600F0A1FC544300FB05F7C0
S1131CB005FB0344A2FB050100233246214400F046
S1131CC095FC3844F8BD10250123E5E72546DEE7F9
S1131CD04025DCE70000035AEE2D0000F8FF7F00EA
S1131CE038B5032804460D4605D80B4B33F810309D
S1131CF0CB40DB0704D44FF48661084800F0C1FEF2
S1131D0030220123544341F2100204F1A044AB40B9
S1131D1004F57034A35038BDE02E0000402E0000BE
S1131D2038B5032804460D4605D80B4B33F810305C
S1131D30CB40DB0704D440F20141084800F0A1FE87
S1131D4030220123544342F2100204F1A044AB4078
S1131D5004F57034A35038BDE02E0000402E00007E
S1131D60F8B5032804460D4616461F4605D81C4BF5
S1131D7033F81030CB40DB0704D44FF4B07119486A
S1131D8000F07FFE26B129462046CFB1FFF7A8FF19
S1131D9004EB4403072D4FF00F014FEA031312D84D
S1131DA0A80006FA00F281400F48184400F0EDFE46
S1131DB0AEB92946204677B1BDE8F840FFF790BF99
S1131DC0FFF7AEFFE4E7A5F10800800006FA00F291
S1131DD081400648E9E7BDE8F840FFF7A1BFF8BD38
S1131DE0E02E0000902E000004C003500CC00350ED
S1131DF010B5044618B991211F4800F042FE23781B
S1131E001B0613F0604F03D092211B4800F039FEEB
S1131E10E3780F2B03D99521174800F032FE0121F6
S1131E202020FEF7F5FF01212120FEF7F1FF01221A
S1131E30124B5A60227812069A606178A27842EABC
S1131E4001429A61FF229A6200229A631A644FF057
S1131E5000425A654FF0FF324FF4001103F500536E
S1131E601A65074AC2F88011E3781B01DBB282F8D5
S1131E701533116010BD00BFE82E000000000450AF
S1131E8000E100E038B5022805460C4603D94C2190
S1131E900C4800F0F6FDE378627821785B0143EAB0
S1131EA0820322790B4343EA02130C226A4302F1B0
S1131EB0B0421363012902BFA278034B43F82520E3
S1131EC038BD00BF872F0000E880035008B54FF0ED
S1131ED0B0435A686AB958B15B680BB100F065FE4B
S1131EE001210D4B596000F060FE4FF0B043D96002
S1131EF008BD5B680BB100F058FE0028F0D100F07B
S1131F0054FE4FF0B0430222DA6000F04EFE01228C
S1131F10024B5A60ECE700BF001000580020005844
S1131F2010B54FF0B0414B680BB100F03EFE0122FA
S1131F300B4BC4785A608378934043EA8403447813
S1131F402343047943EA0413447943EAC4038B60CA
S1131F50044B5A600378C3F10203CB6010BD00BF89
S1131F600020005800100058024B1868C0F30740C6
S1131F70704700BF0080E00F07B56B46054A106844
S1131F80516803C36846FFF7FBFB002003B05DF80C
S1131F9004FB00BFD72F000013B50024064A68468F
S1131FA0536F43F00103536700948DF80440FFF727
S1131FB015FB204602B010BD0040005030B58BB078
S1131FC06C46174D0FCD0FC40FCD0FC495E8030019
S1131FD084E80300134BD3F84C2112031CD5A3F55A
S1131FE0FE431C884FF6FF739C4208BF79248DF88A
S1131FF01940FFF7C1F9204480F308008DF8180058
S11320000948FEF7C5FA6846FFF7C8F83220FFF71B
S113201021FA00200BB030BDD3F85041E4B2E6E71A
S1132020E02F00000080E00F00F0490230B587B0D7
S1132030084D01AC0FCD0FC42B6801A823602A23DF
S11320408DF80530FFF79EF93220FFF7FDF90020E7
S113205007B030BD0830000010B56FF00403502104
S11320600A480B4C13F0800F03F1010207D12344FB
S1132070402A83F800131346F4D1002010BD03F066
S11320800F03043B034419761346EBE700ED00E02D
S113209000E100E030B50E4C416123688BB920604B
S11320A083600DE0891A9A681D4641616AB113463E
S11320B05A698A42F6D935B1A860521A83605A61C6
S11320C030BD0025F4E72060F7E798608260F7E709
S11320D05815002038B500F09AFD0025084B094C2E
S11320E01A682368C31A2AB123B15169994203D3E8
S11320F0C91A5161206038BD55615B1A9268F2E7D4
S1132100581500205415002038B5134D2B685B6911
S113211093B1124A022014681C4400F023FA2046AA
S113212000F0EEF900230E492A680B70D08880076E
S113213009D501230B7038BD022000F013FA0220E8
S113214000F032FAEEE79268002AF4D050690344B2
S1132150012BEBD9EFE700BF5815002054150020E0
S11321606B15002070B516469DF81420C0E903369F
S11321700271049ABDF818300260002204460D462C
S11321808260C380EEB900F042FD2844A0619DB195
S11321902E4600F0C7FC0546FFF79CFF314620465B
S11321A0FFF778FF104B1B68A34201D1FFF7ACFF88
S11321B0284600F0BBFC02E0E36865617BB90020BF
S11321C070BD00F024FD3044A061002DE0D1E3682F
S11321D06561002BDDD0204621689847D9E7204669
S11321E021689847EBE700BF5815002000220C49EE
S11321F00B687BB183420AD183687AB193608368A8
S11322001BB15A6941690A445A61002070471A4651
S11322109B68EEE70028EFD0022070470B60EEE7E2
S11322205815002070B500F084FC144E054634782F
S1132230FCB9134B1C60134B1C60134B1C8000F047
S113224021F9012000F08EF900F0E8FC0F4B024662
S1132250186020B9284600F072FC232070BD234684
S113226040F2E7310A4800F0C1F90A4B1860012333
S11322703370284600F063FC0020EFE76C15002063
S11322805815002054150020641500205C1500200A
S113229018FCFFFF5015002038B50C460546A8B1C0
S11322A0A1B100230B7000F044FC0121084B1B6812
S11322B033B900F044FC002038BD9D4204D12170A4
S11322C02278002AF9D0F4E79B68F1E72220F3E7AB
S11322D05815002038B50021044640F2E730054B7C
S11322E04FF47A721D680023E5FB040100F07EF9C7
S11322F038BD00BF5C15002000B58DB001238DF8FA
S11323000F30FFF7E7FF00230146CDE90033074A0A
S11323100DF10F0304A800F054FC18B99DF80F3018
S1132320002BFBD10DB05DF804FB00BFBD2B0000FA
S11323302DE9F843C20704460BD54E4A13880133EE
S11323409BB21380FFF7C6FE4B4B1B680BB1FFF724
S1132350DBFEA30740F18B8000F0EBFB4FF000089D
S113236005464646FFF7B6FE434F3C680CB1636929
S11323708BB10022414B012E1A7003D118F0020FC9
S113238018BF1E70002C6ED0FFF7BEFE2846BDE8B5
S1132390F84300F0D4BB23465A693AB91A79217933
S11323A0914288BF1C469B68002BF5D1284600F05B
S11323B0C6FB2569DDB100F02AFCA269A0EB020886
S11323C04FEAE873A84573F1000311DB2369134452
S11323D0A361E368B4F80680013613B1204621688E
S11323E0984700F0A6FB0546FFF774FEBDE7A84634
S11323F000F09FFB81462046FFF7F8FE484600F0B8
S11324009EFB2369002BE4D0B5EB08054FEAE87383
S113241063EB4303012D73F1000304DA40F22A5104
S1132420174800F02EFBA38B33B1E28B13449BB20D
S1132430B3F57A7F0FD2E38300F07BFB8046294615
S11324402046FFF727FEA369226940461344A3618F
S113245000F075FBBDE7A3F57A73E383A369013D3F
S1132460013BA361E8E7022000F088F88EE7BDE8AD
S1132470F88300BF64150020581500206A15002059
S11324801C3000001FB500241A4B012118689A88DB
S11324900290D3F806009B7A00903E20ADF80C2001
S11324A08DF80430FEF7B4FC8DF8084000F0ADFB65
S11324B08DF80C0002A8FFF733FD694601208DF862
S11324C00040FFF7DFFC40F2FF320B4B9A615A6188
S11324D04FF0B042936A13F00803FBD1136201205A
S11324E0FFF7F4FC4FF48052044BC3F880211A60C8
S11324F004B010BD7F3000000020005800E100E06F
S113250010B5044600F00EFB4FF0B042936A190771
S1132510FCD4136A116C5269520604D4CA1A032AF1
S113252001D88B420ED1E21A022A98BFDC1CB4F106
S1132530FF3F38BF013C4FF0B04340221C6403F519
S113254080539A6100F0F2FA054A13783BB14FF0D8
S1132550B041CB6B43F00203CB630023137010BD77
S11325604411002000F001038207034A48BF43F0EE
S113257040039361704700BF00100058820700F0C9
S113258001030AD50121064A43F0400311704FF0BC
S1132590B041CA6B22F00302CA63024A93617047D6
S11325A04411002000200058830742BF4022014B01
S11325B05A6170470010005810B500F0BAFA4FF095
S11325C0B04304465B695A06074A03F0010003F06E
S11325D0510348BF40F002005361FFF7A9FE2046B3
S11325E0BDE8104000F0ABBA0020005853B94AB916
S11325F0002908BF00281CBF4FF0FF314FF0FF3007
S113260000F082B9ADF1080C6DE904CE00F006F8D3
S1132610DDF804E0DDE9022304B070472DE9F04F52
S1132620099D0C46002B4DD18A420F46844696469E
S1132630B2FA82F360D94BB102FA03FEC3F120026D
S11326409F4000FA03FC20FA02F217434FEA1E46A9
S11326501FFA8EF44FEA1C42B7FBF6F106FB117722
S113266001FB04F042EA0742904208D91EEB020241
S113267001F1FF3702D2904200F231813946121A39
S11326801FFA8CFCB2FBF6F006FB102200FB04F4EC
S11326904CEA024C644508D91EEB0C0C00F1FF32E5
S11326A002D2644500F21E81104640EA0140ACEBC0
S11326B0040C002125B12CFA03F30022C5E90032F1
S11326C0BDE8F08F8B4205D90DB1C5E900010021A9
S11326D00846F5E7B3FA83F100294DD1A342C0F0CF
S11326E0F380904280F0F080064623460846002D91
S11326F0E6D0C5E90063E3E7002B40F0A3808A1A23
S11327004FEA1E471FFA8EF60121B2FBF7F407FBCE
S113271014204FEA1C4242EA004206FB04F09042B5
S11327200FD91EEB020204F1FF382CBF4FF0010950
S11327304FF00009904203D9B9F1000F00F0CC80AA
S11327404446121A1FFA8CFCB2FBF7F007FB102266
S113275000FB06F64CEA024C664508D91EEB0C0C4D
S113276000F1FF3202D2664500F2B3801046ACEBB2
S1132770060C40EA04409DE7C1F120068B4004FAB0
S113278001FE22FA06F720FA06FCF4408A401F43B1
S11327904EEA0C0300FA01FE4FEA17484FEA1349C8
S11327A01FFA87FCB4FBF8F008FB104449EA044420
S11327B000FB0CF9A1450ED93C1900F1FF3A2CBFDE
S11327C04FF0010B4FF0000BA14503D9BBF1000FF3
S11327D000F08B805046A4EB09041FFA83F9B4FB84
S11327E0F8F308FB134403FB0CFC49EA0444A44536
S11327F006D93C1903F1FF3801D2A4457BD84346DE
S113280043EA0040A4EB0C04A0FB02984445CC46E8
S1132810434602D306D1CE4504D20138B9EB020CAB
S113282068EB0703002D6CD0BEEB0C0264EB0304D1
S113283022FA01F304FA06F6CC4000211E43C5E94E
S113284000643DE702FA03FEC3F1200104FA03F237
S113285000FA03FCCC404FEA1E4720FA01F11FFAAC
S11328608EF6B4FBF7F00A4307FB1044110C41EA5F
S1132870044100FB06F48C420ED91EEB010100F169
S1132880FF382CBF4FF001094FF000098C4202D9E8
S1132890B9F1000F2CD04046091B92B2B1FBF7F4FA
S11328A007FB141142EA014204FB06F1914207D9E5
S11328B01EEB020204F1FF3801D291421ED84446B5
S11328C0521A44EA004120E7861A64EB030301200C
S11328D00DE7F44402384AE7023C724431E7023916
S11328E07244CCE6F4440238DFE602383C4472E732
S11328F002387144D0E7023B3C4481E7023C724415
S1132900DEE72946DCE600BF704700BF08B5064B8A
S1132910044613B10021AFF30080044B1B6803B1DC
S11329209847204600F049F9000000006015002097
S113293070B50D4D00260D4C641BA410A64209D1A0
S11329400B4D00260B4C00F09BF9641BA410A6420F
S113295005D170BD55F8043B01369847EEE755F8AC
S1132960043B01369847F2E7481100204811002043
S1132970481100204C11002008B500F059F9FDF76A
S11329806BFC00F062F9FDF783FCFAE700F01AB87B
S113299008B5FDF717FEFDF751FFFDF70FFDBDE884
S11329A00840FDF721BD08B500F00AF8BDE808406D
S11329B0FFF738BC704770477047704770477047DF
S11329C00F2070470E20704708B501213A20FEF70A
S11329D01FFABDE80840FFF7D9BF01213A20FEF7EE
S11329E017BA70B5002506462C46052C20D8DFE81A
S11329F004F003070B0F13175B210820FDF742FEB9
S1132A000C210820FDF73EFED1210820FDF73AFEF7
S1132A1080210820FDF736FE00210820FDF732FE54
S1132A206C1C2946E4B208202546FDF72BFE06243B
S1132A30A4F10E03012B05D85A210820FDF722FE2C
S1132A400134D2E7102C05D1BDE870405D21082087
S1132A50FDF718BEB31F195DEFE7FEE710B53AB1F5
S1132A60002350F8234041F8234001339A42F8D11F
S1132A7010BD002070474FF4004070474FF47A7047
S1132A807047FEE74FF060420123D2F8001E8340F6
S1132A900B430020C2F8003E70474FF06041012212
S1132AA0D1F8003E824023EA02030020C1F8003E30
S1132AB0704710B50446C17F01230422C07EFFF78E
S1132AC04FF994F82010207F0123BDE81040022222
S1132AD0FFF746B908B5FDF751FDBDE808400021F0
S1132AE0FEF770B90029CCBF01210021FEF76AB9B5
S1132AF002214FF42070FEF7B3BC10B5FDF72CFD96
S1132B000446FDF7C1FFC0F102012046FFF7EAFFCA
S1132B1001210020FEF7C0FDFEF734FDBDE81040A2
S1132B20FEF76CBAEFF3108072B6704700B962B664
S1132B307047EFF31180302383F31188704780F3DB
S1132B401188704770477047C36C0B42FCD17047C3
S1132B5008B543680246DB0714D50A2350210363F2
S1132B60FFF7F2FF136C9907FCD1936A0121104619
S1132B709362FFF7E9FF136C1B0604D4012302F5EB
S1132B800052536008BD536BF5E770B50546144613
S1132B900E46FFF7C7FF2B685C4034405C402C6056
S1132BA0BDE87040FFF7C2BF70474FF0B0435A68AA
S1132BB012B19A6A002AFAD17047FEE700230B701B
S1132BC07047F0B587B01F4600230D4616460446ED
S1132BD08DF81730A8B1C3610DF11701FFF75CFB45
S1132BE09DF817207AB9BDF83430294602939DF830
S1132BF030302046CDE900733346FFF7B3FA07B00F
S1132C00F0BD2220FBE70320F9E7002070474FF0D6
S1132C10B0439A6A1207FCD4186A704708B53E207C
S1132C20FEF720F90346FFF7F0FF23FA00F008BD92
S1132C3008B5FDF78DFBFFF7ABFEFFF7B4FEFFF71A
S1132C40B9FEBDE80840FFF7B6BE08B5FFF7B4FE0D
S1132C50FFF7B3FEFFF7B2FEBDE80840FFF7AFBED3
S1132C6002440346934200D1704703F8011BF9E77D
S1132C700000000000000000000000000000000050
S1132C80F8B500BFF8BC08BC9E467047F8B500BF55
S1132C90F8BC08BC9E46704700000000000000001D
S1132CA00000000000000000000000000000000020
S1132CB00000000000000000000000000000000010
S1132CC01E000003050000000000000000C2010017
S1132CD000050000001000000000000000000000DB
S1132CE0050000000000000000C201000002000016
S1132CF000100000000000000000000000000000C0
S1132D00433A2F55736572732F73756468617273D8
S1132D10616E2F53696D706C69636974795374754E
S1132D2064696F2F53444B732F6765636B6F5F73D5
S1132D30646B2F706C6174666F726D2F656D6C6956
S1132D40622F7372632F656D5F636D752E6300432D
S1132D503A2F55736572732F73756468617273616A
S1132D606E2F53696D706C696369747953747564FB
S1132D70696F2F53444B732F6765636B6F5F736485
S1132D806B2F706C6174666F726D2F656D6C696208
S1132D902F7372632F656D5F636F72652E630043DB
S1132DA03A2F55736572732F73756468617273611A
S1132DB06E2F53696D706C696369747953747564AB
S1132DC0696F2F53444B732F6765636B6F5F736435
S1132DD06B2F706C6174666F726D2F656D6C6962B8
S1132DE02F7372632F656D5F656D752E6300433AB3
S1132DF02F55736572732F73756468617273616E96
S1132E002F53696D706C696369747953747564695F
S1132E106F2F53444B732F6765636B6F5F73646BE2
S1132E202F706C6174666F726D2F656D6C69622FA3
S1132E307372632F656D5F6575736172742E6300C1
S1132E40633A5C75736572735C73756468617273FD
S1132E50616E5C73696D706C6963697479737475A0
S1132E6064696F5C73646B735C6765636B6F5F73DA
S1132E70646B5C706C6174666F726D5C656D6C69BB
S1132E80625C696E635C656D5F6770696F2E680074
S1132E90433A2F55736572732F7375646861727347
S1132EA0616E2F53696D706C6963697479537475BD
S1132EB064696F2F53444B732F6765636B6F5F7344
S1132EC0646B2F706C6174666F726D2F656D6C69C5
S1132ED0622F7372632F656D5F6770696F2E630075
S1132EE0FF011F00FF000F00433A2F5573657273F3
S1132EF02F73756468617273616E2F53696D706CA2
S1132F00696369747953747564696F2F53444B739F
S1132F102F6765636B6F5F73646B2F706C6174668E
S1132F206F726D2F656D6C69622F7372632F656D9F
S1132F305F6C646D612E6300633A5C7573657273D4
S1132F405C73756468617273616E5C73696D706CD7
S1132F50696369747973747564696F5C73646B73A2
S1132F605C6765636B6F5F73646B5C706C617466E4
S1132F706F726D5C656D6C69625C696E635C656DD6
S1132F805F6275732E6800433A2F55736572732F11
S1132F9073756468617273616E2F53696D706C69C7
S1132FA06369747953747564696F2F53444B732F39
S1132FB06765636B6F5F73646B2F706C6174666FAE
S1132FC0726D2F656D6C69622F7372632F656D5F0F
S1132FD0727463632E630001030401010109030099
S1132FE00B0000000B000000020000000000202085
S1132FF000000000030000008C8C3C000000000076
S11330000000000000000000012600000400000091
S1133010000000000001000000000000433A2F55AA
S1133020736572732F73756468617273616E2F5365
S1133030696D706C696369747953747564696F2F11
S113304053444B732F6765636B6F5F73646B2F70AF
S11330506C6174666F726D2F736572766963652F28
S1133060736C65657074696D65722F7372632F7309
S11330706C5F736C65657074696D65722E630001B5
S10F308000000005000200000300000036
S10B308C44D1FF7F01000000A4
S10F3094A03000000010002054000000D8
S11330A00000035A0000000000C2010000000506F1
S11330B000000010000000000000000000000800F4
S11330C007000000AC1000202C10002000000000BD
S11330D000000600000000000000000000000000E6
S11330E000000000000000000000000000000000DC
S11330F000000000000000000000000000000000CC
S113310000000000000000000000000000000000BB
S113311000000000000000000000000000000000AB
S1133120000000000000000000000000000000009B
S1133130000000000000000000000000000000008B
S1133140000000000000000000000000000000007B
S11331500000060000000000000000000000000065
S1133160000000000000000000000000000000005B
S1133170000000000000000000000000000000004B
S1133180000000000000000000000000000000003B
S1133190000000000000000000000000000000002B
S11331A0000000000000000000000000000000001B
S11331B0000000000000000000000000000000000B
S11331C00000000000000000000000006C1100205E
S11331D0C0EA2101C0EA21010080000000F0490298
S11331E0FFFFFFFF01000000AD01000085010000AA
S9030451A7
